{"abi":[{"type":"constructor","inputs":[{"name":"name","type":"string","internalType":"string"},{"name":"symbol","type":"string","internalType":"string"},{"name":"registryAddress","type":"address","internalType":"address"}],"stateMutability":"nonpayable"},{"type":"function","name":"adminMint","inputs":[],"outputs":[],"stateMutability":"nonpayable"},{"type":"function","name":"approve","inputs":[{"name":"to","type":"address","internalType":"address"},{"name":"tokenId","type":"uint256","internalType":"uint256"}],"outputs":[],"stateMutability":"nonpayable"},{"type":"function","name":"balanceOf","inputs":[{"name":"owner","type":"address","internalType":"address"}],"outputs":[{"name":"","type":"uint256","internalType":"uint256"}],"stateMutability":"view"},{"type":"function","name":"burn","inputs":[{"name":"tokenId","type":"uint256","internalType":"uint256"}],"outputs":[],"stateMutability":"nonpayable"},{"type":"function","name":"familyDAO","inputs":[],"outputs":[{"name":"","type":"address","internalType":"address"}],"stateMutability":"view"},{"type":"function","name":"getApproved","inputs":[{"name":"tokenId","type":"uint256","internalType":"uint256"}],"outputs":[{"name":"","type":"address","internalType":"address"}],"stateMutability":"view"},{"type":"function","name":"getMetadataURI","inputs":[{"name":"tokenId","type":"uint256","internalType":"uint256"}],"outputs":[{"name":"","type":"string","internalType":"string"}],"stateMutability":"view"},{"type":"function","name":"hasMinted","inputs":[{"name":"","type":"address","internalType":"address"}],"outputs":[{"name":"","type":"bool","internalType":"bool"}],"stateMutability":"view"},{"type":"function","name":"isApprovedForAll","inputs":[{"name":"owner","type":"address","internalType":"address"},{"name":"operator","type":"address","internalType":"address"}],"outputs":[{"name":"","type":"bool","internalType":"bool"}],"stateMutability":"view"},{"type":"function","name":"mint","inputs":[{"name":"to","type":"address","internalType":"address"},{"name":"_tokenURI","type":"string","internalType":"string"}],"outputs":[],"stateMutability":"nonpayable"},{"type":"function","name":"name","inputs":[],"outputs":[{"name":"","type":"string","internalType":"string"}],"stateMutability":"view"},{"type":"function","name":"nextTokenId","inputs":[],"outputs":[{"name":"","type":"uint256","internalType":"uint256"}],"stateMutability":"view"},{"type":"function","name":"owner","inputs":[],"outputs":[{"name":"","type":"address","internalType":"address"}],"stateMutability":"view"},{"type":"function","name":"ownerOf","inputs":[{"name":"tokenId","type":"uint256","internalType":"uint256"}],"outputs":[{"name":"","type":"address","internalType":"address"}],"stateMutability":"view"},{"type":"function","name":"registry","inputs":[],"outputs":[{"name":"","type":"address","internalType":"contract FamilyRegistry"}],"stateMutability":"view"},{"type":"function","name":"renounceOwnership","inputs":[],"outputs":[],"stateMutability":"nonpayable"},{"type":"function","name":"safeTransferFrom","inputs":[{"name":"from","type":"address","internalType":"address"},{"name":"to","type":"address","internalType":"address"},{"name":"tokenId","type":"uint256","internalType":"uint256"}],"outputs":[],"stateMutability":"nonpayable"},{"type":"function","name":"safeTransferFrom","inputs":[{"name":"from","type":"address","internalType":"address"},{"name":"to","type":"address","internalType":"address"},{"name":"tokenId","type":"uint256","internalType":"uint256"},{"name":"data","type":"bytes","internalType":"bytes"}],"outputs":[],"stateMutability":"nonpayable"},{"type":"function","name":"setApprovalForAll","inputs":[{"name":"operator","type":"address","internalType":"address"},{"name":"approved","type":"bool","internalType":"bool"}],"outputs":[],"stateMutability":"nonpayable"},{"type":"function","name":"setFamilyDAO","inputs":[{"name":"dao","type":"address","internalType":"address"}],"outputs":[],"stateMutability":"nonpayable"},{"type":"function","name":"supportsInterface","inputs":[{"name":"interfaceId","type":"bytes4","internalType":"bytes4"}],"outputs":[{"name":"","type":"bool","internalType":"bool"}],"stateMutability":"view"},{"type":"function","name":"symbol","inputs":[],"outputs":[{"name":"","type":"string","internalType":"string"}],"stateMutability":"view"},{"type":"function","name":"tokenMetadataURI","inputs":[{"name":"","type":"uint256","internalType":"uint256"}],"outputs":[{"name":"","type":"string","internalType":"string"}],"stateMutability":"view"},{"type":"function","name":"tokenURI","inputs":[{"name":"tokenId","type":"uint256","internalType":"uint256"}],"outputs":[{"name":"","type":"string","internalType":"string"}],"stateMutability":"view"},{"type":"function","name":"transferFrom","inputs":[{"name":"from","type":"address","internalType":"address"},{"name":"to","type":"address","internalType":"address"},{"name":"tokenId","type":"uint256","internalType":"uint256"}],"outputs":[],"stateMutability":"nonpayable"},{"type":"function","name":"transferOwnership","inputs":[{"name":"newOwner","type":"address","internalType":"address"}],"outputs":[],"stateMutability":"nonpayable"},{"type":"event","name":"Approval","inputs":[{"name":"owner","type":"address","indexed":true,"internalType":"address"},{"name":"approved","type":"address","indexed":true,"internalType":"address"},{"name":"tokenId","type":"uint256","indexed":true,"internalType":"uint256"}],"anonymous":false},{"type":"event","name":"ApprovalForAll","inputs":[{"name":"owner","type":"address","indexed":true,"internalType":"address"},{"name":"operator","type":"address","indexed":true,"internalType":"address"},{"name":"approved","type":"bool","indexed":false,"internalType":"bool"}],"anonymous":false},{"type":"event","name":"BatchMetadataUpdate","inputs":[{"name":"_fromTokenId","type":"uint256","indexed":false,"internalType":"uint256"},{"name":"_toTokenId","type":"uint256","indexed":false,"internalType":"uint256"}],"anonymous":false},{"type":"event","name":"MetadataUpdate","inputs":[{"name":"_tokenId","type":"uint256","indexed":false,"internalType":"uint256"}],"anonymous":false},{"type":"event","name":"OwnershipTransferred","inputs":[{"name":"previousOwner","type":"address","indexed":true,"internalType":"address"},{"name":"newOwner","type":"address","indexed":true,"internalType":"address"}],"anonymous":false},{"type":"event","name":"Transfer","inputs":[{"name":"from","type":"address","indexed":true,"internalType":"address"},{"name":"to","type":"address","indexed":true,"internalType":"address"},{"name":"tokenId","type":"uint256","indexed":true,"internalType":"uint256"}],"anonymous":false},{"type":"error","name":"ERC721IncorrectOwner","inputs":[{"name":"sender","type":"address","internalType":"address"},{"name":"tokenId","type":"uint256","internalType":"uint256"},{"name":"owner","type":"address","internalType":"address"}]},{"type":"error","name":"ERC721InsufficientApproval","inputs":[{"name":"operator","type":"address","internalType":"address"},{"name":"tokenId","type":"uint256","internalType":"uint256"}]},{"type":"error","name":"ERC721InvalidApprover","inputs":[{"name":"approver","type":"address","internalType":"address"}]},{"type":"error","name":"ERC721InvalidOperator","inputs":[{"name":"operator","type":"address","internalType":"address"}]},{"type":"error","name":"ERC721InvalidOwner","inputs":[{"name":"owner","type":"address","internalType":"address"}]},{"type":"error","name":"ERC721InvalidReceiver","inputs":[{"name":"receiver","type":"address","internalType":"address"}]},{"type":"error","name":"ERC721InvalidSender","inputs":[{"name":"sender","type":"address","internalType":"address"}]},{"type":"error","name":"ERC721NonexistentToken","inputs":[{"name":"tokenId","type":"uint256","internalType":"uint256"}]},{"type":"error","name":"OwnableInvalidOwner","inputs":[{"name":"owner","type":"address","internalType":"address"}]},{"type":"error","name":"OwnableUnauthorizedAccount","inputs":[{"name":"account","type":"address","internalType":"address"}]}],"bytecode":{"object":"0x608060405234801561000f575f5ffd5b50604051613ae7380380613ae783398181016040528101906100319190610387565b338383815f9081610042919061061f565b508060019081610052919061061f565b5050505f73ffffffffffffffffffffffffffffffffffffffff168173ffffffffffffffffffffffffffffffffffffffff16036100c5575f6040517f1e4fbdf70000000000000000000000000000000000000000000000000000000081526004016100bc91906106fd565b60405180910390fd5b6100d48161011d60201b60201c565b5080600b5f6101000a81548173ffffffffffffffffffffffffffffffffffffffff021916908373ffffffffffffffffffffffffffffffffffffffff160217905550505050610716565b5f60075f9054906101000a900473ffffffffffffffffffffffffffffffffffffffff1690508160075f6101000a81548173ffffffffffffffffffffffffffffffffffffffff021916908373ffffffffffffffffffffffffffffffffffffffff1602179055508173ffffffffffffffffffffffffffffffffffffffff168173ffffffffffffffffffffffffffffffffffffffff167f8be0079c531659141344cd1fd0a4f28419497f9722a3daafe3b4186f6b6457e060405160405180910390a35050565b5f604051905090565b5f5ffd5b5f5ffd5b5f5ffd5b5f5ffd5b5f601f19601f8301169050919050565b7f4e487b71000000000000000000000000000000000000000000000000000000005f52604160045260245ffd5b61023f826101f9565b810181811067ffffffffffffffff8211171561025e5761025d610209565b5b80604052505050565b5f6102706101e0565b905061027c8282610236565b919050565b5f67ffffffffffffffff82111561029b5761029a610209565b5b6102a4826101f9565b9050602081019050919050565b8281835e5f83830152505050565b5f6102d16102cc84610281565b610267565b9050828152602081018484840111156102ed576102ec6101f5565b5b6102f88482856102b1565b509392505050565b5f82601f830112610314576103136101f1565b5b81516103248482602086016102bf565b91505092915050565b5f73ffffffffffffffffffffffffffffffffffffffff82169050919050565b5f6103568261032d565b9050919050565b6103668161034c565b8114610370575f5ffd5b50565b5f815190506103818161035d565b92915050565b5f5f5f6060848603121561039e5761039d6101e9565b5b5f84015167ffffffffffffffff8111156103bb576103ba6101ed565b5b6103c786828701610300565b935050602084015167ffffffffffffffff8111156103e8576103e76101ed565b5b6103f486828701610300565b925050604061040586828701610373565b9150509250925092565b5f81519050919050565b7f4e487b71000000000000000000000000000000000000000000000000000000005f52602260045260245ffd5b5f600282049050600182168061045d57607f821691505b6020821081036104705761046f610419565b5b50919050565b5f819050815f5260205f209050919050565b5f6020601f8301049050919050565b5f82821b905092915050565b5f600883026104d27fffffffffffffffffffffffffffffffffffffffffffffffffffffffffffffffff82610497565b6104dc8683610497565b95508019841693508086168417925050509392505050565b5f819050919050565b5f819050919050565b5f61052061051b610516846104f4565b6104fd565b6104f4565b9050919050565b5f819050919050565b61053983610506565b61054d61054582610527565b8484546104a3565b825550505050565b5f5f905090565b610564610555565b61056f818484610530565b505050565b5b81811015610592576105875f8261055c565b600181019050610575565b5050565b601f8211156105d7576105a881610476565b6105b184610488565b810160208510156105c0578190505b6105d46105cc85610488565b830182610574565b50505b505050565b5f82821c905092915050565b5f6105f75f19846008026105dc565b1980831691505092915050565b5f61060f83836105e8565b9150826002028217905092915050565b6106288261040f565b67ffffffffffffffff81111561064157610640610209565b5b61064b8254610446565b610656828285610596565b5f60209050601f831160018114610687575f8415610675578287015190505b61067f8582610604565b8655506106e6565b601f19841661069586610476565b5f5b828110156106bc57848901518255600182019150602085019450602081019050610697565b868310156106d957848901516106d5601f8916826105e8565b8355505b6001600288020188555050505b505050505050565b6106f78161034c565b82525050565b5f6020820190506107105f8301846106ee565b92915050565b6133c4806107235f395ff3fe608060405234801561000f575f5ffd5b506004361061018c575f3560e01c8063715018a6116100dc578063a22cb46511610095578063c87b56dd1161006f578063c87b56dd1461046c578063d0def5211461049c578063e985e9c5146104b8578063f2fde38b146104e85761018c565b8063a22cb46514610404578063b88d4fde14610420578063bde644fb1461043c5761018c565b8063715018a61461037857806375794a3c146103825780637b103999146103a0578063895fc788146103be5780638da5cb5b146103c857806395d89b41146103e65761018c565b8063286105531161014957806342842e0e1161012357806342842e0e146102e057806342966c68146102fc5780636352211e1461031857806370a08231146103485761018c565b8063286105531461027657806334b6ea1f1461029257806338e21cce146102b05761018c565b806301ffc9a71461019057806306fdde03146101c0578063081812fc146101de578063095ea7b31461020e578063157c3df91461022a57806323b872dd1461025a575b5f5ffd5b6101aa60048036038101906101a591906124b5565b610504565b6040516101b791906124fa565b60405180910390f35b6101c8610564565b6040516101d59190612583565b60405180910390f35b6101f860048036038101906101f391906125d6565b6105f3565b6040516102059190612640565b60405180910390f35b61022860048036038101906102239190612683565b61060e565b005b610244600480360381019061023f91906125d6565b610624565b6040516102519190612583565b60405180910390f35b610274600480360381019061026f91906126c1565b6106bf565b005b610290600480360381019061028b9190612711565b6107be565b005b61029a610898565b6040516102a79190612640565b60405180910390f35b6102ca60048036038101906102c59190612711565b6108bd565b6040516102d791906124fa565b60405180910390f35b6102fa60048036038101906102f591906126c1565b6108da565b005b610316600480360381019061031191906125d6565b6108f9565b005b610332600480360381019061032d91906125d6565b6109f5565b60405161033f9190612640565b60405180910390f35b610362600480360381019061035d9190612711565b610a06565b60405161036f919061274b565b60405180910390f35b610380610abc565b005b61038a610acf565b604051610397919061274b565b60405180910390f35b6103a8610ad5565b6040516103b591906127bf565b60405180910390f35b6103c6610afa565b005b6103d0610c74565b6040516103dd9190612640565b60405180910390f35b6103ee610c9c565b6040516103fb9190612583565b60405180910390f35b61041e60048036038101906104199190612802565b610d2c565b005b61043a6004803603810190610435919061296c565b610d42565b005b610456600480360381019061045191906125d6565b610d67565b6040516104639190612583565b60405180910390f35b610486600480360381019061048191906125d6565b610e08565b6040516104939190612583565b60405180910390f35b6104b660048036038101906104b19190612a8a565b610f13565b005b6104d260048036038101906104cd9190612ae4565b611290565b6040516104df91906124fa565b60405180910390f35b61050260048036038101906104fd9190612711565b61131e565b005b5f634906490660e01b7bffffffffffffffffffffffffffffffffffffffffffffffffffffffff1916827bffffffffffffffffffffffffffffffffffffffffffffffffffffffff1916148061055d575061055c826113a2565b5b9050919050565b60605f805461057290612b4f565b80601f016020809104026020016040519081016040528092919081815260200182805461059e90612b4f565b80156105e95780601f106105c0576101008083540402835291602001916105e9565b820191905f5260205f20905b8154815290600101906020018083116105cc57829003601f168201915b5050505050905090565b5f6105fd82611483565b5061060782611509565b9050919050565b610620828261061b611542565b611549565b5050565b600a602052805f5260405f205f91509050805461064090612b4f565b80601f016020809104026020016040519081016040528092919081815260200182805461066c90612b4f565b80156106b75780601f1061068e576101008083540402835291602001916106b7565b820191905f5260205f20905b81548152906001019060200180831161069a57829003601f168201915b505050505081565b5f73ffffffffffffffffffffffffffffffffffffffff168273ffffffffffffffffffffffffffffffffffffffff160361072f575f6040517f64a0ae920000000000000000000000000000000000000000000000000000000081526004016107269190612640565b60405180910390fd5b5f610742838361073d611542565b61155b565b90508373ffffffffffffffffffffffffffffffffffffffff168173ffffffffffffffffffffffffffffffffffffffff16146107b8578382826040517f64283d7b0000000000000000000000000000000000000000000000000000000081526004016107af93929190612b7f565b60405180910390fd5b50505050565b6107c6611766565b5f73ffffffffffffffffffffffffffffffffffffffff16600c5f9054906101000a900473ffffffffffffffffffffffffffffffffffffffff1673ffffffffffffffffffffffffffffffffffffffff1614610855576040517f08c379a000000000000000000000000000000000000000000000000000000000815260040161084c90612bfe565b60405180910390fd5b80600c5f6101000a81548173ffffffffffffffffffffffffffffffffffffffff021916908373ffffffffffffffffffffffffffffffffffffffff16021790555050565b600c5f9054906101000a900473ffffffffffffffffffffffffffffffffffffffff1681565b6009602052805f5260405f205f915054906101000a900460ff1681565b6108f483838360405180602001604052805f815250610d42565b505050565b600c5f9054906101000a900473ffffffffffffffffffffffffffffffffffffffff1673ffffffffffffffffffffffffffffffffffffffff163373ffffffffffffffffffffffffffffffffffffffff1614610988576040517f08c379a000000000000000000000000000000000000000000000000000000000815260040161097f90612c66565b60405180910390fd5b5f610992826109f5565b905061099d826117ed565b5f60095f8373ffffffffffffffffffffffffffffffffffffffff1673ffffffffffffffffffffffffffffffffffffffff1681526020019081526020015f205f6101000a81548160ff0219169083151502179055505050565b5f6109ff82611483565b9050919050565b5f5f73ffffffffffffffffffffffffffffffffffffffff168273ffffffffffffffffffffffffffffffffffffffff1603610a77575f6040517f89c62b64000000000000000000000000000000000000000000000000000000008152600401610a6e9190612640565b60405180910390fd5b60035f8373ffffffffffffffffffffffffffffffffffffffff1673ffffffffffffffffffffffffffffffffffffffff1681526020019081526020015f20549050919050565b610ac4611766565b610acd5f61186f565b565b60085481565b600b5f9054906101000a900473ffffffffffffffffffffffffffffffffffffffff1681565b610b02611766565b60095f3373ffffffffffffffffffffffffffffffffffffffff1673ffffffffffffffffffffffffffffffffffffffff1681526020019081526020015f205f9054906101000a900460ff1615610b8c576040517f08c379a0000000000000000000000000000000000000000000000000000000008152600401610b8390612cce565b60405180910390fd5b610b9833600854611932565b5f6040518060600160405280603b8152602001613354603b913990505f81604051602001610bc69190612d4c565b6040516020818303038152906040529050610be36008548261194f565b80600a5f60085481526020019081526020015f209081610c039190612f08565b50600160095f3373ffffffffffffffffffffffffffffffffffffffff1673ffffffffffffffffffffffffffffffffffffffff1681526020019081526020015f205f6101000a81548160ff02191690831515021790555060085f815480929190610c6b90613004565b91905055505050565b5f60075f9054906101000a900473ffffffffffffffffffffffffffffffffffffffff16905090565b606060018054610cab90612b4f565b80601f0160208091040260200160405190810160405280929190818152602001828054610cd790612b4f565b8015610d225780601f10610cf957610100808354040283529160200191610d22565b820191905f5260205f20905b815481529060010190602001808311610d0557829003601f168201915b5050505050905090565b610d3e610d37611542565b83836119a9565b5050565b610d4d8484846106bf565b610d61610d58611542565b85858585611b12565b50505050565b6060600a5f8381526020019081526020015f208054610d8590612b4f565b80601f0160208091040260200160405190810160405280929190818152602001828054610db190612b4f565b8015610dfc5780601f10610dd357610100808354040283529160200191610dfc565b820191905f5260205f20905b815481529060010190602001808311610ddf57829003601f168201915b50505050509050919050565b6060610e1382611483565b505f60065f8481526020019081526020015f208054610e3190612b4f565b80601f0160208091040260200160405190810160405280929190818152602001828054610e5d90612b4f565b8015610ea85780601f10610e7f57610100808354040283529160200191610ea8565b820191905f5260205f20905b815481529060010190602001808311610e8b57829003601f168201915b505050505090505f610eb8611cbe565b90505f815103610ecc578192505050610f0e565b5f82511115610f00578082604051602001610ee892919061304b565b60405160208183030381529060405292505050610f0e565b610f0984611cd4565b925050505b919050565b600b5f9054906101000a900473ffffffffffffffffffffffffffffffffffffffff1673ffffffffffffffffffffffffffffffffffffffff166328ec14cc836040518263ffffffff1660e01b8152600401610f6d9190612640565b602060405180830381865afa158015610f88573d5f5f3e3d5ffd5b505050506040513d601f19601f82011682018060405250810190610fac9190613082565b806110035750600c5f9054906101000a900473ffffffffffffffffffffffffffffffffffffffff1673ffffffffffffffffffffffffffffffffffffffff163373ffffffffffffffffffffffffffffffffffffffff16145b611042576040517f08c379a0000000000000000000000000000000000000000000000000000000008152600401611039906130f7565b60405180910390fd5b60095f8373ffffffffffffffffffffffffffffffffffffffff1673ffffffffffffffffffffffffffffffffffffffff1681526020019081526020015f205f9054906101000a900460ff16156110cc576040517f08c379a00000000000000000000000000000000000000000000000000000000081526004016110c39061315f565b60405180910390fd5b5f600b5f9054906101000a900473ffffffffffffffffffffffffffffffffffffffff1673ffffffffffffffffffffffffffffffffffffffff1663a9405923846040518263ffffffff1660e01b81526004016111279190612640565b602060405180830381865afa158015611142573d5f5f3e3d5ffd5b505050506040513d601f19601f820116820180604052508101906111669190613191565b90505f73ffffffffffffffffffffffffffffffffffffffff168173ffffffffffffffffffffffffffffffffffffffff16146111e6575f6111a582610a06565b116111e5576040517f08c379a00000000000000000000000000000000000000000000000000000000081526004016111dc90613206565b60405180910390fd5b5b6111f283600854611932565b6111fe6008548361194f565b81600a5f60085481526020019081526020015f20908161121e9190612f08565b50600160095f8573ffffffffffffffffffffffffffffffffffffffff1673ffffffffffffffffffffffffffffffffffffffff1681526020019081526020015f205f6101000a81548160ff02191690831515021790555060085f81548092919061128690613004565b9190505550505050565b5f60055f8473ffffffffffffffffffffffffffffffffffffffff1673ffffffffffffffffffffffffffffffffffffffff1681526020019081526020015f205f8373ffffffffffffffffffffffffffffffffffffffff1673ffffffffffffffffffffffffffffffffffffffff1681526020019081526020015f205f9054906101000a900460ff16905092915050565b611326611766565b5f73ffffffffffffffffffffffffffffffffffffffff168173ffffffffffffffffffffffffffffffffffffffff1603611396575f6040517f1e4fbdf700000000000000000000000000000000000000000000000000000000815260040161138d9190612640565b60405180910390fd5b61139f8161186f565b50565b5f7f80ac58cd000000000000000000000000000000000000000000000000000000007bffffffffffffffffffffffffffffffffffffffffffffffffffffffff1916827bffffffffffffffffffffffffffffffffffffffffffffffffffffffff1916148061146c57507f5b5e139f000000000000000000000000000000000000000000000000000000007bffffffffffffffffffffffffffffffffffffffffffffffffffffffff1916827bffffffffffffffffffffffffffffffffffffffffffffffffffffffff1916145b8061147c575061147b82611d3a565b5b9050919050565b5f5f61148e83611da3565b90505f73ffffffffffffffffffffffffffffffffffffffff168173ffffffffffffffffffffffffffffffffffffffff160361150057826040517f7e2732890000000000000000000000000000000000000000000000000000000081526004016114f7919061274b565b60405180910390fd5b80915050919050565b5f60045f8381526020019081526020015f205f9054906101000a900473ffffffffffffffffffffffffffffffffffffffff169050919050565b5f33905090565b6115568383836001611ddc565b505050565b5f5f61156684611da3565b90505f73ffffffffffffffffffffffffffffffffffffffff168373ffffffffffffffffffffffffffffffffffffffff16146115a7576115a6818486611f9b565b5b5f73ffffffffffffffffffffffffffffffffffffffff168173ffffffffffffffffffffffffffffffffffffffff1614611632576115e65f855f5f611ddc565b600160035f8373ffffffffffffffffffffffffffffffffffffffff1673ffffffffffffffffffffffffffffffffffffffff1681526020019081526020015f205f82825403925050819055505b5f73ffffffffffffffffffffffffffffffffffffffff168573ffffffffffffffffffffffffffffffffffffffff16146116b157600160035f8773ffffffffffffffffffffffffffffffffffffffff1673ffffffffffffffffffffffffffffffffffffffff1681526020019081526020015f205f82825401925050819055505b8460025f8681526020019081526020015f205f6101000a81548173ffffffffffffffffffffffffffffffffffffffff021916908373ffffffffffffffffffffffffffffffffffffffff160217905550838573ffffffffffffffffffffffffffffffffffffffff168273ffffffffffffffffffffffffffffffffffffffff167fddf252ad1be2c89b69c2b068fc378daa952ba7f163c4a11628f55a4df523b3ef60405160405180910390a4809150509392505050565b61176e611542565b73ffffffffffffffffffffffffffffffffffffffff1661178c610c74565b73ffffffffffffffffffffffffffffffffffffffff16146117eb576117af611542565b6040517f118cdaa70000000000000000000000000000000000000000000000000000000081526004016117e29190612640565b60405180910390fd5b565b5f6117f95f835f61155b565b90505f73ffffffffffffffffffffffffffffffffffffffff168173ffffffffffffffffffffffffffffffffffffffff160361186b57816040517f7e273289000000000000000000000000000000000000000000000000000000008152600401611862919061274b565b60405180910390fd5b5050565b5f60075f9054906101000a900473ffffffffffffffffffffffffffffffffffffffff1690508160075f6101000a81548173ffffffffffffffffffffffffffffffffffffffff021916908373ffffffffffffffffffffffffffffffffffffffff1602179055508173ffffffffffffffffffffffffffffffffffffffff168173ffffffffffffffffffffffffffffffffffffffff167f8be0079c531659141344cd1fd0a4f28419497f9722a3daafe3b4186f6b6457e060405160405180910390a35050565b61194b828260405180602001604052805f81525061205e565b5050565b8060065f8481526020019081526020015f20908161196d9190612f08565b507ff8e1a15aba9398e019f0b49df1a4fde98ee17ae345cb5f6b5e2c27f5033e8ce78260405161199d919061274b565b60405180910390a15050565b5f73ffffffffffffffffffffffffffffffffffffffff168273ffffffffffffffffffffffffffffffffffffffff1603611a1957816040517f5b08ba18000000000000000000000000000000000000000000000000000000008152600401611a109190612640565b60405180910390fd5b8060055f8573ffffffffffffffffffffffffffffffffffffffff1673ffffffffffffffffffffffffffffffffffffffff1681526020019081526020015f205f8473ffffffffffffffffffffffffffffffffffffffff1673ffffffffffffffffffffffffffffffffffffffff1681526020019081526020015f205f6101000a81548160ff0219169083151502179055508173ffffffffffffffffffffffffffffffffffffffff168373ffffffffffffffffffffffffffffffffffffffff167f17307eab39ab6107e8899845ad3d59bd9653f200f220920489ca2b5937696c3183604051611b0591906124fa565b60405180910390a3505050565b5f8373ffffffffffffffffffffffffffffffffffffffff163b1115611cb7578273ffffffffffffffffffffffffffffffffffffffff1663150b7a02868685856040518563ffffffff1660e01b8152600401611b709493929190613276565b6020604051808303815f875af1925050508015611bab57506040513d601f19601f82011682018060405250810190611ba891906132d4565b60015b611c2c573d805f8114611bd9576040519150601f19603f3d011682016040523d82523d5f602084013e611bde565b606091505b505f815103611c2457836040517f64a0ae92000000000000000000000000000000000000000000000000000000008152600401611c1b9190612640565b60405180910390fd5b805181602001fd5b63150b7a0260e01b7bffffffffffffffffffffffffffffffffffffffffffffffffffffffff1916817bffffffffffffffffffffffffffffffffffffffffffffffffffffffff191614611cb557836040517f64a0ae92000000000000000000000000000000000000000000000000000000008152600401611cac9190612640565b60405180910390fd5b505b5050505050565b606060405180602001604052805f815250905090565b6060611cdf82611483565b505f611ce9611cbe565b90505f815111611d075760405180602001604052805f815250611d32565b80611d1184612081565b604051602001611d2292919061304b565b6040516020818303038152906040525b915050919050565b5f7f01ffc9a7000000000000000000000000000000000000000000000000000000007bffffffffffffffffffffffffffffffffffffffffffffffffffffffff1916827bffffffffffffffffffffffffffffffffffffffffffffffffffffffff1916149050919050565b5f60025f8381526020019081526020015f205f9054906101000a900473ffffffffffffffffffffffffffffffffffffffff169050919050565b8080611e1457505f73ffffffffffffffffffffffffffffffffffffffff168273ffffffffffffffffffffffffffffffffffffffff1614155b15611f46575f611e2384611483565b90505f73ffffffffffffffffffffffffffffffffffffffff168373ffffffffffffffffffffffffffffffffffffffff1614158015611e8d57508273ffffffffffffffffffffffffffffffffffffffff168173ffffffffffffffffffffffffffffffffffffffff1614155b8015611ea05750611e9e8184611290565b155b15611ee257826040517fa9fbf51f000000000000000000000000000000000000000000000000000000008152600401611ed99190612640565b60405180910390fd5b8115611f4457838573ffffffffffffffffffffffffffffffffffffffff168273ffffffffffffffffffffffffffffffffffffffff167f8c5be1e5ebec7d5bd14f71427d1e84f3dd0314c0f7b2291e5b200ac8c7c3b92560405160405180910390a45b505b8360045f8581526020019081526020015f205f6101000a81548173ffffffffffffffffffffffffffffffffffffffff021916908373ffffffffffffffffffffffffffffffffffffffff16021790555050505050565b611fa683838361214b565b612059575f73ffffffffffffffffffffffffffffffffffffffff168373ffffffffffffffffffffffffffffffffffffffff160361201a57806040517f7e273289000000000000000000000000000000000000000000000000000000008152600401612011919061274b565b60405180910390fd5b81816040517f177e802f0000000000000000000000000000000000000000000000000000000081526004016120509291906132ff565b60405180910390fd5b505050565b612068838361220b565b61207c612073611542565b5f858585611b12565b505050565b60605f600161208f846122fe565b0190505f8167ffffffffffffffff8111156120ad576120ac612848565b5b6040519080825280601f01601f1916602001820160405280156120df5781602001600182028036833780820191505090505b5090505f82602001820190505b600115612140578080600190039150507f3031323334353637383961626364656600000000000000000000000000000000600a86061a8153600a858161213557612134613326565b5b0494505f85036120ec575b819350505050919050565b5f5f73ffffffffffffffffffffffffffffffffffffffff168373ffffffffffffffffffffffffffffffffffffffff161415801561220257508273ffffffffffffffffffffffffffffffffffffffff168473ffffffffffffffffffffffffffffffffffffffff1614806121c357506121c28484611290565b5b8061220157508273ffffffffffffffffffffffffffffffffffffffff166121e983611509565b73ffffffffffffffffffffffffffffffffffffffff16145b5b90509392505050565b5f73ffffffffffffffffffffffffffffffffffffffff168273ffffffffffffffffffffffffffffffffffffffff160361227b575f6040517f64a0ae920000000000000000000000000000000000000000000000000000000081526004016122729190612640565b60405180910390fd5b5f61228783835f61155b565b90505f73ffffffffffffffffffffffffffffffffffffffff168173ffffffffffffffffffffffffffffffffffffffff16146122f9575f6040517f73c6ac6e0000000000000000000000000000000000000000000000000000000081526004016122f09190612640565b60405180910390fd5b505050565b5f5f5f90507a184f03e93ff9f4daa797ed6e38ed64bf6a1f010000000000000000831061235a577a184f03e93ff9f4daa797ed6e38ed64bf6a1f01000000000000000083816123505761234f613326565b5b0492506040810190505b6d04ee2d6d415b85acef81000000008310612397576d04ee2d6d415b85acef8100000000838161238d5761238c613326565b5b0492506020810190505b662386f26fc1000083106123c657662386f26fc1000083816123bc576123bb613326565b5b0492506010810190505b6305f5e10083106123ef576305f5e10083816123e5576123e4613326565b5b0492506008810190505b612710831061241457612710838161240a57612409613326565b5b0492506004810190505b60648310612437576064838161242d5761242c613326565b5b0492506002810190505b600a8310612446576001810190505b80915050919050565b5f604051905090565b5f5ffd5b5f5ffd5b5f7fffffffff0000000000000000000000000000000000000000000000000000000082169050919050565b61249481612460565b811461249e575f5ffd5b50565b5f813590506124af8161248b565b92915050565b5f602082840312156124ca576124c9612458565b5b5f6124d7848285016124a1565b91505092915050565b5f8115159050919050565b6124f4816124e0565b82525050565b5f60208201905061250d5f8301846124eb565b92915050565b5f81519050919050565b5f82825260208201905092915050565b8281835e5f83830152505050565b5f601f19601f8301169050919050565b5f61255582612513565b61255f818561251d565b935061256f81856020860161252d565b6125788161253b565b840191505092915050565b5f6020820190508181035f83015261259b818461254b565b905092915050565b5f819050919050565b6125b5816125a3565b81146125bf575f5ffd5b50565b5f813590506125d0816125ac565b92915050565b5f602082840312156125eb576125ea612458565b5b5f6125f8848285016125c2565b91505092915050565b5f73ffffffffffffffffffffffffffffffffffffffff82169050919050565b5f61262a82612601565b9050919050565b61263a81612620565b82525050565b5f6020820190506126535f830184612631565b92915050565b61266281612620565b811461266c575f5ffd5b50565b5f8135905061267d81612659565b92915050565b5f5f6040838503121561269957612698612458565b5b5f6126a68582860161266f565b92505060206126b7858286016125c2565b9150509250929050565b5f5f5f606084860312156126d8576126d7612458565b5b5f6126e58682870161266f565b93505060206126f68682870161266f565b9250506040612707868287016125c2565b9150509250925092565b5f6020828403121561272657612725612458565b5b5f6127338482850161266f565b91505092915050565b612745816125a3565b82525050565b5f60208201905061275e5f83018461273c565b92915050565b5f819050919050565b5f61278761278261277d84612601565b612764565b612601565b9050919050565b5f6127988261276d565b9050919050565b5f6127a98261278e565b9050919050565b6127b98161279f565b82525050565b5f6020820190506127d25f8301846127b0565b92915050565b6127e1816124e0565b81146127eb575f5ffd5b50565b5f813590506127fc816127d8565b92915050565b5f5f6040838503121561281857612817612458565b5b5f6128258582860161266f565b9250506020612836858286016127ee565b9150509250929050565b5f5ffd5b5f5ffd5b7f4e487b71000000000000000000000000000000000000000000000000000000005f52604160045260245ffd5b61287e8261253b565b810181811067ffffffffffffffff8211171561289d5761289c612848565b5b80604052505050565b5f6128af61244f565b90506128bb8282612875565b919050565b5f67ffffffffffffffff8211156128da576128d9612848565b5b6128e38261253b565b9050602081019050919050565b828183375f83830152505050565b5f61291061290b846128c0565b6128a6565b90508281526020810184848401111561292c5761292b612844565b5b6129378482856128f0565b509392505050565b5f82601f83011261295357612952612840565b5b81356129638482602086016128fe565b91505092915050565b5f5f5f5f6080858703121561298457612983612458565b5b5f6129918782880161266f565b94505060206129a28782880161266f565b93505060406129b3878288016125c2565b925050606085013567ffffffffffffffff8111156129d4576129d361245c565b5b6129e08782880161293f565b91505092959194509250565b5f67ffffffffffffffff821115612a0657612a05612848565b5b612a0f8261253b565b9050602081019050919050565b5f612a2e612a29846129ec565b6128a6565b905082815260208101848484011115612a4a57612a49612844565b5b612a558482856128f0565b509392505050565b5f82601f830112612a7157612a70612840565b5b8135612a81848260208601612a1c565b91505092915050565b5f5f60408385031215612aa057612a9f612458565b5b5f612aad8582860161266f565b925050602083013567ffffffffffffffff811115612ace57612acd61245c565b5b612ada85828601612a5d565b9150509250929050565b5f5f60408385031215612afa57612af9612458565b5b5f612b078582860161266f565b9250506020612b188582860161266f565b9150509250929050565b7f4e487b71000000000000000000000000000000000000000000000000000000005f52602260045260245ffd5b5f6002820490506001821680612b6657607f821691505b602082108103612b7957612b78612b22565b5b50919050565b5f606082019050612b925f830186612631565b612b9f602083018561273c565b612bac6040830184612631565b949350505050565b7f44414f20616c72656164792073657400000000000000000000000000000000005f82015250565b5f612be8600f8361251d565b9150612bf382612bb4565b602082019050919050565b5f6020820190508181035f830152612c1581612bdc565b9050919050565b7f4f6e6c792044414f2063616e206275726e0000000000000000000000000000005f82015250565b5f612c5060118361251d565b9150612c5b82612c1c565b602082019050919050565b5f6020820190508181035f830152612c7d81612c44565b9050919050565b7f416c7265616479206d696e7465640000000000000000000000000000000000005f82015250565b5f612cb8600e8361251d565b9150612cc382612c84565b602082019050919050565b5f6020820190508181035f830152612ce581612cac565b9050919050565b7f697066733a2f2f00000000000000000000000000000000000000000000000000815250565b5f81905092915050565b5f612d2682612513565b612d308185612d12565b9350612d4081856020860161252d565b80840191505092915050565b5f612d5682612cec565b600782019150612d668284612d1c565b915081905092915050565b5f819050815f5260205f209050919050565b5f6020601f8301049050919050565b5f82821b905092915050565b5f60088302612dcd7fffffffffffffffffffffffffffffffffffffffffffffffffffffffffffffffff82612d92565b612dd78683612d92565b95508019841693508086168417925050509392505050565b5f612e09612e04612dff846125a3565b612764565b6125a3565b9050919050565b5f819050919050565b612e2283612def565b612e36612e2e82612e10565b848454612d9e565b825550505050565b5f5f905090565b612e4d612e3e565b612e58818484612e19565b505050565b5b81811015612e7b57612e705f82612e45565b600181019050612e5e565b5050565b601f821115612ec057612e9181612d71565b612e9a84612d83565b81016020851015612ea9578190505b612ebd612eb585612d83565b830182612e5d565b50505b505050565b5f82821c905092915050565b5f612ee05f1984600802612ec5565b1980831691505092915050565b5f612ef88383612ed1565b9150826002028217905092915050565b612f1182612513565b67ffffffffffffffff811115612f2a57612f29612848565b5b612f348254612b4f565b612f3f828285612e7f565b5f60209050601f831160018114612f70575f8415612f5e578287015190505b612f688582612eed565b865550612fcf565b601f198416612f7e86612d71565b5f5b82811015612fa557848901518255600182019150602085019450602081019050612f80565b86831015612fc25784890151612fbe601f891682612ed1565b8355505b6001600288020188555050505b505050505050565b7f4e487b71000000000000000000000000000000000000000000000000000000005f52601160045260245ffd5b5f61300e826125a3565b91507fffffffffffffffffffffffffffffffffffffffffffffffffffffffffffffffff82036130405761303f612fd7565b5b600182019050919050565b5f6130568285612d1c565b91506130628284612d1c565b91508190509392505050565b5f8151905061307c816127d8565b92915050565b5f6020828403121561309757613096612458565b5b5f6130a48482850161306e565b91505092915050565b7f4e6f74206120726567697374657265642066616d696c79206d656d62657200005f82015250565b5f6130e1601e8361251d565b91506130ec826130ad565b602082019050919050565b5f6020820190508181035f83015261310e816130d5565b9050919050565b7f5468697320616464726573732068617320616c7265616479206d696e746564005f82015250565b5f613149601f8361251d565b915061315482613115565b602082019050919050565b5f6020820190508181035f8301526131768161313d565b9050919050565b5f8151905061318b81612659565b92915050565b5f602082840312156131a6576131a5612458565b5b5f6131b38482850161317d565b91505092915050565b7f506172656e7420686173206e6f74206d696e74656420616e204e4654207965745f82015250565b5f6131f060208361251d565b91506131fb826131bc565b602082019050919050565b5f6020820190508181035f83015261321d816131e4565b9050919050565b5f81519050919050565b5f82825260208201905092915050565b5f61324882613224565b613252818561322e565b935061326281856020860161252d565b61326b8161253b565b840191505092915050565b5f6080820190506132895f830187612631565b6132966020830186612631565b6132a3604083018561273c565b81810360608301526132b5818461323e565b905095945050505050565b5f815190506132ce8161248b565b92915050565b5f602082840312156132e9576132e8612458565b5b5f6132f6848285016132c0565b91505092915050565b5f6040820190506133125f830185612631565b61331f602083018461273c565b9392505050565b7f4e487b71000000000000000000000000000000000000000000000000000000005f52601260045260245ffdfe6261666b7265696368697567763337766271647262686c697a63706c646366697175776b66706a78736c62717276326a7a786a79616932647a6961a2646970667358221220dca9b8c5a1f504e809b7849c7bed418268d3b047b018ae62b77db4b0a494636064736f6c634300081c0033","linkReferences":{}},"methodIdentifiers":{"adminMint()":"895fc788","approve(address,uint256)":"095ea7b3","balanceOf(address)":"70a08231","burn(uint256)":"42966c68","familyDAO()":"34b6ea1f","getApproved(uint256)":"081812fc","getMetadataURI(uint256)":"bde644fb","hasMinted(address)":"38e21cce","isApprovedForAll(address,address)":"e985e9c5","mint(address,string)":"d0def521","name()":"06fdde03","nextTokenId()":"75794a3c","owner()":"8da5cb5b","ownerOf(uint256)":"6352211e","registry()":"7b103999","renounceOwnership()":"715018a6","safeTransferFrom(address,address,uint256)":"42842e0e","safeTransferFrom(address,address,uint256,bytes)":"b88d4fde","setApprovalForAll(address,bool)":"a22cb465","setFamilyDAO(address)":"28610553","supportsInterface(bytes4)":"01ffc9a7","symbol()":"95d89b41","tokenMetadataURI(uint256)":"157c3df9","tokenURI(uint256)":"c87b56dd","transferFrom(address,address,uint256)":"23b872dd","transferOwnership(address)":"f2fde38b"},"id":35}