{"abi":[{"type":"constructor","inputs":[{"name":"name","type":"string","internalType":"string"},{"name":"symbol","type":"string","internalType":"string"},{"name":"registryAddress","type":"address","internalType":"address"}],"stateMutability":"nonpayable"},{"type":"function","name":"adminMint","inputs":[],"outputs":[],"stateMutability":"nonpayable"},{"type":"function","name":"approve","inputs":[{"name":"to","type":"address","internalType":"address"},{"name":"tokenId","type":"uint256","internalType":"uint256"}],"outputs":[],"stateMutability":"nonpayable"},{"type":"function","name":"balanceOf","inputs":[{"name":"owner","type":"address","internalType":"address"}],"outputs":[{"name":"","type":"uint256","internalType":"uint256"}],"stateMutability":"view"},{"type":"function","name":"familyDAO","inputs":[],"outputs":[{"name":"","type":"address","internalType":"address"}],"stateMutability":"view"},{"type":"function","name":"getApproved","inputs":[{"name":"tokenId","type":"uint256","internalType":"uint256"}],"outputs":[{"name":"","type":"address","internalType":"address"}],"stateMutability":"view"},{"type":"function","name":"getMetadataURI","inputs":[{"name":"tokenId","type":"uint256","internalType":"uint256"}],"outputs":[{"name":"","type":"string","internalType":"string"}],"stateMutability":"view"},{"type":"function","name":"hasMinted","inputs":[{"name":"","type":"address","internalType":"address"}],"outputs":[{"name":"","type":"bool","internalType":"bool"}],"stateMutability":"view"},{"type":"function","name":"isApprovedForAll","inputs":[{"name":"owner","type":"address","internalType":"address"},{"name":"operator","type":"address","internalType":"address"}],"outputs":[{"name":"","type":"bool","internalType":"bool"}],"stateMutability":"view"},{"type":"function","name":"mint","inputs":[{"name":"to","type":"address","internalType":"address"},{"name":"_tokenURI","type":"string","internalType":"string"}],"outputs":[],"stateMutability":"nonpayable"},{"type":"function","name":"name","inputs":[],"outputs":[{"name":"","type":"string","internalType":"string"}],"stateMutability":"view"},{"type":"function","name":"nextTokenId","inputs":[],"outputs":[{"name":"","type":"uint256","internalType":"uint256"}],"stateMutability":"view"},{"type":"function","name":"owner","inputs":[],"outputs":[{"name":"","type":"address","internalType":"address"}],"stateMutability":"view"},{"type":"function","name":"ownerOf","inputs":[{"name":"tokenId","type":"uint256","internalType":"uint256"}],"outputs":[{"name":"","type":"address","internalType":"address"}],"stateMutability":"view"},{"type":"function","name":"registry","inputs":[],"outputs":[{"name":"","type":"address","internalType":"contract FamilyRegistry"}],"stateMutability":"view"},{"type":"function","name":"renounceOwnership","inputs":[],"outputs":[],"stateMutability":"nonpayable"},{"type":"function","name":"safeTransferFrom","inputs":[{"name":"from","type":"address","internalType":"address"},{"name":"to","type":"address","internalType":"address"},{"name":"tokenId","type":"uint256","internalType":"uint256"}],"outputs":[],"stateMutability":"nonpayable"},{"type":"function","name":"safeTransferFrom","inputs":[{"name":"from","type":"address","internalType":"address"},{"name":"to","type":"address","internalType":"address"},{"name":"tokenId","type":"uint256","internalType":"uint256"},{"name":"data","type":"bytes","internalType":"bytes"}],"outputs":[],"stateMutability":"nonpayable"},{"type":"function","name":"setApprovalForAll","inputs":[{"name":"operator","type":"address","internalType":"address"},{"name":"approved","type":"bool","internalType":"bool"}],"outputs":[],"stateMutability":"nonpayable"},{"type":"function","name":"setFamilyDAO","inputs":[{"name":"dao","type":"address","internalType":"address"}],"outputs":[],"stateMutability":"nonpayable"},{"type":"function","name":"supportsInterface","inputs":[{"name":"interfaceId","type":"bytes4","internalType":"bytes4"}],"outputs":[{"name":"","type":"bool","internalType":"bool"}],"stateMutability":"view"},{"type":"function","name":"symbol","inputs":[],"outputs":[{"name":"","type":"string","internalType":"string"}],"stateMutability":"view"},{"type":"function","name":"tokenMetadataURI","inputs":[{"name":"","type":"uint256","internalType":"uint256"}],"outputs":[{"name":"","type":"string","internalType":"string"}],"stateMutability":"view"},{"type":"function","name":"tokenURI","inputs":[{"name":"tokenId","type":"uint256","internalType":"uint256"}],"outputs":[{"name":"","type":"string","internalType":"string"}],"stateMutability":"view"},{"type":"function","name":"transferFrom","inputs":[{"name":"from","type":"address","internalType":"address"},{"name":"to","type":"address","internalType":"address"},{"name":"tokenId","type":"uint256","internalType":"uint256"}],"outputs":[],"stateMutability":"nonpayable"},{"type":"function","name":"transferOwnership","inputs":[{"name":"newOwner","type":"address","internalType":"address"}],"outputs":[],"stateMutability":"nonpayable"},{"type":"event","name":"Approval","inputs":[{"name":"owner","type":"address","indexed":true,"internalType":"address"},{"name":"approved","type":"address","indexed":true,"internalType":"address"},{"name":"tokenId","type":"uint256","indexed":true,"internalType":"uint256"}],"anonymous":false},{"type":"event","name":"ApprovalForAll","inputs":[{"name":"owner","type":"address","indexed":true,"internalType":"address"},{"name":"operator","type":"address","indexed":true,"internalType":"address"},{"name":"approved","type":"bool","indexed":false,"internalType":"bool"}],"anonymous":false},{"type":"event","name":"BatchMetadataUpdate","inputs":[{"name":"_fromTokenId","type":"uint256","indexed":false,"internalType":"uint256"},{"name":"_toTokenId","type":"uint256","indexed":false,"internalType":"uint256"}],"anonymous":false},{"type":"event","name":"MetadataUpdate","inputs":[{"name":"_tokenId","type":"uint256","indexed":false,"internalType":"uint256"}],"anonymous":false},{"type":"event","name":"OwnershipTransferred","inputs":[{"name":"previousOwner","type":"address","indexed":true,"internalType":"address"},{"name":"newOwner","type":"address","indexed":true,"internalType":"address"}],"anonymous":false},{"type":"event","name":"Transfer","inputs":[{"name":"from","type":"address","indexed":true,"internalType":"address"},{"name":"to","type":"address","indexed":true,"internalType":"address"},{"name":"tokenId","type":"uint256","indexed":true,"internalType":"uint256"}],"anonymous":false},{"type":"error","name":"ERC721IncorrectOwner","inputs":[{"name":"sender","type":"address","internalType":"address"},{"name":"tokenId","type":"uint256","internalType":"uint256"},{"name":"owner","type":"address","internalType":"address"}]},{"type":"error","name":"ERC721InsufficientApproval","inputs":[{"name":"operator","type":"address","internalType":"address"},{"name":"tokenId","type":"uint256","internalType":"uint256"}]},{"type":"error","name":"ERC721InvalidApprover","inputs":[{"name":"approver","type":"address","internalType":"address"}]},{"type":"error","name":"ERC721InvalidOperator","inputs":[{"name":"operator","type":"address","internalType":"address"}]},{"type":"error","name":"ERC721InvalidOwner","inputs":[{"name":"owner","type":"address","internalType":"address"}]},{"type":"error","name":"ERC721InvalidReceiver","inputs":[{"name":"receiver","type":"address","internalType":"address"}]},{"type":"error","name":"ERC721InvalidSender","inputs":[{"name":"sender","type":"address","internalType":"address"}]},{"type":"error","name":"ERC721NonexistentToken","inputs":[{"name":"tokenId","type":"uint256","internalType":"uint256"}]},{"type":"error","name":"OwnableInvalidOwner","inputs":[{"name":"owner","type":"address","internalType":"address"}]},{"type":"error","name":"OwnableUnauthorizedAccount","inputs":[{"name":"account","type":"address","internalType":"address"}]}],"bytecode":{"object":"0x608060405234801561000f575f5ffd5b506040516138ca3803806138ca83398181016040528101906100319190610387565b338383815f9081610042919061061f565b508060019081610052919061061f565b5050505f73ffffffffffffffffffffffffffffffffffffffff168173ffffffffffffffffffffffffffffffffffffffff16036100c5575f6040517f1e4fbdf70000000000000000000000000000000000000000000000000000000081526004016100bc91906106fd565b60405180910390fd5b6100d48161011d60201b60201c565b5080600b5f6101000a81548173ffffffffffffffffffffffffffffffffffffffff021916908373ffffffffffffffffffffffffffffffffffffffff160217905550505050610716565b5f60075f9054906101000a900473ffffffffffffffffffffffffffffffffffffffff1690508160075f6101000a81548173ffffffffffffffffffffffffffffffffffffffff021916908373ffffffffffffffffffffffffffffffffffffffff1602179055508173ffffffffffffffffffffffffffffffffffffffff168173ffffffffffffffffffffffffffffffffffffffff167f8be0079c531659141344cd1fd0a4f28419497f9722a3daafe3b4186f6b6457e060405160405180910390a35050565b5f604051905090565b5f5ffd5b5f5ffd5b5f5ffd5b5f5ffd5b5f601f19601f8301169050919050565b7f4e487b71000000000000000000000000000000000000000000000000000000005f52604160045260245ffd5b61023f826101f9565b810181811067ffffffffffffffff8211171561025e5761025d610209565b5b80604052505050565b5f6102706101e0565b905061027c8282610236565b919050565b5f67ffffffffffffffff82111561029b5761029a610209565b5b6102a4826101f9565b9050602081019050919050565b8281835e5f83830152505050565b5f6102d16102cc84610281565b610267565b9050828152602081018484840111156102ed576102ec6101f5565b5b6102f88482856102b1565b509392505050565b5f82601f830112610314576103136101f1565b5b81516103248482602086016102bf565b91505092915050565b5f73ffffffffffffffffffffffffffffffffffffffff82169050919050565b5f6103568261032d565b9050919050565b6103668161034c565b8114610370575f5ffd5b50565b5f815190506103818161035d565b92915050565b5f5f5f6060848603121561039e5761039d6101e9565b5b5f84015167ffffffffffffffff8111156103bb576103ba6101ed565b5b6103c786828701610300565b935050602084015167ffffffffffffffff8111156103e8576103e76101ed565b5b6103f486828701610300565b925050604061040586828701610373565b9150509250925092565b5f81519050919050565b7f4e487b71000000000000000000000000000000000000000000000000000000005f52602260045260245ffd5b5f600282049050600182168061045d57607f821691505b6020821081036104705761046f610419565b5b50919050565b5f819050815f5260205f209050919050565b5f6020601f8301049050919050565b5f82821b905092915050565b5f600883026104d27fffffffffffffffffffffffffffffffffffffffffffffffffffffffffffffffff82610497565b6104dc8683610497565b95508019841693508086168417925050509392505050565b5f819050919050565b5f819050919050565b5f61052061051b610516846104f4565b6104fd565b6104f4565b9050919050565b5f819050919050565b61053983610506565b61054d61054582610527565b8484546104a3565b825550505050565b5f5f905090565b610564610555565b61056f818484610530565b505050565b5b81811015610592576105875f8261055c565b600181019050610575565b5050565b601f8211156105d7576105a881610476565b6105b184610488565b810160208510156105c0578190505b6105d46105cc85610488565b830182610574565b50505b505050565b5f82821c905092915050565b5f6105f75f19846008026105dc565b1980831691505092915050565b5f61060f83836105e8565b9150826002028217905092915050565b6106288261040f565b67ffffffffffffffff81111561064157610640610209565b5b61064b8254610446565b610656828285610596565b5f60209050601f831160018114610687575f8415610675578287015190505b61067f8582610604565b8655506106e6565b601f19841661069586610476565b5f5b828110156106bc57848901518255600182019150602085019450602081019050610697565b868310156106d957848901516106d5601f8916826105e8565b8355505b6001600288020188555050505b505050505050565b6106f78161034c565b82525050565b5f6020820190506107105f8301846106ee565b92915050565b6131a7806107235f395ff3fe608060405234801561000f575f5ffd5b5060043610610171575f3560e01c8063715018a6116100dc578063a22cb46511610095578063c87b56dd1161006f578063c87b56dd14610435578063d0def52114610465578063e985e9c514610481578063f2fde38b146104b157610171565b8063a22cb465146103cd578063b88d4fde146103e9578063bde644fb1461040557610171565b8063715018a61461034157806375794a3c1461034b5780637b10399914610369578063895fc788146103875780638da5cb5b1461039157806395d89b41146103af57610171565b8063286105531161012e578063286105531461025b57806334b6ea1f1461027757806338e21cce1461029557806342842e0e146102c55780636352211e146102e157806370a082311461031157610171565b806301ffc9a71461017557806306fdde03146101a5578063081812fc146101c3578063095ea7b3146101f3578063157c3df91461020f57806323b872dd1461023f575b5f5ffd5b61018f600480360381019061018a9190612300565b6104cd565b60405161019c9190612345565b60405180910390f35b6101ad61052d565b6040516101ba91906123ce565b60405180910390f35b6101dd60048036038101906101d89190612421565b6105bc565b6040516101ea919061248b565b60405180910390f35b61020d600480360381019061020891906124ce565b6105d7565b005b61022960048036038101906102249190612421565b6105ed565b60405161023691906123ce565b60405180910390f35b6102596004803603810190610254919061250c565b610688565b005b6102756004803603810190610270919061255c565b610787565b005b61027f610861565b60405161028c919061248b565b60405180910390f35b6102af60048036038101906102aa919061255c565b610886565b6040516102bc9190612345565b60405180910390f35b6102df60048036038101906102da919061250c565b6108a3565b005b6102fb60048036038101906102f69190612421565b6108c2565b604051610308919061248b565b60405180910390f35b61032b6004803603810190610326919061255c565b6108d3565b6040516103389190612596565b60405180910390f35b610349610989565b005b61035361099c565b6040516103609190612596565b60405180910390f35b6103716109a2565b60405161037e919061260a565b60405180910390f35b61038f6109c7565b005b610399610b41565b6040516103a6919061248b565b60405180910390f35b6103b7610b69565b6040516103c491906123ce565b60405180910390f35b6103e760048036038101906103e2919061264d565b610bf9565b005b61040360048036038101906103fe91906127b7565b610c0f565b005b61041f600480360381019061041a9190612421565b610c34565b60405161042c91906123ce565b60405180910390f35b61044f600480360381019061044a9190612421565b610cd5565b60405161045c91906123ce565b60405180910390f35b61047f600480360381019061047a91906128d5565b610de0565b005b61049b6004803603810190610496919061292f565b61115d565b6040516104a89190612345565b60405180910390f35b6104cb60048036038101906104c6919061255c565b6111eb565b005b5f634906490660e01b7bffffffffffffffffffffffffffffffffffffffffffffffffffffffff1916827bffffffffffffffffffffffffffffffffffffffffffffffffffffffff1916148061052657506105258261126f565b5b9050919050565b60605f805461053b9061299a565b80601f01602080910402602001604051908101604052809291908181526020018280546105679061299a565b80156105b25780601f10610589576101008083540402835291602001916105b2565b820191905f5260205f20905b81548152906001019060200180831161059557829003601f168201915b5050505050905090565b5f6105c682611350565b506105d0826113d6565b9050919050565b6105e982826105e461140f565b611416565b5050565b600a602052805f5260405f205f9150905080546106099061299a565b80601f01602080910402602001604051908101604052809291908181526020018280546106359061299a565b80156106805780601f1061065757610100808354040283529160200191610680565b820191905f5260205f20905b81548152906001019060200180831161066357829003601f168201915b505050505081565b5f73ffffffffffffffffffffffffffffffffffffffff168273ffffffffffffffffffffffffffffffffffffffff16036106f8575f6040517f64a0ae920000000000000000000000000000000000000000000000000000000081526004016106ef919061248b565b60405180910390fd5b5f61070b838361070661140f565b611428565b90508373ffffffffffffffffffffffffffffffffffffffff168173ffffffffffffffffffffffffffffffffffffffff1614610781578382826040517f64283d7b000000000000000000000000000000000000000000000000000000008152600401610778939291906129ca565b60405180910390fd5b50505050565b61078f611633565b5f73ffffffffffffffffffffffffffffffffffffffff16600c5f9054906101000a900473ffffffffffffffffffffffffffffffffffffffff1673ffffffffffffffffffffffffffffffffffffffff161461081e576040517f08c379a000000000000000000000000000000000000000000000000000000000815260040161081590612a49565b60405180910390fd5b80600c5f6101000a81548173ffffffffffffffffffffffffffffffffffffffff021916908373ffffffffffffffffffffffffffffffffffffffff16021790555050565b600c5f9054906101000a900473ffffffffffffffffffffffffffffffffffffffff1681565b6009602052805f5260405f205f915054906101000a900460ff1681565b6108bd83838360405180602001604052805f815250610c0f565b505050565b5f6108cc82611350565b9050919050565b5f5f73ffffffffffffffffffffffffffffffffffffffff168273ffffffffffffffffffffffffffffffffffffffff1603610944575f6040517f89c62b6400000000000000000000000000000000000000000000000000000000815260040161093b919061248b565b60405180910390fd5b60035f8373ffffffffffffffffffffffffffffffffffffffff1673ffffffffffffffffffffffffffffffffffffffff1681526020019081526020015f20549050919050565b610991611633565b61099a5f6116ba565b565b60085481565b600b5f9054906101000a900473ffffffffffffffffffffffffffffffffffffffff1681565b6109cf611633565b60095f3373ffffffffffffffffffffffffffffffffffffffff1673ffffffffffffffffffffffffffffffffffffffff1681526020019081526020015f205f9054906101000a900460ff1615610a59576040517f08c379a0000000000000000000000000000000000000000000000000000000008152600401610a5090612ab1565b60405180910390fd5b610a653360085461177d565b5f6040518060600160405280603b8152602001613137603b913990505f81604051602001610a939190612b2f565b6040516020818303038152906040529050610ab06008548261179a565b80600a5f60085481526020019081526020015f209081610ad09190612ceb565b50600160095f3373ffffffffffffffffffffffffffffffffffffffff1673ffffffffffffffffffffffffffffffffffffffff1681526020019081526020015f205f6101000a81548160ff02191690831515021790555060085f815480929190610b3890612de7565b91905055505050565b5f60075f9054906101000a900473ffffffffffffffffffffffffffffffffffffffff16905090565b606060018054610b789061299a565b80601f0160208091040260200160405190810160405280929190818152602001828054610ba49061299a565b8015610bef5780601f10610bc657610100808354040283529160200191610bef565b820191905f5260205f20905b815481529060010190602001808311610bd257829003601f168201915b5050505050905090565b610c0b610c0461140f565b83836117f4565b5050565b610c1a848484610688565b610c2e610c2561140f565b8585858561195d565b50505050565b6060600a5f8381526020019081526020015f208054610c529061299a565b80601f0160208091040260200160405190810160405280929190818152602001828054610c7e9061299a565b8015610cc95780601f10610ca057610100808354040283529160200191610cc9565b820191905f5260205f20905b815481529060010190602001808311610cac57829003601f168201915b50505050509050919050565b6060610ce082611350565b505f60065f8481526020019081526020015f208054610cfe9061299a565b80601f0160208091040260200160405190810160405280929190818152602001828054610d2a9061299a565b8015610d755780601f10610d4c57610100808354040283529160200191610d75565b820191905f5260205f20905b815481529060010190602001808311610d5857829003601f168201915b505050505090505f610d85611b09565b90505f815103610d99578192505050610ddb565b5f82511115610dcd578082604051602001610db5929190612e2e565b60405160208183030381529060405292505050610ddb565b610dd684611b1f565b925050505b919050565b600b5f9054906101000a900473ffffffffffffffffffffffffffffffffffffffff1673ffffffffffffffffffffffffffffffffffffffff166328ec14cc836040518263ffffffff1660e01b8152600401610e3a919061248b565b602060405180830381865afa158015610e55573d5f5f3e3d5ffd5b505050506040513d601f19601f82011682018060405250810190610e799190612e65565b80610ed05750600c5f9054906101000a900473ffffffffffffffffffffffffffffffffffffffff1673ffffffffffffffffffffffffffffffffffffffff163373ffffffffffffffffffffffffffffffffffffffff16145b610f0f576040517f08c379a0000000000000000000000000000000000000000000000000000000008152600401610f0690612eda565b60405180910390fd5b60095f8373ffffffffffffffffffffffffffffffffffffffff1673ffffffffffffffffffffffffffffffffffffffff1681526020019081526020015f205f9054906101000a900460ff1615610f99576040517f08c379a0000000000000000000000000000000000000000000000000000000008152600401610f9090612f42565b60405180910390fd5b5f600b5f9054906101000a900473ffffffffffffffffffffffffffffffffffffffff1673ffffffffffffffffffffffffffffffffffffffff1663a9405923846040518263ffffffff1660e01b8152600401610ff4919061248b565b602060405180830381865afa15801561100f573d5f5f3e3d5ffd5b505050506040513d601f19601f820116820180604052508101906110339190612f74565b90505f73ffffffffffffffffffffffffffffffffffffffff168173ffffffffffffffffffffffffffffffffffffffff16146110b3575f611072826108d3565b116110b2576040517f08c379a00000000000000000000000000000000000000000000000000000000081526004016110a990612fe9565b60405180910390fd5b5b6110bf8360085461177d565b6110cb6008548361179a565b81600a5f60085481526020019081526020015f2090816110eb9190612ceb565b50600160095f8573ffffffffffffffffffffffffffffffffffffffff1673ffffffffffffffffffffffffffffffffffffffff1681526020019081526020015f205f6101000a81548160ff02191690831515021790555060085f81548092919061115390612de7565b9190505550505050565b5f60055f8473ffffffffffffffffffffffffffffffffffffffff1673ffffffffffffffffffffffffffffffffffffffff1681526020019081526020015f205f8373ffffffffffffffffffffffffffffffffffffffff1673ffffffffffffffffffffffffffffffffffffffff1681526020019081526020015f205f9054906101000a900460ff16905092915050565b6111f3611633565b5f73ffffffffffffffffffffffffffffffffffffffff168173ffffffffffffffffffffffffffffffffffffffff1603611263575f6040517f1e4fbdf700000000000000000000000000000000000000000000000000000000815260040161125a919061248b565b60405180910390fd5b61126c816116ba565b50565b5f7f80ac58cd000000000000000000000000000000000000000000000000000000007bffffffffffffffffffffffffffffffffffffffffffffffffffffffff1916827bffffffffffffffffffffffffffffffffffffffffffffffffffffffff1916148061133957507f5b5e139f000000000000000000000000000000000000000000000000000000007bffffffffffffffffffffffffffffffffffffffffffffffffffffffff1916827bffffffffffffffffffffffffffffffffffffffffffffffffffffffff1916145b80611349575061134882611b85565b5b9050919050565b5f5f61135b83611bee565b90505f73ffffffffffffffffffffffffffffffffffffffff168173ffffffffffffffffffffffffffffffffffffffff16036113cd57826040517f7e2732890000000000000000000000000000000000000000000000000000000081526004016113c49190612596565b60405180910390fd5b80915050919050565b5f60045f8381526020019081526020015f205f9054906101000a900473ffffffffffffffffffffffffffffffffffffffff169050919050565b5f33905090565b6114238383836001611c27565b505050565b5f5f61143384611bee565b90505f73ffffffffffffffffffffffffffffffffffffffff168373ffffffffffffffffffffffffffffffffffffffff161461147457611473818486611de6565b5b5f73ffffffffffffffffffffffffffffffffffffffff168173ffffffffffffffffffffffffffffffffffffffff16146114ff576114b35f855f5f611c27565b600160035f8373ffffffffffffffffffffffffffffffffffffffff1673ffffffffffffffffffffffffffffffffffffffff1681526020019081526020015f205f82825403925050819055505b5f73ffffffffffffffffffffffffffffffffffffffff168573ffffffffffffffffffffffffffffffffffffffff161461157e57600160035f8773ffffffffffffffffffffffffffffffffffffffff1673ffffffffffffffffffffffffffffffffffffffff1681526020019081526020015f205f82825401925050819055505b8460025f8681526020019081526020015f205f6101000a81548173ffffffffffffffffffffffffffffffffffffffff021916908373ffffffffffffffffffffffffffffffffffffffff160217905550838573ffffffffffffffffffffffffffffffffffffffff168273ffffffffffffffffffffffffffffffffffffffff167fddf252ad1be2c89b69c2b068fc378daa952ba7f163c4a11628f55a4df523b3ef60405160405180910390a4809150509392505050565b61163b61140f565b73ffffffffffffffffffffffffffffffffffffffff16611659610b41565b73ffffffffffffffffffffffffffffffffffffffff16146116b85761167c61140f565b6040517f118cdaa70000000000000000000000000000000000000000000000000000000081526004016116af919061248b565b60405180910390fd5b565b5f60075f9054906101000a900473ffffffffffffffffffffffffffffffffffffffff1690508160075f6101000a81548173ffffffffffffffffffffffffffffffffffffffff021916908373ffffffffffffffffffffffffffffffffffffffff1602179055508173ffffffffffffffffffffffffffffffffffffffff168173ffffffffffffffffffffffffffffffffffffffff167f8be0079c531659141344cd1fd0a4f28419497f9722a3daafe3b4186f6b6457e060405160405180910390a35050565b611796828260405180602001604052805f815250611ea9565b5050565b8060065f8481526020019081526020015f2090816117b89190612ceb565b507ff8e1a15aba9398e019f0b49df1a4fde98ee17ae345cb5f6b5e2c27f5033e8ce7826040516117e89190612596565b60405180910390a15050565b5f73ffffffffffffffffffffffffffffffffffffffff168273ffffffffffffffffffffffffffffffffffffffff160361186457816040517f5b08ba1800000000000000000000000000000000000000000000000000000000815260040161185b919061248b565b60405180910390fd5b8060055f8573ffffffffffffffffffffffffffffffffffffffff1673ffffffffffffffffffffffffffffffffffffffff1681526020019081526020015f205f8473ffffffffffffffffffffffffffffffffffffffff1673ffffffffffffffffffffffffffffffffffffffff1681526020019081526020015f205f6101000a81548160ff0219169083151502179055508173ffffffffffffffffffffffffffffffffffffffff168373ffffffffffffffffffffffffffffffffffffffff167f17307eab39ab6107e8899845ad3d59bd9653f200f220920489ca2b5937696c31836040516119509190612345565b60405180910390a3505050565b5f8373ffffffffffffffffffffffffffffffffffffffff163b1115611b02578273ffffffffffffffffffffffffffffffffffffffff1663150b7a02868685856040518563ffffffff1660e01b81526004016119bb9493929190613059565b6020604051808303815f875af19250505080156119f657506040513d601f19601f820116820180604052508101906119f391906130b7565b60015b611a77573d805f8114611a24576040519150601f19603f3d011682016040523d82523d5f602084013e611a29565b606091505b505f815103611a6f57836040517f64a0ae92000000000000000000000000000000000000000000000000000000008152600401611a66919061248b565b60405180910390fd5b805181602001fd5b63150b7a0260e01b7bffffffffffffffffffffffffffffffffffffffffffffffffffffffff1916817bffffffffffffffffffffffffffffffffffffffffffffffffffffffff191614611b0057836040517f64a0ae92000000000000000000000000000000000000000000000000000000008152600401611af7919061248b565b60405180910390fd5b505b5050505050565b606060405180602001604052805f815250905090565b6060611b2a82611350565b505f611b34611b09565b90505f815111611b525760405180602001604052805f815250611b7d565b80611b5c84611ecc565b604051602001611b6d929190612e2e565b6040516020818303038152906040525b915050919050565b5f7f01ffc9a7000000000000000000000000000000000000000000000000000000007bffffffffffffffffffffffffffffffffffffffffffffffffffffffff1916827bffffffffffffffffffffffffffffffffffffffffffffffffffffffff1916149050919050565b5f60025f8381526020019081526020015f205f9054906101000a900473ffffffffffffffffffffffffffffffffffffffff169050919050565b8080611c5f57505f73ffffffffffffffffffffffffffffffffffffffff168273ffffffffffffffffffffffffffffffffffffffff1614155b15611d91575f611c6e84611350565b90505f73ffffffffffffffffffffffffffffffffffffffff168373ffffffffffffffffffffffffffffffffffffffff1614158015611cd857508273ffffffffffffffffffffffffffffffffffffffff168173ffffffffffffffffffffffffffffffffffffffff1614155b8015611ceb5750611ce9818461115d565b155b15611d2d57826040517fa9fbf51f000000000000000000000000000000000000000000000000000000008152600401611d24919061248b565b60405180910390fd5b8115611d8f57838573ffffffffffffffffffffffffffffffffffffffff168273ffffffffffffffffffffffffffffffffffffffff167f8c5be1e5ebec7d5bd14f71427d1e84f3dd0314c0f7b2291e5b200ac8c7c3b92560405160405180910390a45b505b8360045f8581526020019081526020015f205f6101000a81548173ffffffffffffffffffffffffffffffffffffffff021916908373ffffffffffffffffffffffffffffffffffffffff16021790555050505050565b611df1838383611f96565b611ea4575f73ffffffffffffffffffffffffffffffffffffffff168373ffffffffffffffffffffffffffffffffffffffff1603611e6557806040517f7e273289000000000000000000000000000000000000000000000000000000008152600401611e5c9190612596565b60405180910390fd5b81816040517f177e802f000000000000000000000000000000000000000000000000000000008152600401611e9b9291906130e2565b60405180910390fd5b505050565b611eb38383612056565b611ec7611ebe61140f565b5f85858561195d565b505050565b60605f6001611eda84612149565b0190505f8167ffffffffffffffff811115611ef857611ef7612693565b5b6040519080825280601f01601f191660200182016040528015611f2a5781602001600182028036833780820191505090505b5090505f82602001820190505b600115611f8b578080600190039150507f3031323334353637383961626364656600000000000000000000000000000000600a86061a8153600a8581611f8057611f7f613109565b5b0494505f8503611f37575b819350505050919050565b5f5f73ffffffffffffffffffffffffffffffffffffffff168373ffffffffffffffffffffffffffffffffffffffff161415801561204d57508273ffffffffffffffffffffffffffffffffffffffff168473ffffffffffffffffffffffffffffffffffffffff16148061200e575061200d848461115d565b5b8061204c57508273ffffffffffffffffffffffffffffffffffffffff16612034836113d6565b73ffffffffffffffffffffffffffffffffffffffff16145b5b90509392505050565b5f73ffffffffffffffffffffffffffffffffffffffff168273ffffffffffffffffffffffffffffffffffffffff16036120c6575f6040517f64a0ae920000000000000000000000000000000000000000000000000000000081526004016120bd919061248b565b60405180910390fd5b5f6120d283835f611428565b90505f73ffffffffffffffffffffffffffffffffffffffff168173ffffffffffffffffffffffffffffffffffffffff1614612144575f6040517f73c6ac6e00000000000000000000000000000000000000000000000000000000815260040161213b919061248b565b60405180910390fd5b505050565b5f5f5f90507a184f03e93ff9f4daa797ed6e38ed64bf6a1f01000000000000000083106121a5577a184f03e93ff9f4daa797ed6e38ed64bf6a1f010000000000000000838161219b5761219a613109565b5b0492506040810190505b6d04ee2d6d415b85acef810000000083106121e2576d04ee2d6d415b85acef810000000083816121d8576121d7613109565b5b0492506020810190505b662386f26fc10000831061221157662386f26fc10000838161220757612206613109565b5b0492506010810190505b6305f5e100831061223a576305f5e10083816122305761222f613109565b5b0492506008810190505b612710831061225f57612710838161225557612254613109565b5b0492506004810190505b60648310612282576064838161227857612277613109565b5b0492506002810190505b600a8310612291576001810190505b80915050919050565b5f604051905090565b5f5ffd5b5f5ffd5b5f7fffffffff0000000000000000000000000000000000000000000000000000000082169050919050565b6122df816122ab565b81146122e9575f5ffd5b50565b5f813590506122fa816122d6565b92915050565b5f60208284031215612315576123146122a3565b5b5f612322848285016122ec565b91505092915050565b5f8115159050919050565b61233f8161232b565b82525050565b5f6020820190506123585f830184612336565b92915050565b5f81519050919050565b5f82825260208201905092915050565b8281835e5f83830152505050565b5f601f19601f8301169050919050565b5f6123a08261235e565b6123aa8185612368565b93506123ba818560208601612378565b6123c381612386565b840191505092915050565b5f6020820190508181035f8301526123e68184612396565b905092915050565b5f819050919050565b612400816123ee565b811461240a575f5ffd5b50565b5f8135905061241b816123f7565b92915050565b5f60208284031215612436576124356122a3565b5b5f6124438482850161240d565b91505092915050565b5f73ffffffffffffffffffffffffffffffffffffffff82169050919050565b5f6124758261244c565b9050919050565b6124858161246b565b82525050565b5f60208201905061249e5f83018461247c565b92915050565b6124ad8161246b565b81146124b7575f5ffd5b50565b5f813590506124c8816124a4565b92915050565b5f5f604083850312156124e4576124e36122a3565b5b5f6124f1858286016124ba565b92505060206125028582860161240d565b9150509250929050565b5f5f5f60608486031215612523576125226122a3565b5b5f612530868287016124ba565b9350506020612541868287016124ba565b92505060406125528682870161240d565b9150509250925092565b5f60208284031215612571576125706122a3565b5b5f61257e848285016124ba565b91505092915050565b612590816123ee565b82525050565b5f6020820190506125a95f830184612587565b92915050565b5f819050919050565b5f6125d26125cd6125c88461244c565b6125af565b61244c565b9050919050565b5f6125e3826125b8565b9050919050565b5f6125f4826125d9565b9050919050565b612604816125ea565b82525050565b5f60208201905061261d5f8301846125fb565b92915050565b61262c8161232b565b8114612636575f5ffd5b50565b5f8135905061264781612623565b92915050565b5f5f60408385031215612663576126626122a3565b5b5f612670858286016124ba565b925050602061268185828601612639565b9150509250929050565b5f5ffd5b5f5ffd5b7f4e487b71000000000000000000000000000000000000000000000000000000005f52604160045260245ffd5b6126c982612386565b810181811067ffffffffffffffff821117156126e8576126e7612693565b5b80604052505050565b5f6126fa61229a565b905061270682826126c0565b919050565b5f67ffffffffffffffff82111561272557612724612693565b5b61272e82612386565b9050602081019050919050565b828183375f83830152505050565b5f61275b6127568461270b565b6126f1565b9050828152602081018484840111156127775761277661268f565b5b61278284828561273b565b509392505050565b5f82601f83011261279e5761279d61268b565b5b81356127ae848260208601612749565b91505092915050565b5f5f5f5f608085870312156127cf576127ce6122a3565b5b5f6127dc878288016124ba565b94505060206127ed878288016124ba565b93505060406127fe8782880161240d565b925050606085013567ffffffffffffffff81111561281f5761281e6122a7565b5b61282b8782880161278a565b91505092959194509250565b5f67ffffffffffffffff82111561285157612850612693565b5b61285a82612386565b9050602081019050919050565b5f61287961287484612837565b6126f1565b9050828152602081018484840111156128955761289461268f565b5b6128a084828561273b565b509392505050565b5f82601f8301126128bc576128bb61268b565b5b81356128cc848260208601612867565b91505092915050565b5f5f604083850312156128eb576128ea6122a3565b5b5f6128f8858286016124ba565b925050602083013567ffffffffffffffff811115612919576129186122a7565b5b612925858286016128a8565b9150509250929050565b5f5f60408385031215612945576129446122a3565b5b5f612952858286016124ba565b9250506020612963858286016124ba565b9150509250929050565b7f4e487b71000000000000000000000000000000000000000000000000000000005f52602260045260245ffd5b5f60028204905060018216806129b157607f821691505b6020821081036129c4576129c361296d565b5b50919050565b5f6060820190506129dd5f83018661247c565b6129ea6020830185612587565b6129f7604083018461247c565b949350505050565b7f44414f20616c72656164792073657400000000000000000000000000000000005f82015250565b5f612a33600f83612368565b9150612a3e826129ff565b602082019050919050565b5f6020820190508181035f830152612a6081612a27565b9050919050565b7f416c7265616479206d696e7465640000000000000000000000000000000000005f82015250565b5f612a9b600e83612368565b9150612aa682612a67565b602082019050919050565b5f6020820190508181035f830152612ac881612a8f565b9050919050565b7f697066733a2f2f00000000000000000000000000000000000000000000000000815250565b5f81905092915050565b5f612b098261235e565b612b138185612af5565b9350612b23818560208601612378565b80840191505092915050565b5f612b3982612acf565b600782019150612b498284612aff565b915081905092915050565b5f819050815f5260205f209050919050565b5f6020601f8301049050919050565b5f82821b905092915050565b5f60088302612bb07fffffffffffffffffffffffffffffffffffffffffffffffffffffffffffffffff82612b75565b612bba8683612b75565b95508019841693508086168417925050509392505050565b5f612bec612be7612be2846123ee565b6125af565b6123ee565b9050919050565b5f819050919050565b612c0583612bd2565b612c19612c1182612bf3565b848454612b81565b825550505050565b5f5f905090565b612c30612c21565b612c3b818484612bfc565b505050565b5b81811015612c5e57612c535f82612c28565b600181019050612c41565b5050565b601f821115612ca357612c7481612b54565b612c7d84612b66565b81016020851015612c8c578190505b612ca0612c9885612b66565b830182612c40565b50505b505050565b5f82821c905092915050565b5f612cc35f1984600802612ca8565b1980831691505092915050565b5f612cdb8383612cb4565b9150826002028217905092915050565b612cf48261235e565b67ffffffffffffffff811115612d0d57612d0c612693565b5b612d17825461299a565b612d22828285612c62565b5f60209050601f831160018114612d53575f8415612d41578287015190505b612d4b8582612cd0565b865550612db2565b601f198416612d6186612b54565b5f5b82811015612d8857848901518255600182019150602085019450602081019050612d63565b86831015612da55784890151612da1601f891682612cb4565b8355505b6001600288020188555050505b505050505050565b7f4e487b71000000000000000000000000000000000000000000000000000000005f52601160045260245ffd5b5f612df1826123ee565b91507fffffffffffffffffffffffffffffffffffffffffffffffffffffffffffffffff8203612e2357612e22612dba565b5b600182019050919050565b5f612e398285612aff565b9150612e458284612aff565b91508190509392505050565b5f81519050612e5f81612623565b92915050565b5f60208284031215612e7a57612e796122a3565b5b5f612e8784828501612e51565b91505092915050565b7f4e6f74206120726567697374657265642066616d696c79206d656d62657200005f82015250565b5f612ec4601e83612368565b9150612ecf82612e90565b602082019050919050565b5f6020820190508181035f830152612ef181612eb8565b9050919050565b7f5468697320616464726573732068617320616c7265616479206d696e746564005f82015250565b5f612f2c601f83612368565b9150612f3782612ef8565b602082019050919050565b5f6020820190508181035f830152612f5981612f20565b9050919050565b5f81519050612f6e816124a4565b92915050565b5f60208284031215612f8957612f886122a3565b5b5f612f9684828501612f60565b91505092915050565b7f506172656e7420686173206e6f74206d696e74656420616e204e4654207965745f82015250565b5f612fd3602083612368565b9150612fde82612f9f565b602082019050919050565b5f6020820190508181035f83015261300081612fc7565b9050919050565b5f81519050919050565b5f82825260208201905092915050565b5f61302b82613007565b6130358185613011565b9350613045818560208601612378565b61304e81612386565b840191505092915050565b5f60808201905061306c5f83018761247c565b613079602083018661247c565b6130866040830185612587565b81810360608301526130988184613021565b905095945050505050565b5f815190506130b1816122d6565b92915050565b5f602082840312156130cc576130cb6122a3565b5b5f6130d9848285016130a3565b91505092915050565b5f6040820190506130f55f83018561247c565b6131026020830184612587565b9392505050565b7f4e487b71000000000000000000000000000000000000000000000000000000005f52601260045260245ffdfe6261666b7265696368697567763337766271647262686c697a63706c646366697175776b66706a78736c62717276326a7a786a79616932647a6961a26469706673582212205b96a87f306745dae99b9b017180c3d6a3832b7ac67a15914231901d8b4dbf9a64736f6c634300081c0033","linkReferences":{}},"methodIdentifiers":{"adminMint()":"895fc788","approve(address,uint256)":"095ea7b3","balanceOf(address)":"70a08231","familyDAO()":"34b6ea1f","getApproved(uint256)":"081812fc","getMetadataURI(uint256)":"bde644fb","hasMinted(address)":"38e21cce","isApprovedForAll(address,address)":"e985e9c5","mint(address,string)":"d0def521","name()":"06fdde03","nextTokenId()":"75794a3c","owner()":"8da5cb5b","ownerOf(uint256)":"6352211e","registry()":"7b103999","renounceOwnership()":"715018a6","safeTransferFrom(address,address,uint256)":"42842e0e","safeTransferFrom(address,address,uint256,bytes)":"b88d4fde","setApprovalForAll(address,bool)":"a22cb465","setFamilyDAO(address)":"28610553","supportsInterface(bytes4)":"01ffc9a7","symbol()":"95d89b41","tokenMetadataURI(uint256)":"157c3df9","tokenURI(uint256)":"c87b56dd","transferFrom(address,address,uint256)":"23b872dd","transferOwnership(address)":"f2fde38b"},"id":40}