{"abi":[{"type":"constructor","inputs":[{"name":"nftAddress","type":"address","internalType":"address"},{"name":"_registry","type":"address","internalType":"contract FamilyRegistry"}],"stateMutability":"nonpayable"},{"type":"function","name":"createProposal","inputs":[{"name":"description","type":"string","internalType":"string"}],"outputs":[{"name":"","type":"uint256","internalType":"uint256"}],"stateMutability":"nonpayable"},{"type":"function","name":"executeProposal","inputs":[{"name":"proposalId","type":"uint256","internalType":"uint256"}],"outputs":[],"stateMutability":"nonpayable"},{"type":"function","name":"familyNFT","inputs":[],"outputs":[{"name":"","type":"address","internalType":"contract FamilyNFT"}],"stateMutability":"view"},{"type":"function","name":"proposalCount","inputs":[],"outputs":[{"name":"","type":"uint256","internalType":"uint256"}],"stateMutability":"view"},{"type":"function","name":"proposals","inputs":[{"name":"","type":"uint256","internalType":"uint256"}],"outputs":[{"name":"id","type":"uint256","internalType":"uint256"},{"name":"proposer","type":"address","internalType":"address"},{"name":"description","type":"string","internalType":"string"},{"name":"votesFor","type":"uint256","internalType":"uint256"},{"name":"votesAgainst","type":"uint256","internalType":"uint256"},{"name":"deadline","type":"uint256","internalType":"uint256"},{"name":"executed","type":"bool","internalType":"bool"}],"stateMutability":"view"},{"type":"function","name":"registry","inputs":[],"outputs":[{"name":"","type":"address","internalType":"contract FamilyRegistry"}],"stateMutability":"view"},{"type":"function","name":"vote","inputs":[{"name":"proposalId","type":"uint256","internalType":"uint256"},{"name":"support","type":"bool","internalType":"bool"}],"outputs":[],"stateMutability":"nonpayable"},{"type":"event","name":"ProposalCreated","inputs":[{"name":"id","type":"uint256","indexed":false,"internalType":"uint256"},{"name":"proposer","type":"address","indexed":false,"internalType":"address"},{"name":"description","type":"string","indexed":false,"internalType":"string"}],"anonymous":false},{"type":"event","name":"ProposalExecuted","inputs":[{"name":"id","type":"uint256","indexed":false,"internalType":"uint256"},{"name":"passed","type":"bool","indexed":false,"internalType":"bool"}],"anonymous":false},{"type":"event","name":"VoteCast","inputs":[{"name":"proposalId","type":"uint256","indexed":false,"internalType":"uint256"},{"name":"voter","type":"address","indexed":false,"internalType":"address"},{"name":"support","type":"bool","indexed":false,"internalType":"bool"}],"anonymous":false},{"type":"error","name":"AlreadyVoted","inputs":[]},{"type":"error","name":"NotNFTHolder","inputs":[]},{"type":"error","name":"VotingNotFinished","inputs":[]}],"bytecode":{"object":"0x608060405234801561000f575f5ffd5b506040516124d33803806124d383398181016040528101906100319190610150565b815f5f6101000a81548173ffffffffffffffffffffffffffffffffffffffff021916908373ffffffffffffffffffffffffffffffffffffffff1602179055508060015f6101000a81548173ffffffffffffffffffffffffffffffffffffffff021916908373ffffffffffffffffffffffffffffffffffffffff160217905550505061018e565b5f5ffd5b5f73ffffffffffffffffffffffffffffffffffffffff82169050919050565b5f6100e4826100bb565b9050919050565b6100f4816100da565b81146100fe575f5ffd5b50565b5f8151905061010f816100eb565b92915050565b5f61011f826100da565b9050919050565b61012f81610115565b8114610139575f5ffd5b50565b5f8151905061014a81610126565b92915050565b5f5f60408385031215610166576101656100b7565b5b5f61017385828601610101565b92505060206101848582860161013c565b9150509250929050565b6123388061019b5f395ff3fe608060405234801561000f575f5ffd5b506004361061007b575f3560e01c806349c2a1a61161005957806349c2a1a6146100ef5780637b1039991461011f578063c9d27afe1461013d578063da35c664146101595761007b565b8063013cf08b1461007f5780630d61b519146100b5578063200590b7146100d1575b5f5ffd5b6100996004803603810190610094919061167b565b610177565b6040516100ac979695949392919061177e565b60405180910390f35b6100cf60048036038101906100ca919061167b565b610266565b005b6100d9610814565b6040516100e6919061184d565b60405180910390f35b61010960048036038101906101049190611992565b610838565b60405161011691906119d9565b60405180910390f35b6101276109ec565b6040516101349190611a12565b60405180910390f35b61015760048036038101906101529190611a55565b610a11565b005b610161610c4d565b60405161016e91906119d9565b60405180910390f35b6003602052805f5260405f205f91509050805f015490806001015f9054906101000a900473ffffffffffffffffffffffffffffffffffffffff16908060020180546101c190611ac0565b80601f01602080910402602001604051908101604052809291908181526020018280546101ed90611ac0565b80156102385780601f1061020f57610100808354040283529160200191610238565b820191905f5260205f20905b81548152906001019060200180831161021b57829003601f168201915b505050505090806003015490806004015490806005015490806006015f9054906101000a900460ff16905087565b5f60035f8381526020019081526020015f20905080600501544210156102b8576040517f68cd2a8500000000000000000000000000000000000000000000000000000000815260040160405180910390fd5b806006015f9054906101000a900460ff1615610309576040517f08c379a000000000000000000000000000000000000000000000000000000000815260040161030090611b3a565b60405180910390fd5b6001816006015f6101000a81548160ff0219169083151502179055505f816004015482600301541190507f948f4a9cd986f1118c3fbd459f7a22b23c0693e1ca3ef06a6a8be5aa7d39cc038382604051610364929190611b58565b60405180910390a18015610798575f82600201805461038290611ac0565b80601f01602080910402602001604051908101604052809291908181526020018280546103ae90611ac0565b80156103f95780601f106103d0576101008083540402835291602001916103f9565b820191905f5260205f20905b8154815290600101906020018083116103dc57829003601f168201915b5050505050905061043f816040518060400160405280600b81526020017f4144445f4d454d4245523a000000000000000000000000000000000000000000815250610c53565b156106a5575f5f5f5f61045185610d22565b93509350935093505f8190506004815110610586575f6040518060400160405280600781526020017f697066733a2f2f0000000000000000000000000000000000000000000000000081525090505f600190505f5f90505b825181101561055a5783518110158061054057508281815181106104d0576104cf611b7f565b5b602001015160f81c60f81b7effffffffffffffffffffffffffffffffffffffffffffffffffffffffffffff19168482815181106105105761050f611b7f565b5b602001015160f81c60f81b7effffffffffffffffffffffffffffffffffffffffffffffffffffffffffffff191614155b1561054d575f915061055a565b80806001019150506104a9565b508061058357836040516020016105719190611c30565b60405160208183030381529060405293505b50505b60015f9054906101000a900473ffffffffffffffffffffffffffffffffffffffff1673ffffffffffffffffffffffffffffffffffffffff166382c9ce60868686866040518563ffffffff1660e01b81526004016105e69493929190611c51565b5f604051808303815f87803b1580156105fd575f5ffd5b505af115801561060f573d5f5f3e3d5ffd5b505050505f5f9054906101000a900473ffffffffffffffffffffffffffffffffffffffff1673ffffffffffffffffffffffffffffffffffffffff1663d0def52186846040518363ffffffff1660e01b815260040161066e929190611ca2565b5f604051808303815f87803b158015610685575f5ffd5b505af1158015610697573d5f5f3e3d5ffd5b505050505050505050610796565b6106e4816040518060400160405280600e81526020017f52454d4f56455f4d454d4245523a000000000000000000000000000000000000815250610c53565b15610795575f61070a61070583600e8086516107009190611cfd565b611068565b61114a565b905060015f9054906101000a900473ffffffffffffffffffffffffffffffffffffffff1673ffffffffffffffffffffffffffffffffffffffff16630342da8a826040518263ffffffff1660e01b81526004016107669190611d30565b5f604051808303815f87803b15801561077d575f5ffd5b505af115801561078f573d5f5f3e3d5ffd5b50505050505b5b505b60035f8481526020019081526020015f205f5f82015f9055600182015f6101000a81549073ffffffffffffffffffffffffffffffffffffffff0219169055600282015f6107e591906115bd565b600382015f9055600482015f9055600582015f9055600682015f6101000a81549060ff02191690555050505050565b5f5f9054906101000a900473ffffffffffffffffffffffffffffffffffffffff1681565b5f5f5f5f9054906101000a900473ffffffffffffffffffffffffffffffffffffffff1673ffffffffffffffffffffffffffffffffffffffff166370a08231336040518263ffffffff1660e01b81526004016108939190611d30565b602060405180830381865afa1580156108ae573d5f5f3e3d5ffd5b505050506040513d601f19601f820116820180604052508101906108d29190611d5d565b03610909576040517f6c2e870600000000000000000000000000000000000000000000000000000000815260040160405180910390fd5b5f60025f81548092919061091c90611d88565b9190505590505f60035f8381526020019081526020015f20905081815f018190555033816001015f6101000a81548173ffffffffffffffffffffffffffffffffffffffff021916908373ffffffffffffffffffffffffffffffffffffffff160217905550838160020190816109919190611f66565b50603c4261099f9190612035565b81600501819055507f7585f467599d0f008985f231af99293be388626ac16ca59505c2f8f88969cd638233866040516109da93929190612068565b60405180910390a18192505050919050565b60015f9054906101000a900473ffffffffffffffffffffffffffffffffffffffff1681565b5f5f5f9054906101000a900473ffffffffffffffffffffffffffffffffffffffff1673ffffffffffffffffffffffffffffffffffffffff166370a08231336040518263ffffffff1660e01b8152600401610a6b9190611d30565b602060405180830381865afa158015610a86573d5f5f3e3d5ffd5b505050506040513d601f19601f82011682018060405250810190610aaa9190611d5d565b03610ae1576040517f6c2e870600000000000000000000000000000000000000000000000000000000815260040160405180910390fd5b5f60035f8481526020019081526020015f209050806007015f3373ffffffffffffffffffffffffffffffffffffffff1673ffffffffffffffffffffffffffffffffffffffff1681526020019081526020015f205f9054906101000a900460ff1615610b78576040517f7c9a1cf900000000000000000000000000000000000000000000000000000000815260040160405180910390fd5b6001816007015f3373ffffffffffffffffffffffffffffffffffffffff1673ffffffffffffffffffffffffffffffffffffffff1681526020019081526020015f205f6101000a81548160ff0219169083151502179055508115610bf357806003015f815480929190610be990611d88565b9190505550610c0d565b806004015f815480929190610c0790611d88565b91905055505b7fe71fcdac32df1877c1700e7bda2a03157e20993363a28fc35ac495cefc76e4d4833384604051610c40939291906120a4565b60405180910390a1505050565b60025481565b5f5f829050805184511015610c6b575f915050610d1c565b5f5f90505b8151811015610d1557818181518110610c8c57610c8b611b7f565b5b602001015160f81c60f81b7effffffffffffffffffffffffffffffffffffffffffffffffffffffffffffff1916858281518110610ccc57610ccb611b7f565b5b602001015160f81c60f81b7effffffffffffffffffffffffffffffffffffffffffffffffffffffffffffff191614610d08575f92505050610d1c565b8080600101915050610c70565b5060019150505b92915050565b5f5f6060805f6040518060400160405280600181526020017f3a000000000000000000000000000000000000000000000000000000000000008152509050610d686115fa565b5f5f90505f5f90505b8851811015610e4257835f81518110610d8d57610d8c611b7f565b5b602001015160f81c60f81b7effffffffffffffffffffffffffffffffffffffffffffffffffffffffffffff1916898281518110610dcd57610dcc611b7f565b5b602001015160f81c60f81b7effffffffffffffffffffffffffffffffffffffffffffffffffffffffffffff191603610e35576004821015610e265780838360048110610e1c57610e1b611b7f565b5b6020020181815250505b8180610e3190611d88565b9250505b8080600101915050610d71565b506004811015610e87576040517f08c379a0000000000000000000000000000000000000000000000000000000008152600401610e7e90612123565b60405180910390fd5b610f03610efe896001855f60048110610ea357610ea2611b7f565b5b6020020151610eb29190612035565b6001865f60048110610ec757610ec6611b7f565b5b602002015187600160048110610ee057610edf611b7f565b5b6020020151610eef9190611cfd565b610ef99190611cfd565b611068565b61114a565b9650610f83610f7e89600185600160048110610f2257610f21611b7f565b5b6020020151610f319190612035565b600186600160048110610f4757610f46611b7f565b5b602002015187600260048110610f6057610f5f611b7f565b5b6020020151610f6f9190611cfd565b610f799190611cfd565b611068565b61114a565b9550610ffb88600184600260048110610f9f57610f9e611b7f565b5b6020020151610fae9190612035565b600185600260048110610fc457610fc3611b7f565b5b602002015186600360048110610fdd57610fdc611b7f565b5b6020020151610fec9190611cfd565b610ff69190611cfd565b611068565b945061105c8860018460036004811061101757611016611b7f565b5b60200201516110269190612035565b60018560036004811061103c5761103b611b7f565b5b60200201518c5161104d9190611cfd565b6110579190611cfd565b611068565b93505050509193509193565b60605f8267ffffffffffffffff8111156110855761108461186e565b5b6040519080825280601f01601f1916602001820160405280156110b75781602001600182028036833780820191505090505b5090505f5f90505b8381101561113e578581866110d49190612035565b815181106110e5576110e4611b7f565b5b602001015160f81c60f81b82828151811061110357611102611b7f565b5b60200101907effffffffffffffffffffffffffffffffffffffffffffffffffffffffffffff191690815f1a90535080806001019150506110bf565b50809150509392505050565b5f602a82511461118f576040517f08c379a00000000000000000000000000000000000000000000000000000000081526004016111869061218b565b60405180910390fd5b5f601467ffffffffffffffff8111156111ab576111aa61186e565b5b6040519080825280601f01601f1916602001820160405280156111dd5781602001600182028036833780820191505090505b5090505f5f90505b60148110156112d75761122f846002836111ff91906121a9565b600361120b9190612035565b8151811061121c5761121b611b7f565b5b602001015160f81c60f81b60f81c6112e5565b60106112728660028561124291906121a9565b600261124e9190612035565b8151811061125f5761125e611b7f565b5b602001015160f81c60f81b60f81c6112e5565b61127c91906121f6565b6112869190612232565b60f81b82828151811061129c5761129b611b7f565b5b60200101907effffffffffffffffffffffffffffffffffffffffffffffffffffffffffffff191690815f1a90535080806001019150506111e5565b506014810151915050919050565b5f7f30000000000000000000000000000000000000000000000000000000000000008260f81b7effffffffffffffffffffffffffffffffffffffffffffffffffffffffffffff19161015801561138057507f39000000000000000000000000000000000000000000000000000000000000008260f81b7effffffffffffffffffffffffffffffffffffffffffffffffffffffffffffff191611155b156113bb577f300000000000000000000000000000000000000000000000000000000000000060f81c826113b49190612266565b90506115b8565b7f61000000000000000000000000000000000000000000000000000000000000008260f81b7effffffffffffffffffffffffffffffffffffffffffffffffffffffffffffff19161015801561145557507f66000000000000000000000000000000000000000000000000000000000000008260f81b7effffffffffffffffffffffffffffffffffffffffffffffffffffffffffffff191611155b1561149c577f610000000000000000000000000000000000000000000000000000000000000060f81c82600a61148b9190612232565b6114959190612266565b90506115b8565b7f41000000000000000000000000000000000000000000000000000000000000008260f81b7effffffffffffffffffffffffffffffffffffffffffffffffffffffffffffff19161015801561153657507f46000000000000000000000000000000000000000000000000000000000000008260f81b7effffffffffffffffffffffffffffffffffffffffffffffffffffffffffffff191611155b1561157d577f410000000000000000000000000000000000000000000000000000000000000060f81c82600a61156c9190612232565b6115769190612266565b90506115b8565b6040517f08c379a00000000000000000000000000000000000000000000000000000000081526004016115af906122e4565b60405180910390fd5b919050565b5080546115c990611ac0565b5f825580601f106115da57506115f7565b601f0160209004905f5260205f20908101906115f6919061161c565b5b50565b6040518060800160405280600490602082028036833780820191505090505090565b5b80821115611633575f815f90555060010161161d565b5090565b5f604051905090565b5f5ffd5b5f5ffd5b5f819050919050565b61165a81611648565b8114611664575f5ffd5b50565b5f8135905061167581611651565b92915050565b5f602082840312156116905761168f611640565b5b5f61169d84828501611667565b91505092915050565b6116af81611648565b82525050565b5f73ffffffffffffffffffffffffffffffffffffffff82169050919050565b5f6116de826116b5565b9050919050565b6116ee816116d4565b82525050565b5f81519050919050565b5f82825260208201905092915050565b8281835e5f83830152505050565b5f601f19601f8301169050919050565b5f611736826116f4565b61174081856116fe565b935061175081856020860161170e565b6117598161171c565b840191505092915050565b5f8115159050919050565b61177881611764565b82525050565b5f60e0820190506117915f83018a6116a6565b61179e60208301896116e5565b81810360408301526117b0818861172c565b90506117bf60608301876116a6565b6117cc60808301866116a6565b6117d960a08301856116a6565b6117e660c083018461176f565b98975050505050505050565b5f819050919050565b5f61181561181061180b846116b5565b6117f2565b6116b5565b9050919050565b5f611826826117fb565b9050919050565b5f6118378261181c565b9050919050565b6118478161182d565b82525050565b5f6020820190506118605f83018461183e565b92915050565b5f5ffd5b5f5ffd5b7f4e487b71000000000000000000000000000000000000000000000000000000005f52604160045260245ffd5b6118a48261171c565b810181811067ffffffffffffffff821117156118c3576118c261186e565b5b80604052505050565b5f6118d5611637565b90506118e1828261189b565b919050565b5f67ffffffffffffffff821115611900576118ff61186e565b5b6119098261171c565b9050602081019050919050565b828183375f83830152505050565b5f611936611931846118e6565b6118cc565b9050828152602081018484840111156119525761195161186a565b5b61195d848285611916565b509392505050565b5f82601f83011261197957611978611866565b5b8135611989848260208601611924565b91505092915050565b5f602082840312156119a7576119a6611640565b5b5f82013567ffffffffffffffff8111156119c4576119c3611644565b5b6119d084828501611965565b91505092915050565b5f6020820190506119ec5f8301846116a6565b92915050565b5f6119fc8261181c565b9050919050565b611a0c816119f2565b82525050565b5f602082019050611a255f830184611a03565b92915050565b611a3481611764565b8114611a3e575f5ffd5b50565b5f81359050611a4f81611a2b565b92915050565b5f5f60408385031215611a6b57611a6a611640565b5b5f611a7885828601611667565b9250506020611a8985828601611a41565b9150509250929050565b7f4e487b71000000000000000000000000000000000000000000000000000000005f52602260045260245ffd5b5f6002820490506001821680611ad757607f821691505b602082108103611aea57611ae9611a93565b5b50919050565b7f50726f706f73616c20616c7265616479206578656375746564000000000000005f82015250565b5f611b246019836116fe565b9150611b2f82611af0565b602082019050919050565b5f6020820190508181035f830152611b5181611b18565b9050919050565b5f604082019050611b6b5f8301856116a6565b611b78602083018461176f565b9392505050565b7f4e487b71000000000000000000000000000000000000000000000000000000005f52603260045260245ffd5b5f81905092915050565b7f697066733a2f2f000000000000000000000000000000000000000000000000005f82015250565b5f611bea600783611bac565b9150611bf582611bb6565b600782019050919050565b5f611c0a826116f4565b611c148185611bac565b9350611c2481856020860161170e565b80840191505092915050565b5f611c3a82611bde565b9150611c468284611c00565b915081905092915050565b5f608082019050611c645f8301876116e5565b611c7160208301866116e5565b8181036040830152611c83818561172c565b90508181036060830152611c97818461172c565b905095945050505050565b5f604082019050611cb55f8301856116e5565b8181036020830152611cc7818461172c565b90509392505050565b7f4e487b71000000000000000000000000000000000000000000000000000000005f52601160045260245ffd5b5f611d0782611648565b9150611d1283611648565b9250828203905081811115611d2a57611d29611cd0565b5b92915050565b5f602082019050611d435f8301846116e5565b92915050565b5f81519050611d5781611651565b92915050565b5f60208284031215611d7257611d71611640565b5b5f611d7f84828501611d49565b91505092915050565b5f611d9282611648565b91507fffffffffffffffffffffffffffffffffffffffffffffffffffffffffffffffff8203611dc457611dc3611cd0565b5b600182019050919050565b5f819050815f5260205f209050919050565b5f6020601f8301049050919050565b5f82821b905092915050565b5f60088302611e2b7fffffffffffffffffffffffffffffffffffffffffffffffffffffffffffffffff82611df0565b611e358683611df0565b95508019841693508086168417925050509392505050565b5f611e67611e62611e5d84611648565b6117f2565b611648565b9050919050565b5f819050919050565b611e8083611e4d565b611e94611e8c82611e6e565b848454611dfc565b825550505050565b5f5f905090565b611eab611e9c565b611eb6818484611e77565b505050565b5b81811015611ed957611ece5f82611ea3565b600181019050611ebc565b5050565b601f821115611f1e57611eef81611dcf565b611ef884611de1565b81016020851015611f07578190505b611f1b611f1385611de1565b830182611ebb565b50505b505050565b5f82821c905092915050565b5f611f3e5f1984600802611f23565b1980831691505092915050565b5f611f568383611f2f565b9150826002028217905092915050565b611f6f826116f4565b67ffffffffffffffff811115611f8857611f8761186e565b5b611f928254611ac0565b611f9d828285611edd565b5f60209050601f831160018114611fce575f8415611fbc578287015190505b611fc68582611f4b565b86555061202d565b601f198416611fdc86611dcf565b5f5b8281101561200357848901518255600182019150602085019450602081019050611fde565b86831015612020578489015161201c601f891682611f2f565b8355505b6001600288020188555050505b505050505050565b5f61203f82611648565b915061204a83611648565b925082820190508082111561206257612061611cd0565b5b92915050565b5f60608201905061207b5f8301866116a6565b61208860208301856116e5565b818103604083015261209a818461172c565b9050949350505050565b5f6060820190506120b75f8301866116a6565b6120c460208301856116e5565b6120d1604083018461176f565b949350505050565b7f496e76616c696420616464206d656d62657220666f726d6174000000000000005f82015250565b5f61210d6019836116fe565b9150612118826120d9565b602082019050919050565b5f6020820190508181035f83015261213a81612101565b9050919050565b7f496e76616c69642061646472657373206c656e677468000000000000000000005f82015250565b5f6121756016836116fe565b915061218082612141565b602082019050919050565b5f6020820190508181035f8301526121a281612169565b9050919050565b5f6121b382611648565b91506121be83611648565b92508282026121cc81611648565b915082820484148315176121e3576121e2611cd0565b5b5092915050565b5f60ff82169050919050565b5f612200826121ea565b915061220b836121ea565b9250828202612219816121ea565b915080821461222b5761222a611cd0565b5b5092915050565b5f61223c826121ea565b9150612247836121ea565b9250828201905060ff8111156122605761225f611cd0565b5b92915050565b5f612270826121ea565b915061227b836121ea565b9250828203905060ff81111561229457612293611cd0565b5b92915050565b7f496e76616c6964206865782063686172616374657200000000000000000000005f82015250565b5f6122ce6015836116fe565b91506122d98261229a565b602082019050919050565b5f6020820190508181035f8301526122fb816122c2565b905091905056fea264697066735822122054dd9b2e0338c4a6893c53a3dfe29e680c0da191f1a13b451d4b1df58de5b3c864736f6c634300081c0033","linkReferences":{}},"methodIdentifiers":{"createProposal(string)":"49c2a1a6","executeProposal(uint256)":"0d61b519","familyNFT()":"200590b7","proposalCount()":"da35c664","proposals(uint256)":"013cf08b","registry()":"7b103999","vote(uint256,bool)":"c9d27afe"},"id":34}