{"abi":[{"type":"constructor","inputs":[{"name":"nftAddress","type":"address","internalType":"address"},{"name":"_registry","type":"address","internalType":"contract FamilyRegistry"}],"stateMutability":"nonpayable"},{"type":"function","name":"createProposal","inputs":[{"name":"description","type":"string","internalType":"string"}],"outputs":[{"name":"","type":"uint256","internalType":"uint256"}],"stateMutability":"nonpayable"},{"type":"function","name":"executeProposal","inputs":[{"name":"proposalId","type":"uint256","internalType":"uint256"}],"outputs":[],"stateMutability":"nonpayable"},{"type":"function","name":"familyNFT","inputs":[],"outputs":[{"name":"","type":"address","internalType":"contract FamilyNFT"}],"stateMutability":"view"},{"type":"function","name":"getProposalCount","inputs":[],"outputs":[{"name":"","type":"uint256","internalType":"uint256"}],"stateMutability":"view"},{"type":"function","name":"proposalCount","inputs":[],"outputs":[{"name":"","type":"uint256","internalType":"uint256"}],"stateMutability":"view"},{"type":"function","name":"proposals","inputs":[{"name":"","type":"uint256","internalType":"uint256"}],"outputs":[{"name":"id","type":"uint256","internalType":"uint256"},{"name":"proposer","type":"address","internalType":"address"},{"name":"description","type":"string","internalType":"string"},{"name":"votesFor","type":"uint256","internalType":"uint256"},{"name":"votesAgainst","type":"uint256","internalType":"uint256"},{"name":"deadline","type":"uint256","internalType":"uint256"},{"name":"executed","type":"bool","internalType":"bool"}],"stateMutability":"view"},{"type":"function","name":"registry","inputs":[],"outputs":[{"name":"","type":"address","internalType":"contract FamilyRegistry"}],"stateMutability":"view"},{"type":"function","name":"vote","inputs":[{"name":"proposalId","type":"uint256","internalType":"uint256"},{"name":"support","type":"bool","internalType":"bool"}],"outputs":[],"stateMutability":"nonpayable"},{"type":"event","name":"ProposalCreated","inputs":[{"name":"id","type":"uint256","indexed":false,"internalType":"uint256"},{"name":"proposer","type":"address","indexed":false,"internalType":"address"},{"name":"description","type":"string","indexed":false,"internalType":"string"}],"anonymous":false},{"type":"event","name":"ProposalExecuted","inputs":[{"name":"id","type":"uint256","indexed":false,"internalType":"uint256"},{"name":"passed","type":"bool","indexed":false,"internalType":"bool"}],"anonymous":false},{"type":"event","name":"VoteCast","inputs":[{"name":"proposalId","type":"uint256","indexed":false,"internalType":"uint256"},{"name":"voter","type":"address","indexed":false,"internalType":"address"},{"name":"support","type":"bool","indexed":false,"internalType":"bool"}],"anonymous":false}],"bytecode":{"object":"0x608060405234801561000f575f5ffd5b506040516123d53803806123d583398181016040528101906100319190610150565b815f5f6101000a81548173ffffffffffffffffffffffffffffffffffffffff021916908373ffffffffffffffffffffffffffffffffffffffff1602179055508060015f6101000a81548173ffffffffffffffffffffffffffffffffffffffff021916908373ffffffffffffffffffffffffffffffffffffffff160217905550505061018e565b5f5ffd5b5f73ffffffffffffffffffffffffffffffffffffffff82169050919050565b5f6100e4826100bb565b9050919050565b6100f4816100da565b81146100fe575f5ffd5b50565b5f8151905061010f816100eb565b92915050565b5f61011f826100da565b9050919050565b61012f81610115565b8114610139575f5ffd5b50565b5f8151905061014a81610126565b92915050565b5f5f60408385031215610166576101656100b7565b5b5f61017385828601610101565b92505060206101848582860161013c565b9150509250929050565b61223a8061019b5f395ff3fe608060405234801561000f575f5ffd5b5060043610610086575f3560e01c80637b103999116100595780637b1039991461012a578063c08cc02d14610148578063c9d27afe14610166578063da35c6641461018257610086565b8063013cf08b1461008a5780630d61b519146100c0578063200590b7146100dc57806349c2a1a6146100fa575b5f5ffd5b6100a4600480360381019061009f919061146c565b6101a0565b6040516100b7979695949392919061156f565b60405180910390f35b6100da60048036038101906100d5919061146c565b61028f565b005b6100e461079b565b6040516100f1919061163e565b60405180910390f35b610114600480360381019061010f91906116b8565b6107bf565b6040516101219190611703565b60405180910390f35b610132610983565b60405161013f919061173c565b60405180910390f35b6101506109a8565b60405161015d9190611703565b60405180910390f35b610180600480360381019061017b919061177f565b6109b1565b005b61018a610c49565b6040516101979190611703565b60405180910390f35b6003602052805f5260405f205f91509050805f015490806001015f9054906101000a900473ffffffffffffffffffffffffffffffffffffffff16908060020180546101ea906117ea565b80601f0160208091040260200160405190810160405280929190818152602001828054610216906117ea565b80156102615780601f1061023857610100808354040283529160200191610261565b820191905f5260205f20905b81548152906001019060200180831161024457829003601f168201915b505050505090806003015490806004015490806005015490806006015f9054906101000a900460ff16905087565b5f60035f8381526020019081526020015f20905080600501544210156102ea576040517f08c379a00000000000000000000000000000000000000000000000000000000081526004016102e190611864565b60405180910390fd5b806006015f9054906101000a900460ff161561033b576040517f08c379a0000000000000000000000000000000000000000000000000000000008152600401610332906118cc565b60405180910390fd5b6001816006015f6101000a81548160ff0219169083151502179055505f816004015482600301541190507f948f4a9cd986f1118c3fbd459f7a22b23c0693e1ca3ef06a6a8be5aa7d39cc0383826040516103969291906118ea565b60405180910390a1806103aa575050610798565b6104738260020180546103bc906117ea565b80601f01602080910402602001604051908101604052809291908181526020018280546103e8906117ea565b80156104335780601f1061040a57610100808354040283529160200191610433565b820191905f5260205f20905b81548152906001019060200180831161041657829003601f168201915b50505050506040518060400160405280600b81526020017f4144445f4d454d4245523a000000000000000000000000000000000000000000815250610c4f565b156105a7575f5f5f61050e85600201805461048d906117ea565b80601f01602080910402602001604051908101604052809291908181526020018280546104b9906117ea565b80156105045780601f106104db57610100808354040283529160200191610504565b820191905f5260205f20905b8154815290600101906020018083116104e757829003601f168201915b5050505050610d25565b92509250925060015f9054906101000a900473ffffffffffffffffffffffffffffffffffffffff1673ffffffffffffffffffffffffffffffffffffffff16633bfbc8ff8484846040518463ffffffff1660e01b815260040161057293929190611911565b5f604051808303815f87803b158015610589575f5ffd5b505af115801561059b573d5f5f3e3d5ffd5b50505050505050610795565b6106708260020180546105b9906117ea565b80601f01602080910402602001604051908101604052809291908181526020018280546105e5906117ea565b80156106305780601f1061060757610100808354040283529160200191610630565b820191905f5260205f20905b81548152906001019060200180831161061357829003601f168201915b50505050506040518060400160405280600e81526020017f52454d4f56455f4d454d4245523a000000000000000000000000000000000000815250610c4f565b15610794575f610709836002018054610688906117ea565b80601f01602080910402602001604051908101604052809291908181526020018280546106b4906117ea565b80156106ff5780601f106106d6576101008083540402835291602001916106ff565b820191905f5260205f20905b8154815290600101906020018083116106e257829003601f168201915b5050505050610f54565b905060015f9054906101000a900473ffffffffffffffffffffffffffffffffffffffff1673ffffffffffffffffffffffffffffffffffffffff16630342da8a826040518263ffffffff1660e01b8152600401610765919061194d565b5f604051808303815f87803b15801561077c575f5ffd5b505af115801561078e573d5f5f3e3d5ffd5b50505050505b5b50505b50565b5f5f9054906101000a900473ffffffffffffffffffffffffffffffffffffffff1681565b5f5f5f5f9054906101000a900473ffffffffffffffffffffffffffffffffffffffff1673ffffffffffffffffffffffffffffffffffffffff166370a08231336040518263ffffffff1660e01b815260040161081a919061194d565b602060405180830381865afa158015610835573d5f5f3e3d5ffd5b505050506040513d601f19601f82011682018060405250810190610859919061197a565b11610899576040517f08c379a0000000000000000000000000000000000000000000000000000000008152600401610890906119ef565b60405180910390fd5b5f60025f8154809291906108ac90611a3a565b9190505590505f60035f8381526020019081526020015f20905081815f018190555033816001015f6101000a81548173ffffffffffffffffffffffffffffffffffffffff021916908373ffffffffffffffffffffffffffffffffffffffff1602179055508484826002019182610923929190611c4f565b506203f480426109339190611d1c565b81600501819055507f7585f467599d0f008985f231af99293be388626ac16ca59505c2f8f88969cd63823387876040516109709493929190611d89565b60405180910390a1819250505092915050565b60015f9054906101000a900473ffffffffffffffffffffffffffffffffffffffff1681565b5f600254905090565b5f5f5f9054906101000a900473ffffffffffffffffffffffffffffffffffffffff1673ffffffffffffffffffffffffffffffffffffffff166370a08231336040518263ffffffff1660e01b8152600401610a0b919061194d565b602060405180830381865afa158015610a26573d5f5f3e3d5ffd5b505050506040513d601f19601f82011682018060405250810190610a4a919061197a565b11610a8a576040517f08c379a0000000000000000000000000000000000000000000000000000000008152600401610a81906119ef565b60405180910390fd5b5f60035f8481526020019081526020015f20905080600501544210610ae4576040517f08c379a0000000000000000000000000000000000000000000000000000000008152600401610adb90611e11565b60405180910390fd5b806007015f3373ffffffffffffffffffffffffffffffffffffffff1673ffffffffffffffffffffffffffffffffffffffff1681526020019081526020015f205f9054906101000a900460ff1615610b70576040517f08c379a0000000000000000000000000000000000000000000000000000000008152600401610b6790611e79565b60405180910390fd5b6001816007015f3373ffffffffffffffffffffffffffffffffffffffff1673ffffffffffffffffffffffffffffffffffffffff1681526020019081526020015f205f6101000a81548160ff0219169083151502179055508115610bed576001816003015f828254610be19190611d1c565b92505081905550610c09565b6001816004015f828254610c019190611d1c565b925050819055505b7fe71fcdac32df1877c1700e7bda2a03157e20993363a28fc35ac495cefc76e4d4833384604051610c3c93929190611e97565b60405180910390a1505050565b60025481565b5f5f8390505f839050815181511115610c6c575f92505050610d1f565b5f5f90505b8151811015610d1757818181518110610c8d57610c8c611ecc565b5b602001015160f81c60f81b7effffffffffffffffffffffffffffffffffffffffffffffffffffffffffffff1916838281518110610ccd57610ccc611ecc565b5b602001015160f81c60f81b7effffffffffffffffffffffffffffffffffffffffffffffffffffffffffffff191614610d0a575f9350505050610d1f565b8080600101915050610c71565b506001925050505b92915050565b5f5f60605f8490505f5f90505f600467ffffffffffffffff811115610d4d57610d4c611a8b565b5b604051908082528060200260200182016040528015610d8057816020015b6060815260200190600190039081610d6b5790505b5090505f5f90505f5f90505b8451811015610e50577f3a00000000000000000000000000000000000000000000000000000000000000858281518110610dc957610dc8611ecc565b5b602001015160f81c60f81b7effffffffffffffffffffffffffffffffffffffffffffffffffffffffffffff191603610e4357610e0685838361102c565b838580610e1290611f05565b965060ff1681518110610e2857610e27611ecc565b5b6020026020010181905250600181610e409190611d1c565b91505b8080600101915050610d8c565b50610e5d8482865161102c565b828480610e6990611f05565b955060ff1681518110610e7f57610e7e611ecc565b5b602002602001018190525060048360ff1614610ed0576040517f08c379a0000000000000000000000000000000000000000000000000000000008152600401610ec790611f77565b60405180910390fd5b5f610ef583600181518110610ee857610ee7611ecc565b5b602002602001015161115b565b90505f610f1c84600281518110610f0f57610f0e611ecc565b5b602002602001015161115b565b90505f84600381518110610f3357610f32611ecc565b5b60200260200101519050828282995099509950505050505050509193909250565b5f5f8290505f610f9a826040518060400160405280600181526020017f3a000000000000000000000000000000000000000000000000000000000000008152505f6112eb565b90507fffffffffffffffffffffffffffffffffffffffffffffffffffffffffffffffff8103610ffe576040517f08c379a0000000000000000000000000000000000000000000000000000000008152600401610ff590611fdf565b60405180910390fd5b5f611017836001846110109190611d1c565b855161102c565b90506110228161115b565b9350505050919050565b6060828211611070576040517f08c379a000000000000000000000000000000000000000000000000000000000815260040161106790612047565b60405180910390fd5b5f838361107d9190612065565b67ffffffffffffffff81111561109657611095611a8b565b5b6040519080825280601f01601f1916602001820160405280156110c85781602001600182028036833780820191505090505b5090505f8490505b8381101561114f578581815181106110eb576110ea611ecc565b5b602001015160f81c60f81b8286836111039190612065565b8151811061111457611113611ecc565b5b60200101907effffffffffffffffffffffffffffffffffffffffffffffffffffffffffffff191690815f1a90535080806001019150506110d0565b50809150509392505050565b5f602a8251146111a0576040517f08c379a0000000000000000000000000000000000000000000000000000000008152600401611197906120e2565b60405180910390fd5b5f5f90505f600290505b602a8110156112e15760048273ffffffffffffffffffffffffffffffffffffffff16901b91505f8482815181106111e4576111e3611ecc565b5b602001015160f81c60f81b60f81c905060308160ff161015801561120c575060398160ff1611155b1561122a5760308161121e9190612100565b60ff16831792506112d3565b60418160ff1610158015611242575060468160ff1611155b15611260576037816112549190612100565b60ff16831792506112d2565b60618160ff1610158015611278575060668160ff1611155b156112965760578161128a9190612100565b60ff16831792506112d1565b6040517f08c379a00000000000000000000000000000000000000000000000000000000081526004016112c89061217e565b60405180910390fd5b5b5b5080806001019150506111aa565b5080915050919050565b5f5f8390505f8390505b6001825187516113059190612065565b61130f9190611d1c565b8110156113ee575f600190505f5f90505b83518110156113ce5783818151811061133c5761133b611ecc565b5b602001015160f81c60f81b7effffffffffffffffffffffffffffffffffffffffffffffffffffffffffffff19168882856113769190611d1c565b8151811061138757611386611ecc565b5b602001015160f81c60f81b7effffffffffffffffffffffffffffffffffffffffffffffffffffffffffffff1916146113c1575f91506113ce565b8080600101915050611320565b5080156113e05781935050505061142a565b5080806001019150506112f5565b506040517f08c379a0000000000000000000000000000000000000000000000000000000008152600401611421906121e6565b60405180910390fd5b9392505050565b5f5ffd5b5f5ffd5b5f819050919050565b61144b81611439565b8114611455575f5ffd5b50565b5f8135905061146681611442565b92915050565b5f6020828403121561148157611480611431565b5b5f61148e84828501611458565b91505092915050565b6114a081611439565b82525050565b5f73ffffffffffffffffffffffffffffffffffffffff82169050919050565b5f6114cf826114a6565b9050919050565b6114df816114c5565b82525050565b5f81519050919050565b5f82825260208201905092915050565b8281835e5f83830152505050565b5f601f19601f8301169050919050565b5f611527826114e5565b61153181856114ef565b93506115418185602086016114ff565b61154a8161150d565b840191505092915050565b5f8115159050919050565b61156981611555565b82525050565b5f60e0820190506115825f83018a611497565b61158f60208301896114d6565b81810360408301526115a1818861151d565b90506115b06060830187611497565b6115bd6080830186611497565b6115ca60a0830185611497565b6115d760c0830184611560565b98975050505050505050565b5f819050919050565b5f6116066116016115fc846114a6565b6115e3565b6114a6565b9050919050565b5f611617826115ec565b9050919050565b5f6116288261160d565b9050919050565b6116388161161e565b82525050565b5f6020820190506116515f83018461162f565b92915050565b5f5ffd5b5f5ffd5b5f5ffd5b5f5f83601f84011261167857611677611657565b5b8235905067ffffffffffffffff8111156116955761169461165b565b5b6020830191508360018202830111156116b1576116b061165f565b5b9250929050565b5f5f602083850312156116ce576116cd611431565b5b5f83013567ffffffffffffffff8111156116eb576116ea611435565b5b6116f785828601611663565b92509250509250929050565b5f6020820190506117165f830184611497565b92915050565b5f6117268261160d565b9050919050565b6117368161171c565b82525050565b5f60208201905061174f5f83018461172d565b92915050565b61175e81611555565b8114611768575f5ffd5b50565b5f8135905061177981611755565b92915050565b5f5f6040838503121561179557611794611431565b5b5f6117a285828601611458565b92505060206117b38582860161176b565b9150509250929050565b7f4e487b71000000000000000000000000000000000000000000000000000000005f52602260045260245ffd5b5f600282049050600182168061180157607f821691505b602082108103611814576118136117bd565b5b50919050565b7f566f74696e67206e6f742066696e6973686564000000000000000000000000005f82015250565b5f61184e6013836114ef565b91506118598261181a565b602082019050919050565b5f6020820190508181035f83015261187b81611842565b9050919050565b7f50726f706f73616c20616c7265616479206578656375746564000000000000005f82015250565b5f6118b66019836114ef565b91506118c182611882565b602082019050919050565b5f6020820190508181035f8301526118e3816118aa565b9050919050565b5f6040820190506118fd5f830185611497565b61190a6020830184611560565b9392505050565b5f6060820190506119245f8301866114d6565b61193160208301856114d6565b8181036040830152611943818461151d565b9050949350505050565b5f6020820190506119605f8301846114d6565b92915050565b5f8151905061197481611442565b92915050565b5f6020828403121561198f5761198e611431565b5b5f61199c84828501611966565b91505092915050565b7f4e6f7420616e204e465420686f6c6465720000000000000000000000000000005f82015250565b5f6119d96011836114ef565b91506119e4826119a5565b602082019050919050565b5f6020820190508181035f830152611a06816119cd565b9050919050565b7f4e487b71000000000000000000000000000000000000000000000000000000005f52601160045260245ffd5b5f611a4482611439565b91507fffffffffffffffffffffffffffffffffffffffffffffffffffffffffffffffff8203611a7657611a75611a0d565b5b600182019050919050565b5f82905092915050565b7f4e487b71000000000000000000000000000000000000000000000000000000005f52604160045260245ffd5b5f819050815f5260205f209050919050565b5f6020601f8301049050919050565b5f82821b905092915050565b5f60088302611b147fffffffffffffffffffffffffffffffffffffffffffffffffffffffffffffffff82611ad9565b611b1e8683611ad9565b95508019841693508086168417925050509392505050565b5f611b50611b4b611b4684611439565b6115e3565b611439565b9050919050565b5f819050919050565b611b6983611b36565b611b7d611b7582611b57565b848454611ae5565b825550505050565b5f5f905090565b611b94611b85565b611b9f818484611b60565b505050565b5b81811015611bc257611bb75f82611b8c565b600181019050611ba5565b5050565b601f821115611c0757611bd881611ab8565b611be184611aca565b81016020851015611bf0578190505b611c04611bfc85611aca565b830182611ba4565b50505b505050565b5f82821c905092915050565b5f611c275f1984600802611c0c565b1980831691505092915050565b5f611c3f8383611c18565b9150826002028217905092915050565b611c598383611a81565b67ffffffffffffffff811115611c7257611c71611a8b565b5b611c7c82546117ea565b611c87828285611bc6565b5f601f831160018114611cb4575f8415611ca2578287013590505b611cac8582611c34565b865550611d13565b601f198416611cc286611ab8565b5f5b82811015611ce957848901358255600182019150602085019450602081019050611cc4565b86831015611d065784890135611d02601f891682611c18565b8355505b6001600288020188555050505b50505050505050565b5f611d2682611439565b9150611d3183611439565b9250828201905080821115611d4957611d48611a0d565b5b92915050565b828183375f83830152505050565b5f611d6883856114ef565b9350611d75838584611d4f565b611d7e8361150d565b840190509392505050565b5f606082019050611d9c5f830187611497565b611da960208301866114d6565b8181036040830152611dbc818486611d5d565b905095945050505050565b7f566f74696e6720636c6f736564000000000000000000000000000000000000005f82015250565b5f611dfb600d836114ef565b9150611e0682611dc7565b602082019050919050565b5f6020820190508181035f830152611e2881611def565b9050919050565b7f416c726561647920766f746564000000000000000000000000000000000000005f82015250565b5f611e63600d836114ef565b9150611e6e82611e2f565b602082019050919050565b5f6020820190508181035f830152611e9081611e57565b9050919050565b5f606082019050611eaa5f830186611497565b611eb760208301856114d6565b611ec46040830184611560565b949350505050565b7f4e487b71000000000000000000000000000000000000000000000000000000005f52603260045260245ffd5b5f60ff82169050919050565b5f611f0f82611ef9565b915060ff8203611f2257611f21611a0d565b5b600182019050919050565b7f496e76616c6964204144445f4d454d42455220666f726d6174000000000000005f82015250565b5f611f616019836114ef565b9150611f6c82611f2d565b602082019050919050565b5f6020820190508181035f830152611f8e81611f55565b9050919050565b7f496e76616c696420666f726d61740000000000000000000000000000000000005f82015250565b5f611fc9600e836114ef565b9150611fd482611f95565b602082019050919050565b5f6020820190508181035f830152611ff681611fbd565b9050919050565b7f496e76616c696420736c69636520626f756e64730000000000000000000000005f82015250565b5f6120316014836114ef565b915061203c82611ffd565b602082019050919050565b5f6020820190508181035f83015261205e81612025565b9050919050565b5f61206f82611439565b915061207a83611439565b925082820390508181111561209257612091611a0d565b5b92915050565b7f496e76616c69642061646472657373206c656e677468000000000000000000005f82015250565b5f6120cc6016836114ef565b91506120d782612098565b602082019050919050565b5f6020820190508181035f8301526120f9816120c0565b9050919050565b5f61210a82611ef9565b915061211583611ef9565b9250828203905060ff81111561212e5761212d611a0d565b5b92915050565b7f496e76616c6964206164647265737320636861726163746572000000000000005f82015250565b5f6121686019836114ef565b915061217382612134565b602082019050919050565b5f6020820190508181035f8301526121958161215c565b9050919050565b7f44656c696d69746572206e6f7420666f756e64000000000000000000000000005f82015250565b5f6121d06013836114ef565b91506121db8261219c565b602082019050919050565b5f6020820190508181035f8301526121fd816121c4565b905091905056fea2646970667358221220523d4c02b221f2eb6e1ef2914715e75cc5ac6eb961df5d81a58a8c17303965bc64736f6c634300081c0033","linkReferences":{}},"methodIdentifiers":{"createProposal(string)":"49c2a1a6","executeProposal(uint256)":"0d61b519","familyNFT()":"200590b7","getProposalCount()":"c08cc02d","proposalCount()":"da35c664","proposals(uint256)":"013cf08b","registry()":"7b103999","vote(uint256,bool)":"c9d27afe"},"id":39}