{"abi":[{"type":"constructor","inputs":[],"stateMutability":"nonpayable"},{"type":"function","name":"IS_TESTENV","inputs":[],"outputs":[{"name":"","type":"bool","internalType":"bool"}],"stateMutability":"view"},{"type":"function","name":"addFamilyMember","inputs":[{"name":"newMember","type":"address","internalType":"address"},{"name":"parent","type":"address","internalType":"address"},{"name":"role","type":"string","internalType":"string"},{"name":"metadataURI","type":"string","internalType":"string"}],"outputs":[],"stateMutability":"nonpayable"},{"type":"function","name":"admin","inputs":[],"outputs":[{"name":"","type":"address","internalType":"address"}],"stateMutability":"view"},{"type":"function","name":"children","inputs":[{"name":"","type":"address","internalType":"address"},{"name":"","type":"uint256","internalType":"uint256"}],"outputs":[{"name":"","type":"address","internalType":"address"}],"stateMutability":"view"},{"type":"function","name":"dao","inputs":[],"outputs":[{"name":"","type":"address","internalType":"address"}],"stateMutability":"view"},{"type":"function","name":"getChildren","inputs":[{"name":"person","type":"address","internalType":"address"}],"outputs":[{"name":"","type":"address[]","internalType":"address[]"}],"stateMutability":"view"},{"type":"function","name":"getMetadataURI","inputs":[{"name":"person","type":"address","internalType":"address"}],"outputs":[{"name":"","type":"string","internalType":"string"}],"stateMutability":"view"},{"type":"function","name":"getParent","inputs":[{"name":"person","type":"address","internalType":"address"}],"outputs":[{"name":"","type":"address","internalType":"address"}],"stateMutability":"view"},{"type":"function","name":"getRole","inputs":[{"name":"person","type":"address","internalType":"address"}],"outputs":[{"name":"","type":"string","internalType":"string"}],"stateMutability":"view"},{"type":"function","name":"isFamilyMember","inputs":[{"name":"addr","type":"address","internalType":"address"}],"outputs":[{"name":"","type":"bool","internalType":"bool"}],"stateMutability":"view"},{"type":"function","name":"members","inputs":[{"name":"","type":"address","internalType":"address"}],"outputs":[{"name":"exists","type":"bool","internalType":"bool"},{"name":"role","type":"string","internalType":"string"},{"name":"parent","type":"address","internalType":"address"}],"stateMutability":"view"},{"type":"function","name":"metadataURIs","inputs":[{"name":"","type":"address","internalType":"address"}],"outputs":[{"name":"","type":"string","internalType":"string"}],"stateMutability":"view"},{"type":"function","name":"removeFamilyMember","inputs":[{"name":"member","type":"address","internalType":"address"}],"outputs":[],"stateMutability":"nonpayable"},{"type":"function","name":"roles","inputs":[{"name":"","type":"address","internalType":"address"}],"outputs":[{"name":"","type":"string","internalType":"string"}],"stateMutability":"view"},{"type":"function","name":"setDAO","inputs":[{"name":"_dao","type":"address","internalType":"address"}],"outputs":[],"stateMutability":"nonpayable"},{"type":"function","name":"setFakeMember","inputs":[{"name":"user","type":"address","internalType":"address"},{"name":"_exists","type":"bool","internalType":"bool"},{"name":"_role","type":"string","internalType":"string"},{"name":"_parent","type":"address","internalType":"address"}],"outputs":[],"stateMutability":"nonpayable"}],"bytecode":{"object":"0x6080604052600160065f6101000a81548160ff021916908315150217905550348015610029575f5ffd5b50335f5f6101000a81548173ffffffffffffffffffffffffffffffffffffffff021916908373ffffffffffffffffffffffffffffffffffffffff16021790555060405180606001604052806001151581526020016040518060400160405280600781526020017f666f756e6465720000000000000000000000000000000000000000000000000081525081526020015f73ffffffffffffffffffffffffffffffffffffffff1681525060045f3373ffffffffffffffffffffffffffffffffffffffff1673ffffffffffffffffffffffffffffffffffffffff1681526020019081526020015f205f820151815f015f6101000a81548160ff0219169083151502179055506020820151816001019081610141919061044d565b506040820151816002015f6101000a81548173ffffffffffffffffffffffffffffffffffffffff021916908373ffffffffffffffffffffffffffffffffffffffff1602179055509050506040518060400160405280600781526020017f666f756e6465720000000000000000000000000000000000000000000000000081525060035f3373ffffffffffffffffffffffffffffffffffffffff1673ffffffffffffffffffffffffffffffffffffffff1681526020019081526020015f20908161020a919061044d565b5061051c565b5f81519050919050565b7f4e487b71000000000000000000000000000000000000000000000000000000005f52604160045260245ffd5b7f4e487b71000000000000000000000000000000000000000000000000000000005f52602260045260245ffd5b5f600282049050600182168061028b57607f821691505b60208210810361029e5761029d610247565b5b50919050565b5f819050815f5260205f209050919050565b5f6020601f8301049050919050565b5f82821b905092915050565b5f600883026103007fffffffffffffffffffffffffffffffffffffffffffffffffffffffffffffffff826102c5565b61030a86836102c5565b95508019841693508086168417925050509392505050565b5f819050919050565b5f819050919050565b5f61034e61034961034484610322565b61032b565b610322565b9050919050565b5f819050919050565b61036783610334565b61037b61037382610355565b8484546102d1565b825550505050565b5f5f905090565b610392610383565b61039d81848461035e565b505050565b5b818110156103c0576103b55f8261038a565b6001810190506103a3565b5050565b601f821115610405576103d6816102a4565b6103df846102b6565b810160208510156103ee578190505b6104026103fa856102b6565b8301826103a2565b50505b505050565b5f82821c905092915050565b5f6104255f198460080261040a565b1980831691505092915050565b5f61043d8383610416565b9150826002028217905092915050565b61045682610210565b67ffffffffffffffff81111561046f5761046e61021a565b5b6104798254610274565b6104848282856103c4565b5f60209050601f8311600181146104b5575f84156104a3578287015190505b6104ad8582610432565b865550610514565b601f1984166104c3866102a4565b5f5b828110156104ea578489015182556001820191506020850194506020810190506104c5565b868310156105075784890151610503601f891682610416565b8355505b6001600288020188555050505b505050505050565b612004806105295f395ff3fe608060405234801561000f575f5ffd5b50600436106100fe575f3560e01c806382c9ce6011610095578063ca10bc8e11610064578063ca10bc8e146102f6578063e73a914c14610326578063eeb626e014610342578063f851a44014610360576100fe565b806382c9ce601461025e578063993746421461027a578063a9405923146102aa578063ba600d6e146102da576100fe565b80634162169f116100d15780634162169f146101b057806344276733146101ce5780634e94f499146101fe5780636999fa451461022e576100fe565b80630342da8a1461010257806308ae4b0c1461011e5780630fcc30811461015057806328ec14cc14610180575b5f5ffd5b61011c60048036038101906101179190611534565b61037e565b005b61013860048036038101906101339190611534565b61082c565b604051610147939291906115f8565b60405180910390f35b61016a60048036038101906101659190611534565b610903565b6040516101779190611634565b60405180910390f35b61019a60048036038101906101959190611534565b6109d0565b6040516101a79190611654565b60405180910390f35b6101b8610a24565b6040516101c5919061166d565b60405180910390f35b6101e860048036038101906101e39190611534565b610a49565b6040516101f59190611634565b60405180910390f35b610218600480360381019061021391906116b9565b610b16565b604051610225919061166d565b60405180910390f35b61024860048036038101906102439190611534565b610b5e565b60405161025591906117ae565b60405180910390f35b610278600480360381019061027391906118fa565b610c26565b005b610294600480360381019061028f9190611534565b611070565b6040516102a19190611634565b60405180910390f35b6102c460048036038101906102bf9190611534565b61110b565b6040516102d1919061166d565b60405180910390f35b6102f460048036038101906102ef91906119c0565b611173565b005b610310600480360381019061030b9190611534565b6112b0565b60405161031d9190611634565b60405180910390f35b610340600480360381019061033b9190611534565b61134b565b005b61034a61141d565b6040516103579190611654565b60405180910390f35b61036861142f565b604051610375919061166d565b60405180910390f35b60065f9054906101000a900460ff16806103e4575060015f9054906101000a900473ffffffffffffffffffffffffffffffffffffffff1673ffffffffffffffffffffffffffffffffffffffff163373ffffffffffffffffffffffffffffffffffffffff16145b610423576040517f08c379a000000000000000000000000000000000000000000000000000000000815260040161041a90611a8a565b60405180910390fd5b60045f8273ffffffffffffffffffffffffffffffffffffffff1673ffffffffffffffffffffffffffffffffffffffff1681526020019081526020015f205f015f9054906101000a900460ff166104ae576040517f08c379a00000000000000000000000000000000000000000000000000000000081526004016104a590611af2565b60405180910390fd5b5f60045f8373ffffffffffffffffffffffffffffffffffffffff1673ffffffffffffffffffffffffffffffffffffffff1681526020019081526020015f206002015f9054906101000a900473ffffffffffffffffffffffffffffffffffffffff1690505f60025f8373ffffffffffffffffffffffffffffffffffffffff1673ffffffffffffffffffffffffffffffffffffffff1681526020019081526020015f2090505f5f90505b81805490508110156106c7578373ffffffffffffffffffffffffffffffffffffffff1682828154811061058c5761058b611b10565b5b905f5260205f20015f9054906101000a900473ffffffffffffffffffffffffffffffffffffffff1673ffffffffffffffffffffffffffffffffffffffff16036106ba5781600183805490506105e19190611b6a565b815481106105f2576105f1611b10565b5b905f5260205f20015f9054906101000a900473ffffffffffffffffffffffffffffffffffffffff1682828154811061062d5761062c611b10565b5b905f5260205f20015f6101000a81548173ffffffffffffffffffffffffffffffffffffffff021916908373ffffffffffffffffffffffffffffffffffffffff1602179055508180548061068357610682611b9d565b5b600190038181905f5260205f20015f6101000a81549073ffffffffffffffffffffffffffffffffffffffff021916905590556106c7565b8080600101915050610556565b5060045f8473ffffffffffffffffffffffffffffffffffffffff1673ffffffffffffffffffffffffffffffffffffffff1681526020019081526020015f205f5f82015f6101000a81549060ff0219169055600182015f6107279190611453565b600282015f6101000a81549073ffffffffffffffffffffffffffffffffffffffff0219169055505060035f8473ffffffffffffffffffffffffffffffffffffffff1673ffffffffffffffffffffffffffffffffffffffff1681526020019081526020015f205f6107979190611453565b60025f8473ffffffffffffffffffffffffffffffffffffffff1673ffffffffffffffffffffffffffffffffffffffff1681526020019081526020015f205f6107df9190611490565b60055f8473ffffffffffffffffffffffffffffffffffffffff1673ffffffffffffffffffffffffffffffffffffffff1681526020019081526020015f205f6108279190611453565b505050565b6004602052805f5260405f205f91509050805f015f9054906101000a900460ff169080600101805461085d90611bf7565b80601f016020809104026020016040519081016040528092919081815260200182805461088990611bf7565b80156108d45780601f106108ab576101008083540402835291602001916108d4565b820191905f5260205f20905b8154815290600101906020018083116108b757829003601f168201915b505050505090806002015f9054906101000a900473ffffffffffffffffffffffffffffffffffffffff16905083565b606060055f8373ffffffffffffffffffffffffffffffffffffffff1673ffffffffffffffffffffffffffffffffffffffff1681526020019081526020015f20805461094d90611bf7565b80601f016020809104026020016040519081016040528092919081815260200182805461097990611bf7565b80156109c45780601f1061099b576101008083540402835291602001916109c4565b820191905f5260205f20905b8154815290600101906020018083116109a757829003601f168201915b50505050509050919050565b5f60045f8373ffffffffffffffffffffffffffffffffffffffff1673ffffffffffffffffffffffffffffffffffffffff1681526020019081526020015f205f015f9054906101000a900460ff169050919050565b60015f9054906101000a900473ffffffffffffffffffffffffffffffffffffffff1681565b606060035f8373ffffffffffffffffffffffffffffffffffffffff1673ffffffffffffffffffffffffffffffffffffffff1681526020019081526020015f208054610a9390611bf7565b80601f0160208091040260200160405190810160405280929190818152602001828054610abf90611bf7565b8015610b0a5780601f10610ae157610100808354040283529160200191610b0a565b820191905f5260205f20905b815481529060010190602001808311610aed57829003601f168201915b50505050509050919050565b6002602052815f5260405f208181548110610b2f575f80fd5b905f5260205f20015f915091509054906101000a900473ffffffffffffffffffffffffffffffffffffffff1681565b606060025f8373ffffffffffffffffffffffffffffffffffffffff1673ffffffffffffffffffffffffffffffffffffffff1681526020019081526020015f20805480602002602001604051908101604052809291908181526020018280548015610c1a57602002820191905f5260205f20905b815f9054906101000a900473ffffffffffffffffffffffffffffffffffffffff1673ffffffffffffffffffffffffffffffffffffffff1681526020019060010190808311610bd1575b50505050509050919050565b60065f9054906101000a900460ff1680610c8c575060015f9054906101000a900473ffffffffffffffffffffffffffffffffffffffff1673ffffffffffffffffffffffffffffffffffffffff163373ffffffffffffffffffffffffffffffffffffffff16145b610ccb576040517f08c379a0000000000000000000000000000000000000000000000000000000008152600401610cc290611a8a565b60405180910390fd5b60045f8573ffffffffffffffffffffffffffffffffffffffff1673ffffffffffffffffffffffffffffffffffffffff1681526020019081526020015f205f015f9054906101000a900460ff1615610d57576040517f08c379a0000000000000000000000000000000000000000000000000000000008152600401610d4e90611c71565b60405180910390fd5b60045f8473ffffffffffffffffffffffffffffffffffffffff1673ffffffffffffffffffffffffffffffffffffffff1681526020019081526020015f205f015f9054906101000a900460ff1680610dd957505f73ffffffffffffffffffffffffffffffffffffffff168373ffffffffffffffffffffffffffffffffffffffff16145b610e18576040517f08c379a0000000000000000000000000000000000000000000000000000000008152600401610e0f90611cd9565b60405180910390fd5b60405180606001604052806001151581526020018381526020018473ffffffffffffffffffffffffffffffffffffffff1681525060045f8673ffffffffffffffffffffffffffffffffffffffff1673ffffffffffffffffffffffffffffffffffffffff1681526020019081526020015f205f820151815f015f6101000a81548160ff0219169083151502179055506020820151816001019081610ebb9190611e97565b506040820151816002015f6101000a81548173ffffffffffffffffffffffffffffffffffffffff021916908373ffffffffffffffffffffffffffffffffffffffff1602179055509050508160035f8673ffffffffffffffffffffffffffffffffffffffff1673ffffffffffffffffffffffffffffffffffffffff1681526020019081526020015f209081610f4f9190611e97565b508060055f8673ffffffffffffffffffffffffffffffffffffffff1673ffffffffffffffffffffffffffffffffffffffff1681526020019081526020015f209081610f9a9190611e97565b505f73ffffffffffffffffffffffffffffffffffffffff168373ffffffffffffffffffffffffffffffffffffffff161461106a5760025f8473ffffffffffffffffffffffffffffffffffffffff1673ffffffffffffffffffffffffffffffffffffffff1681526020019081526020015f2084908060018154018082558091505060019003905f5260205f20015f9091909190916101000a81548173ffffffffffffffffffffffffffffffffffffffff021916908373ffffffffffffffffffffffffffffffffffffffff1602179055505b50505050565b6003602052805f5260405f205f91509050805461108c90611bf7565b80601f01602080910402602001604051908101604052809291908181526020018280546110b890611bf7565b80156111035780601f106110da57610100808354040283529160200191611103565b820191905f5260205f20905b8154815290600101906020018083116110e657829003601f168201915b505050505081565b5f60045f8373ffffffffffffffffffffffffffffffffffffffff1673ffffffffffffffffffffffffffffffffffffffff1681526020019081526020015f206002015f9054906101000a900473ffffffffffffffffffffffffffffffffffffffff169050919050565b604051806060016040528084151581526020018381526020018273ffffffffffffffffffffffffffffffffffffffff1681525060045f8673ffffffffffffffffffffffffffffffffffffffff1673ffffffffffffffffffffffffffffffffffffffff1681526020019081526020015f205f820151815f015f6101000a81548160ff02191690831515021790555060208201518160010190816112159190611e97565b506040820151816002015f6101000a81548173ffffffffffffffffffffffffffffffffffffffff021916908373ffffffffffffffffffffffffffffffffffffffff1602179055509050508160035f8673ffffffffffffffffffffffffffffffffffffffff1673ffffffffffffffffffffffffffffffffffffffff1681526020019081526020015f2090816112a99190611e97565b5050505050565b6005602052805f5260405f205f9150905080546112cc90611bf7565b80601f01602080910402602001604051908101604052809291908181526020018280546112f890611bf7565b80156113435780601f1061131a57610100808354040283529160200191611343565b820191905f5260205f20905b81548152906001019060200180831161132657829003601f168201915b505050505081565b5f73ffffffffffffffffffffffffffffffffffffffff1660015f9054906101000a900473ffffffffffffffffffffffffffffffffffffffff1673ffffffffffffffffffffffffffffffffffffffff16146113da576040517f08c379a00000000000000000000000000000000000000000000000000000000081526004016113d190611fb0565b60405180910390fd5b8060015f6101000a81548173ffffffffffffffffffffffffffffffffffffffff021916908373ffffffffffffffffffffffffffffffffffffffff16021790555050565b60065f9054906101000a900460ff1681565b5f5f9054906101000a900473ffffffffffffffffffffffffffffffffffffffff1681565b50805461145f90611bf7565b5f825580601f10611470575061148d565b601f0160209004905f5260205f209081019061148c91906114ae565b5b50565b5080545f8255905f5260205f20908101906114ab91906114ae565b50565b5b808211156114c5575f815f9055506001016114af565b5090565b5f604051905090565b5f5ffd5b5f5ffd5b5f73ffffffffffffffffffffffffffffffffffffffff82169050919050565b5f611503826114da565b9050919050565b611513816114f9565b811461151d575f5ffd5b50565b5f8135905061152e8161150a565b92915050565b5f60208284031215611549576115486114d2565b5b5f61155684828501611520565b91505092915050565b5f8115159050919050565b6115738161155f565b82525050565b5f81519050919050565b5f82825260208201905092915050565b8281835e5f83830152505050565b5f601f19601f8301169050919050565b5f6115bb82611579565b6115c58185611583565b93506115d5818560208601611593565b6115de816115a1565b840191505092915050565b6115f2816114f9565b82525050565b5f60608201905061160b5f83018661156a565b818103602083015261161d81856115b1565b905061162c60408301846115e9565b949350505050565b5f6020820190508181035f83015261164c81846115b1565b905092915050565b5f6020820190506116675f83018461156a565b92915050565b5f6020820190506116805f8301846115e9565b92915050565b5f819050919050565b61169881611686565b81146116a2575f5ffd5b50565b5f813590506116b38161168f565b92915050565b5f5f604083850312156116cf576116ce6114d2565b5b5f6116dc85828601611520565b92505060206116ed858286016116a5565b9150509250929050565b5f81519050919050565b5f82825260208201905092915050565b5f819050602082019050919050565b611729816114f9565b82525050565b5f61173a8383611720565b60208301905092915050565b5f602082019050919050565b5f61175c826116f7565b6117668185611701565b935061177183611711565b805f5b838110156117a1578151611788888261172f565b975061179383611746565b925050600181019050611774565b5085935050505092915050565b5f6020820190508181035f8301526117c68184611752565b905092915050565b5f5ffd5b5f5ffd5b7f4e487b71000000000000000000000000000000000000000000000000000000005f52604160045260245ffd5b61180c826115a1565b810181811067ffffffffffffffff8211171561182b5761182a6117d6565b5b80604052505050565b5f61183d6114c9565b90506118498282611803565b919050565b5f67ffffffffffffffff821115611868576118676117d6565b5b611871826115a1565b9050602081019050919050565b828183375f83830152505050565b5f61189e6118998461184e565b611834565b9050828152602081018484840111156118ba576118b96117d2565b5b6118c584828561187e565b509392505050565b5f82601f8301126118e1576118e06117ce565b5b81356118f184826020860161188c565b91505092915050565b5f5f5f5f60808587031215611912576119116114d2565b5b5f61191f87828801611520565b945050602061193087828801611520565b935050604085013567ffffffffffffffff811115611951576119506114d6565b5b61195d878288016118cd565b925050606085013567ffffffffffffffff81111561197e5761197d6114d6565b5b61198a878288016118cd565b91505092959194509250565b61199f8161155f565b81146119a9575f5ffd5b50565b5f813590506119ba81611996565b92915050565b5f5f5f5f608085870312156119d8576119d76114d2565b5b5f6119e587828801611520565b94505060206119f6878288016119ac565b935050604085013567ffffffffffffffff811115611a1757611a166114d6565b5b611a23878288016118cd565b9250506060611a3487828801611520565b91505092959194509250565b7f4f6e6c792044414f2063616e2063616c6c2074686973000000000000000000005f82015250565b5f611a74601683611583565b9150611a7f82611a40565b602082019050919050565b5f6020820190508181035f830152611aa181611a68565b9050919050565b7f4d656d626572206e6f7420666f756e64000000000000000000000000000000005f82015250565b5f611adc601083611583565b9150611ae782611aa8565b602082019050919050565b5f6020820190508181035f830152611b0981611ad0565b9050919050565b7f4e487b71000000000000000000000000000000000000000000000000000000005f52603260045260245ffd5b7f4e487b71000000000000000000000000000000000000000000000000000000005f52601160045260245ffd5b5f611b7482611686565b9150611b7f83611686565b9250828203905081811115611b9757611b96611b3d565b5b92915050565b7f4e487b71000000000000000000000000000000000000000000000000000000005f52603160045260245ffd5b7f4e487b71000000000000000000000000000000000000000000000000000000005f52602260045260245ffd5b5f6002820490506001821680611c0e57607f821691505b602082108103611c2157611c20611bca565b5b50919050565b7f416c7265616479206164646564000000000000000000000000000000000000005f82015250565b5f611c5b600d83611583565b9150611c6682611c27565b602082019050919050565b5f6020820190508181035f830152611c8881611c4f565b9050919050565b7f506172656e74206e6f7420666f756e64000000000000000000000000000000005f82015250565b5f611cc3601083611583565b9150611cce82611c8f565b602082019050919050565b5f6020820190508181035f830152611cf081611cb7565b9050919050565b5f819050815f5260205f209050919050565b5f6020601f8301049050919050565b5f82821b905092915050565b5f60088302611d537fffffffffffffffffffffffffffffffffffffffffffffffffffffffffffffffff82611d18565b611d5d8683611d18565b95508019841693508086168417925050509392505050565b5f819050919050565b5f611d98611d93611d8e84611686565b611d75565b611686565b9050919050565b5f819050919050565b611db183611d7e565b611dc5611dbd82611d9f565b848454611d24565b825550505050565b5f5f905090565b611ddc611dcd565b611de7818484611da8565b505050565b5b81811015611e0a57611dff5f82611dd4565b600181019050611ded565b5050565b601f821115611e4f57611e2081611cf7565b611e2984611d09565b81016020851015611e38578190505b611e4c611e4485611d09565b830182611dec565b50505b505050565b5f82821c905092915050565b5f611e6f5f1984600802611e54565b1980831691505092915050565b5f611e878383611e60565b9150826002028217905092915050565b611ea082611579565b67ffffffffffffffff811115611eb957611eb86117d6565b5b611ec38254611bf7565b611ece828285611e0e565b5f60209050601f831160018114611eff575f8415611eed578287015190505b611ef78582611e7c565b865550611f5e565b601f198416611f0d86611cf7565b5f5b82811015611f3457848901518255600182019150602085019450602081019050611f0f565b86831015611f515784890151611f4d601f891682611e60565b8355505b6001600288020188555050505b505050505050565b7f44414f20616c72656164792073657400000000000000000000000000000000005f82015250565b5f611f9a600f83611583565b9150611fa582611f66565b602082019050919050565b5f6020820190508181035f830152611fc781611f8e565b905091905056fea264697066735822122016368abfb34792ea52930c2c864272ce15d72ecd2e09f1151d851d98c2d909bb64736f6c634300081c0033","linkReferences":{}},"methodIdentifiers":{"IS_TESTENV()":"eeb626e0","addFamilyMember(address,address,string,string)":"82c9ce60","admin()":"f851a440","children(address,uint256)":"4e94f499","dao()":"4162169f","getChildren(address)":"6999fa45","getMetadataURI(address)":"0fcc3081","getParent(address)":"a9405923","getRole(address)":"44276733","isFamilyMember(address)":"28ec14cc","members(address)":"08ae4b0c","metadataURIs(address)":"ca10bc8e","removeFamilyMember(address)":"0342da8a","roles(address)":"99374642","setDAO(address)":"e73a914c","setFakeMember(address,bool,string,address)":"ba600d6e"},"id":41}