{"abi":[{"type":"constructor","inputs":[],"stateMutability":"nonpayable"},{"type":"function","name":"IS_TESTENV","inputs":[],"outputs":[{"name":"","type":"bool","internalType":"bool"}],"stateMutability":"view"},{"type":"function","name":"addFamilyMember","inputs":[{"name":"newMember","type":"address","internalType":"address"},{"name":"parent","type":"address","internalType":"address"},{"name":"role","type":"string","internalType":"string"}],"outputs":[],"stateMutability":"nonpayable"},{"type":"function","name":"admin","inputs":[],"outputs":[{"name":"","type":"address","internalType":"address"}],"stateMutability":"view"},{"type":"function","name":"children","inputs":[{"name":"","type":"address","internalType":"address"},{"name":"","type":"uint256","internalType":"uint256"}],"outputs":[{"name":"","type":"address","internalType":"address"}],"stateMutability":"view"},{"type":"function","name":"dao","inputs":[],"outputs":[{"name":"","type":"address","internalType":"address"}],"stateMutability":"view"},{"type":"function","name":"getChildren","inputs":[{"name":"person","type":"address","internalType":"address"}],"outputs":[{"name":"","type":"address[]","internalType":"address[]"}],"stateMutability":"view"},{"type":"function","name":"getParent","inputs":[{"name":"person","type":"address","internalType":"address"}],"outputs":[{"name":"","type":"address","internalType":"address"}],"stateMutability":"view"},{"type":"function","name":"getRole","inputs":[{"name":"person","type":"address","internalType":"address"}],"outputs":[{"name":"","type":"string","internalType":"string"}],"stateMutability":"view"},{"type":"function","name":"isFamilyMember","inputs":[{"name":"addr","type":"address","internalType":"address"}],"outputs":[{"name":"","type":"bool","internalType":"bool"}],"stateMutability":"view"},{"type":"function","name":"members","inputs":[{"name":"","type":"address","internalType":"address"}],"outputs":[{"name":"exists","type":"bool","internalType":"bool"},{"name":"role","type":"string","internalType":"string"},{"name":"parent","type":"address","internalType":"address"}],"stateMutability":"view"},{"type":"function","name":"removeFamilyMember","inputs":[{"name":"member","type":"address","internalType":"address"}],"outputs":[],"stateMutability":"nonpayable"},{"type":"function","name":"roles","inputs":[{"name":"","type":"address","internalType":"address"}],"outputs":[{"name":"","type":"string","internalType":"string"}],"stateMutability":"view"},{"type":"function","name":"setDAO","inputs":[{"name":"_dao","type":"address","internalType":"address"}],"outputs":[],"stateMutability":"nonpayable"},{"type":"function","name":"setFakeMember","inputs":[{"name":"user","type":"address","internalType":"address"},{"name":"_exists","type":"bool","internalType":"bool"},{"name":"_role","type":"string","internalType":"string"},{"name":"_parent","type":"address","internalType":"address"}],"outputs":[],"stateMutability":"nonpayable"}],"bytecode":{"object":"0x6080604052600160055f6101000a81548160ff021916908315150217905550348015610029575f5ffd5b50335f5f6101000a81548173ffffffffffffffffffffffffffffffffffffffff021916908373ffffffffffffffffffffffffffffffffffffffff16021790555060405180606001604052806001151581526020016040518060400160405280600781526020017f666f756e6465720000000000000000000000000000000000000000000000000081525081526020015f73ffffffffffffffffffffffffffffffffffffffff1681525060045f3373ffffffffffffffffffffffffffffffffffffffff1673ffffffffffffffffffffffffffffffffffffffff1681526020019081526020015f205f820151815f015f6101000a81548160ff0219169083151502179055506020820151816001019081610141919061044d565b506040820151816002015f6101000a81548173ffffffffffffffffffffffffffffffffffffffff021916908373ffffffffffffffffffffffffffffffffffffffff1602179055509050506040518060400160405280600781526020017f666f756e6465720000000000000000000000000000000000000000000000000081525060035f3373ffffffffffffffffffffffffffffffffffffffff1673ffffffffffffffffffffffffffffffffffffffff1681526020019081526020015f20908161020a919061044d565b5061051c565b5f81519050919050565b7f4e487b71000000000000000000000000000000000000000000000000000000005f52604160045260245ffd5b7f4e487b71000000000000000000000000000000000000000000000000000000005f52602260045260245ffd5b5f600282049050600182168061028b57607f821691505b60208210810361029e5761029d610247565b5b50919050565b5f819050815f5260205f209050919050565b5f6020601f8301049050919050565b5f82821b905092915050565b5f600883026103007fffffffffffffffffffffffffffffffffffffffffffffffffffffffffffffffff826102c5565b61030a86836102c5565b95508019841693508086168417925050509392505050565b5f819050919050565b5f819050919050565b5f61034e61034961034484610322565b61032b565b610322565b9050919050565b5f819050919050565b61036783610334565b61037b61037382610355565b8484546102d1565b825550505050565b5f5f905090565b610392610383565b61039d81848461035e565b505050565b5b818110156103c0576103b55f8261038a565b6001810190506103a3565b5050565b601f821115610405576103d6816102a4565b6103df846102b6565b810160208510156103ee578190505b6104026103fa856102b6565b8301826103a2565b50505b505050565b5f82821c905092915050565b5f6104255f198460080261040a565b1980831691505092915050565b5f61043d8383610416565b9150826002028217905092915050565b61045682610210565b67ffffffffffffffff81111561046f5761046e61021a565b5b6104798254610274565b6104848282856103c4565b5f60209050601f8311600181146104b5575f84156104a3578287015190505b6104ad8582610432565b865550610514565b601f1984166104c3866102a4565b5f5b828110156104ea578489015182556001820191506020850194506020810190506104c5565b868310156105075784890151610503601f891682610416565b8355505b6001600288020188555050505b505050505050565b611bfd806105295f395ff3fe608060405234801561000f575f5ffd5b50600436106100e8575f3560e01c80636999fa451161008a578063ba600d6e11610064578063ba600d6e14610294578063e73a914c146102b0578063eeb626e0146102cc578063f851a440146102ea576100e8565b80636999fa45146102045780639937464214610234578063a940592314610264576100e8565b80633bfbc8ff116100c65780633bfbc8ff1461016a5780634162169f1461018657806344276733146101a45780634e94f499146101d4576100e8565b80630342da8a146100ec57806308ae4b0c1461010857806328ec14cc1461013a575b5f5ffd5b6101066004803603810190610101919061115d565b610308565b005b610122600480360381019061011d919061115d565b61076e565b60405161013193929190611221565b60405180910390f35b610154600480360381019061014f919061115d565b610845565b604051610161919061125d565b60405180910390f35b610184600480360381019061017f91906113a2565b610899565b005b61018e610b7d565b60405161019b919061140e565b60405180910390f35b6101be60048036038101906101b9919061115d565b610ba2565b6040516101cb9190611427565b60405180910390f35b6101ee60048036038101906101e9919061147a565b610c6f565b6040516101fb919061140e565b60405180910390f35b61021e6004803603810190610219919061115d565b610cb7565b60405161022b919061156f565b60405180910390f35b61024e6004803603810190610249919061115d565b610d7f565b60405161025b9190611427565b60405180910390f35b61027e6004803603810190610279919061115d565b610e1a565b60405161028b919061140e565b60405180910390f35b6102ae60048036038101906102a991906115b9565b610e82565b005b6102ca60048036038101906102c5919061115d565b610f74565b005b6102d4611046565b6040516102e1919061125d565b60405180910390f35b6102f2611058565b6040516102ff919061140e565b60405180910390f35b60055f9054906101000a900460ff168061036e575060015f9054906101000a900473ffffffffffffffffffffffffffffffffffffffff1673ffffffffffffffffffffffffffffffffffffffff163373ffffffffffffffffffffffffffffffffffffffff16145b6103ad576040517f08c379a00000000000000000000000000000000000000000000000000000000081526004016103a490611683565b60405180910390fd5b60045f8273ffffffffffffffffffffffffffffffffffffffff1673ffffffffffffffffffffffffffffffffffffffff1681526020019081526020015f205f015f9054906101000a900460ff16610438576040517f08c379a000000000000000000000000000000000000000000000000000000000815260040161042f906116eb565b60405180910390fd5b5f60045f8373ffffffffffffffffffffffffffffffffffffffff1673ffffffffffffffffffffffffffffffffffffffff1681526020019081526020015f206002015f9054906101000a900473ffffffffffffffffffffffffffffffffffffffff1690505f60025f8373ffffffffffffffffffffffffffffffffffffffff1673ffffffffffffffffffffffffffffffffffffffff1681526020019081526020015f2090505f5f90505b8180549050811015610651578373ffffffffffffffffffffffffffffffffffffffff1682828154811061051657610515611709565b5b905f5260205f20015f9054906101000a900473ffffffffffffffffffffffffffffffffffffffff1673ffffffffffffffffffffffffffffffffffffffff160361064457816001838054905061056b9190611763565b8154811061057c5761057b611709565b5b905f5260205f20015f9054906101000a900473ffffffffffffffffffffffffffffffffffffffff168282815481106105b7576105b6611709565b5b905f5260205f20015f6101000a81548173ffffffffffffffffffffffffffffffffffffffff021916908373ffffffffffffffffffffffffffffffffffffffff1602179055508180548061060d5761060c611796565b5b600190038181905f5260205f20015f6101000a81549073ffffffffffffffffffffffffffffffffffffffff02191690559055610651565b80806001019150506104e0565b5060045f8473ffffffffffffffffffffffffffffffffffffffff1673ffffffffffffffffffffffffffffffffffffffff1681526020019081526020015f205f5f82015f6101000a81549060ff0219169055600182015f6106b1919061107c565b600282015f6101000a81549073ffffffffffffffffffffffffffffffffffffffff0219169055505060035f8473ffffffffffffffffffffffffffffffffffffffff1673ffffffffffffffffffffffffffffffffffffffff1681526020019081526020015f205f610721919061107c565b60025f8473ffffffffffffffffffffffffffffffffffffffff1673ffffffffffffffffffffffffffffffffffffffff1681526020019081526020015f205f61076991906110b9565b505050565b6004602052805f5260405f205f91509050805f015f9054906101000a900460ff169080600101805461079f906117f0565b80601f01602080910402602001604051908101604052809291908181526020018280546107cb906117f0565b80156108165780601f106107ed57610100808354040283529160200191610816565b820191905f5260205f20905b8154815290600101906020018083116107f957829003601f168201915b505050505090806002015f9054906101000a900473ffffffffffffffffffffffffffffffffffffffff16905083565b5f60045f8373ffffffffffffffffffffffffffffffffffffffff1673ffffffffffffffffffffffffffffffffffffffff1681526020019081526020015f205f015f9054906101000a900460ff169050919050565b60055f9054906101000a900460ff16806108ff575060015f9054906101000a900473ffffffffffffffffffffffffffffffffffffffff1673ffffffffffffffffffffffffffffffffffffffff163373ffffffffffffffffffffffffffffffffffffffff16145b61093e576040517f08c379a000000000000000000000000000000000000000000000000000000000815260040161093590611683565b60405180910390fd5b60045f8473ffffffffffffffffffffffffffffffffffffffff1673ffffffffffffffffffffffffffffffffffffffff1681526020019081526020015f205f015f9054906101000a900460ff16156109ca576040517f08c379a00000000000000000000000000000000000000000000000000000000081526004016109c19061186a565b60405180910390fd5b60045f8373ffffffffffffffffffffffffffffffffffffffff1673ffffffffffffffffffffffffffffffffffffffff1681526020019081526020015f205f015f9054906101000a900460ff1680610a4c57505f73ffffffffffffffffffffffffffffffffffffffff168273ffffffffffffffffffffffffffffffffffffffff16145b610a8b576040517f08c379a0000000000000000000000000000000000000000000000000000000008152600401610a82906118d2565b60405180910390fd5b60405180606001604052806001151581526020018281526020018373ffffffffffffffffffffffffffffffffffffffff1681525060045f8573ffffffffffffffffffffffffffffffffffffffff1673ffffffffffffffffffffffffffffffffffffffff1681526020019081526020015f205f820151815f015f6101000a81548160ff0219169083151502179055506020820151816001019081610b2e9190611a90565b506040820151816002015f6101000a81548173ffffffffffffffffffffffffffffffffffffffff021916908373ffffffffffffffffffffffffffffffffffffffff160217905550905050505050565b60015f9054906101000a900473ffffffffffffffffffffffffffffffffffffffff1681565b606060035f8373ffffffffffffffffffffffffffffffffffffffff1673ffffffffffffffffffffffffffffffffffffffff1681526020019081526020015f208054610bec906117f0565b80601f0160208091040260200160405190810160405280929190818152602001828054610c18906117f0565b8015610c635780601f10610c3a57610100808354040283529160200191610c63565b820191905f5260205f20905b815481529060010190602001808311610c4657829003601f168201915b50505050509050919050565b6002602052815f5260405f208181548110610c88575f80fd5b905f5260205f20015f915091509054906101000a900473ffffffffffffffffffffffffffffffffffffffff1681565b606060025f8373ffffffffffffffffffffffffffffffffffffffff1673ffffffffffffffffffffffffffffffffffffffff1681526020019081526020015f20805480602002602001604051908101604052809291908181526020018280548015610d7357602002820191905f5260205f20905b815f9054906101000a900473ffffffffffffffffffffffffffffffffffffffff1673ffffffffffffffffffffffffffffffffffffffff1681526020019060010190808311610d2a575b50505050509050919050565b6003602052805f5260405f205f915090508054610d9b906117f0565b80601f0160208091040260200160405190810160405280929190818152602001828054610dc7906117f0565b8015610e125780601f10610de957610100808354040283529160200191610e12565b820191905f5260205f20905b815481529060010190602001808311610df557829003601f168201915b505050505081565b5f60045f8373ffffffffffffffffffffffffffffffffffffffff1673ffffffffffffffffffffffffffffffffffffffff1681526020019081526020015f206002015f9054906101000a900473ffffffffffffffffffffffffffffffffffffffff169050919050565b604051806060016040528084151581526020018381526020018273ffffffffffffffffffffffffffffffffffffffff1681525060045f8673ffffffffffffffffffffffffffffffffffffffff1673ffffffffffffffffffffffffffffffffffffffff1681526020019081526020015f205f820151815f015f6101000a81548160ff0219169083151502179055506020820151816001019081610f249190611a90565b506040820151816002015f6101000a81548173ffffffffffffffffffffffffffffffffffffffff021916908373ffffffffffffffffffffffffffffffffffffffff16021790555090505050505050565b5f73ffffffffffffffffffffffffffffffffffffffff1660015f9054906101000a900473ffffffffffffffffffffffffffffffffffffffff1673ffffffffffffffffffffffffffffffffffffffff1614611003576040517f08c379a0000000000000000000000000000000000000000000000000000000008152600401610ffa90611ba9565b60405180910390fd5b8060015f6101000a81548173ffffffffffffffffffffffffffffffffffffffff021916908373ffffffffffffffffffffffffffffffffffffffff16021790555050565b60055f9054906101000a900460ff1681565b5f5f9054906101000a900473ffffffffffffffffffffffffffffffffffffffff1681565b508054611088906117f0565b5f825580601f1061109957506110b6565b601f0160209004905f5260205f20908101906110b591906110d7565b5b50565b5080545f8255905f5260205f20908101906110d491906110d7565b50565b5b808211156110ee575f815f9055506001016110d8565b5090565b5f604051905090565b5f5ffd5b5f5ffd5b5f73ffffffffffffffffffffffffffffffffffffffff82169050919050565b5f61112c82611103565b9050919050565b61113c81611122565b8114611146575f5ffd5b50565b5f8135905061115781611133565b92915050565b5f60208284031215611172576111716110fb565b5b5f61117f84828501611149565b91505092915050565b5f8115159050919050565b61119c81611188565b82525050565b5f81519050919050565b5f82825260208201905092915050565b8281835e5f83830152505050565b5f601f19601f8301169050919050565b5f6111e4826111a2565b6111ee81856111ac565b93506111fe8185602086016111bc565b611207816111ca565b840191505092915050565b61121b81611122565b82525050565b5f6060820190506112345f830186611193565b818103602083015261124681856111da565b90506112556040830184611212565b949350505050565b5f6020820190506112705f830184611193565b92915050565b5f5ffd5b5f5ffd5b7f4e487b71000000000000000000000000000000000000000000000000000000005f52604160045260245ffd5b6112b4826111ca565b810181811067ffffffffffffffff821117156112d3576112d261127e565b5b80604052505050565b5f6112e56110f2565b90506112f182826112ab565b919050565b5f67ffffffffffffffff8211156113105761130f61127e565b5b611319826111ca565b9050602081019050919050565b828183375f83830152505050565b5f611346611341846112f6565b6112dc565b9050828152602081018484840111156113625761136161127a565b5b61136d848285611326565b509392505050565b5f82601f83011261138957611388611276565b5b8135611399848260208601611334565b91505092915050565b5f5f5f606084860312156113b9576113b86110fb565b5b5f6113c686828701611149565b93505060206113d786828701611149565b925050604084013567ffffffffffffffff8111156113f8576113f76110ff565b5b61140486828701611375565b9150509250925092565b5f6020820190506114215f830184611212565b92915050565b5f6020820190508181035f83015261143f81846111da565b905092915050565b5f819050919050565b61145981611447565b8114611463575f5ffd5b50565b5f8135905061147481611450565b92915050565b5f5f604083850312156114905761148f6110fb565b5b5f61149d85828601611149565b92505060206114ae85828601611466565b9150509250929050565b5f81519050919050565b5f82825260208201905092915050565b5f819050602082019050919050565b6114ea81611122565b82525050565b5f6114fb83836114e1565b60208301905092915050565b5f602082019050919050565b5f61151d826114b8565b61152781856114c2565b9350611532836114d2565b805f5b8381101561156257815161154988826114f0565b975061155483611507565b925050600181019050611535565b5085935050505092915050565b5f6020820190508181035f8301526115878184611513565b905092915050565b61159881611188565b81146115a2575f5ffd5b50565b5f813590506115b38161158f565b92915050565b5f5f5f5f608085870312156115d1576115d06110fb565b5b5f6115de87828801611149565b94505060206115ef878288016115a5565b935050604085013567ffffffffffffffff8111156116105761160f6110ff565b5b61161c87828801611375565b925050606061162d87828801611149565b91505092959194509250565b7f4f6e6c792044414f2063616e2063616c6c2074686973000000000000000000005f82015250565b5f61166d6016836111ac565b915061167882611639565b602082019050919050565b5f6020820190508181035f83015261169a81611661565b9050919050565b7f4d656d626572206e6f7420666f756e64000000000000000000000000000000005f82015250565b5f6116d56010836111ac565b91506116e0826116a1565b602082019050919050565b5f6020820190508181035f830152611702816116c9565b9050919050565b7f4e487b71000000000000000000000000000000000000000000000000000000005f52603260045260245ffd5b7f4e487b71000000000000000000000000000000000000000000000000000000005f52601160045260245ffd5b5f61176d82611447565b915061177883611447565b92508282039050818111156117905761178f611736565b5b92915050565b7f4e487b71000000000000000000000000000000000000000000000000000000005f52603160045260245ffd5b7f4e487b71000000000000000000000000000000000000000000000000000000005f52602260045260245ffd5b5f600282049050600182168061180757607f821691505b60208210810361181a576118196117c3565b5b50919050565b7f416c7265616479206164646564000000000000000000000000000000000000005f82015250565b5f611854600d836111ac565b915061185f82611820565b602082019050919050565b5f6020820190508181035f83015261188181611848565b9050919050565b7f506172656e74206e6f7420666f756e64000000000000000000000000000000005f82015250565b5f6118bc6010836111ac565b91506118c782611888565b602082019050919050565b5f6020820190508181035f8301526118e9816118b0565b9050919050565b5f819050815f5260205f209050919050565b5f6020601f8301049050919050565b5f82821b905092915050565b5f6008830261194c7fffffffffffffffffffffffffffffffffffffffffffffffffffffffffffffffff82611911565b6119568683611911565b95508019841693508086168417925050509392505050565b5f819050919050565b5f61199161198c61198784611447565b61196e565b611447565b9050919050565b5f819050919050565b6119aa83611977565b6119be6119b682611998565b84845461191d565b825550505050565b5f5f905090565b6119d56119c6565b6119e08184846119a1565b505050565b5b81811015611a03576119f85f826119cd565b6001810190506119e6565b5050565b601f821115611a4857611a19816118f0565b611a2284611902565b81016020851015611a31578190505b611a45611a3d85611902565b8301826119e5565b50505b505050565b5f82821c905092915050565b5f611a685f1984600802611a4d565b1980831691505092915050565b5f611a808383611a59565b9150826002028217905092915050565b611a99826111a2565b67ffffffffffffffff811115611ab257611ab161127e565b5b611abc82546117f0565b611ac7828285611a07565b5f60209050601f831160018114611af8575f8415611ae6578287015190505b611af08582611a75565b865550611b57565b601f198416611b06866118f0565b5f5b82811015611b2d57848901518255600182019150602085019450602081019050611b08565b86831015611b4a5784890151611b46601f891682611a59565b8355505b6001600288020188555050505b505050505050565b7f44414f20616c72656164792073657400000000000000000000000000000000005f82015250565b5f611b93600f836111ac565b9150611b9e82611b5f565b602082019050919050565b5f6020820190508181035f830152611bc081611b87565b905091905056fea26469706673582212205b6bb48ca67ae132a76b0b0dea954543a445a9c36a69ab85302f9191727e2d0b64736f6c634300081c0033","linkReferences":{}},"methodIdentifiers":{"IS_TESTENV()":"eeb626e0","addFamilyMember(address,address,string)":"3bfbc8ff","admin()":"f851a440","children(address,uint256)":"4e94f499","dao()":"4162169f","getChildren(address)":"6999fa45","getParent(address)":"a9405923","getRole(address)":"44276733","isFamilyMember(address)":"28ec14cc","members(address)":"08ae4b0c","removeFamilyMember(address)":"0342da8a","roles(address)":"99374642","setDAO(address)":"e73a914c","setFakeMember(address,bool,string,address)":"ba600d6e"},"id":43}