{"abi":[{"type":"constructor","inputs":[{"name":"nftAddress","type":"address","internalType":"address"},{"name":"_registry","type":"address","internalType":"contract FamilyRegistry"}],"stateMutability":"nonpayable"},{"type":"function","name":"createProposal","inputs":[{"name":"description","type":"string","internalType":"string"}],"outputs":[{"name":"","type":"uint256","internalType":"uint256"}],"stateMutability":"nonpayable"},{"type":"function","name":"executeProposal","inputs":[{"name":"proposalId","type":"uint256","internalType":"uint256"}],"outputs":[],"stateMutability":"nonpayable"},{"type":"function","name":"familyNFT","inputs":[],"outputs":[{"name":"","type":"address","internalType":"contract FamilyNFT"}],"stateMutability":"view"},{"type":"function","name":"proposalCount","inputs":[],"outputs":[{"name":"","type":"uint256","internalType":"uint256"}],"stateMutability":"view"},{"type":"function","name":"proposals","inputs":[{"name":"","type":"uint256","internalType":"uint256"}],"outputs":[{"name":"id","type":"uint256","internalType":"uint256"},{"name":"proposer","type":"address","internalType":"address"},{"name":"description","type":"string","internalType":"string"},{"name":"votesFor","type":"uint256","internalType":"uint256"},{"name":"votesAgainst","type":"uint256","internalType":"uint256"},{"name":"deadline","type":"uint256","internalType":"uint256"},{"name":"executed","type":"bool","internalType":"bool"}],"stateMutability":"view"},{"type":"function","name":"registry","inputs":[],"outputs":[{"name":"","type":"address","internalType":"contract FamilyRegistry"}],"stateMutability":"view"},{"type":"function","name":"vote","inputs":[{"name":"proposalId","type":"uint256","internalType":"uint256"},{"name":"support","type":"bool","internalType":"bool"}],"outputs":[],"stateMutability":"nonpayable"},{"type":"event","name":"ProposalCreated","inputs":[{"name":"id","type":"uint256","indexed":false,"internalType":"uint256"},{"name":"proposer","type":"address","indexed":false,"internalType":"address"},{"name":"description","type":"string","indexed":false,"internalType":"string"}],"anonymous":false},{"type":"event","name":"ProposalExecuted","inputs":[{"name":"id","type":"uint256","indexed":false,"internalType":"uint256"},{"name":"passed","type":"bool","indexed":false,"internalType":"bool"}],"anonymous":false},{"type":"event","name":"VoteCast","inputs":[{"name":"proposalId","type":"uint256","indexed":false,"internalType":"uint256"},{"name":"voter","type":"address","indexed":false,"internalType":"address"},{"name":"support","type":"bool","indexed":false,"internalType":"bool"}],"anonymous":false},{"type":"error","name":"AlreadyVoted","inputs":[]},{"type":"error","name":"NotNFTHolder","inputs":[]},{"type":"error","name":"VotingNotFinished","inputs":[]}],"bytecode":{"object":"0x608060405234801561000f575f5ffd5b5060405161288838038061288883398181016040528101906100319190610150565b815f5f6101000a81548173ffffffffffffffffffffffffffffffffffffffff021916908373ffffffffffffffffffffffffffffffffffffffff1602179055508060015f6101000a81548173ffffffffffffffffffffffffffffffffffffffff021916908373ffffffffffffffffffffffffffffffffffffffff160217905550505061018e565b5f5ffd5b5f73ffffffffffffffffffffffffffffffffffffffff82169050919050565b5f6100e4826100bb565b9050919050565b6100f4816100da565b81146100fe575f5ffd5b50565b5f8151905061010f816100eb565b92915050565b5f61011f826100da565b9050919050565b61012f81610115565b8114610139575f5ffd5b50565b5f8151905061014a81610126565b92915050565b5f5f60408385031215610166576101656100b7565b5b5f61017385828601610101565b92505060206101848582860161013c565b9150509250929050565b6126ed8061019b5f395ff3fe608060405234801561000f575f5ffd5b506004361061007b575f3560e01c806349c2a1a61161005957806349c2a1a6146100ef5780637b1039991461011f578063c9d27afe1461013d578063da35c664146101595761007b565b8063013cf08b1461007f5780630d61b519146100b5578063200590b7146100d1575b5f5ffd5b61009960048036038101906100949190611973565b610177565b6040516100ac9796959493929190611a76565b60405180910390f35b6100cf60048036038101906100ca9190611973565b610266565b005b6100d961094c565b6040516100e69190611b45565b60405180910390f35b61010960048036038101906101049190611c8a565b610970565b6040516101169190611cd1565b60405180910390f35b610127610b24565b6040516101349190611d0a565b60405180910390f35b61015760048036038101906101529190611d4d565b610b49565b005b610161610d85565b60405161016e9190611cd1565b60405180910390f35b6003602052805f5260405f205f91509050805f015490806001015f9054906101000a900473ffffffffffffffffffffffffffffffffffffffff16908060020180546101c190611db8565b80601f01602080910402602001604051908101604052809291908181526020018280546101ed90611db8565b80156102385780601f1061020f57610100808354040283529160200191610238565b820191905f5260205f20905b81548152906001019060200180831161021b57829003601f168201915b505050505090806003015490806004015490806005015490806006015f9054906101000a900460ff16905087565b5f60035f8381526020019081526020015f20905080600501544210156102b8576040517f68cd2a8500000000000000000000000000000000000000000000000000000000815260040160405180910390fd5b806006015f9054906101000a900460ff1615610309576040517f08c379a000000000000000000000000000000000000000000000000000000000815260040161030090611e32565b60405180910390fd5b6001816006015f6101000a81548160ff0219169083151502179055505f816004015482600301541190507f948f4a9cd986f1118c3fbd459f7a22b23c0693e1ca3ef06a6a8be5aa7d39cc038382604051610364929190611e50565b60405180910390a180156108d0575f82600201805461038290611db8565b80601f01602080910402602001604051908101604052809291908181526020018280546103ae90611db8565b80156103f95780601f106103d0576101008083540402835291602001916103f9565b820191905f5260205f20905b8154815290600101906020018083116103dc57829003601f168201915b5050505050905061043f816040518060400160405280600b81526020017f4144445f4d454d4245523a000000000000000000000000000000000000000000815250610d8b565b156106a5575f5f5f5f61045185610e5a565b93509350935093505f8190506004815110610586575f6040518060400160405280600781526020017f697066733a2f2f0000000000000000000000000000000000000000000000000081525090505f600190505f5f90505b825181101561055a5783518110158061054057508281815181106104d0576104cf611e77565b5b602001015160f81c60f81b7effffffffffffffffffffffffffffffffffffffffffffffffffffffffffffff19168482815181106105105761050f611e77565b5b602001015160f81c60f81b7effffffffffffffffffffffffffffffffffffffffffffffffffffffffffffff191614155b1561054d575f915061055a565b80806001019150506104a9565b508061058357836040516020016105719190611f28565b60405160208183030381529060405293505b50505b60015f9054906101000a900473ffffffffffffffffffffffffffffffffffffffff1673ffffffffffffffffffffffffffffffffffffffff166382c9ce60868686866040518563ffffffff1660e01b81526004016105e69493929190611f49565b5f604051808303815f87803b1580156105fd575f5ffd5b505af115801561060f573d5f5f3e3d5ffd5b505050505f5f9054906101000a900473ffffffffffffffffffffffffffffffffffffffff1673ffffffffffffffffffffffffffffffffffffffff1663d0def52186846040518363ffffffff1660e01b815260040161066e929190611f9a565b5f604051808303815f87803b158015610685575f5ffd5b505af1158015610697573d5f5f3e3d5ffd5b5050505050505050506108ce565b6106e4816040518060400160405280600e81526020017f52454d4f56455f4d454d4245523a000000000000000000000000000000000000815250610d8b565b156108cd575f61070a61070583600e8086516107009190611ff5565b6111a0565b611282565b90505f5f5f9054906101000a900473ffffffffffffffffffffffffffffffffffffffff1673ffffffffffffffffffffffffffffffffffffffff166370a08231836040518263ffffffff1660e01b81526004016107669190612028565b602060405180830381865afa158015610781573d5f5f3e3d5ffd5b505050506040513d601f19601f820116820180604052508101906107a59190612055565b90505f811115610843575f6107b98361141d565b90505f5f9054906101000a900473ffffffffffffffffffffffffffffffffffffffff1673ffffffffffffffffffffffffffffffffffffffff166342966c68826040518263ffffffff1660e01b81526004016108149190611cd1565b5f604051808303815f87803b15801561082b575f5ffd5b505af115801561083d573d5f5f3e3d5ffd5b50505050505b60015f9054906101000a900473ffffffffffffffffffffffffffffffffffffffff1673ffffffffffffffffffffffffffffffffffffffff16630342da8a836040518263ffffffff1660e01b815260040161089d9190612028565b5f604051808303815f87803b1580156108b4575f5ffd5b505af11580156108c6573d5f5f3e3d5ffd5b5050505050505b5b505b60035f8481526020019081526020015f205f5f82015f9055600182015f6101000a81549073ffffffffffffffffffffffffffffffffffffffff0219169055600282015f61091d91906118b5565b600382015f9055600482015f9055600582015f9055600682015f6101000a81549060ff02191690555050505050565b5f5f9054906101000a900473ffffffffffffffffffffffffffffffffffffffff1681565b5f5f5f5f9054906101000a900473ffffffffffffffffffffffffffffffffffffffff1673ffffffffffffffffffffffffffffffffffffffff166370a08231336040518263ffffffff1660e01b81526004016109cb9190612028565b602060405180830381865afa1580156109e6573d5f5f3e3d5ffd5b505050506040513d601f19601f82011682018060405250810190610a0a9190612055565b03610a41576040517f6c2e870600000000000000000000000000000000000000000000000000000000815260040160405180910390fd5b5f60025f815480929190610a5490612080565b9190505590505f60035f8381526020019081526020015f20905081815f018190555033816001015f6101000a81548173ffffffffffffffffffffffffffffffffffffffff021916908373ffffffffffffffffffffffffffffffffffffffff16021790555083816002019081610ac9919061225e565b50601442610ad7919061232d565b81600501819055507f7585f467599d0f008985f231af99293be388626ac16ca59505c2f8f88969cd63823386604051610b1293929190612360565b60405180910390a18192505050919050565b60015f9054906101000a900473ffffffffffffffffffffffffffffffffffffffff1681565b5f5f5f9054906101000a900473ffffffffffffffffffffffffffffffffffffffff1673ffffffffffffffffffffffffffffffffffffffff166370a08231336040518263ffffffff1660e01b8152600401610ba39190612028565b602060405180830381865afa158015610bbe573d5f5f3e3d5ffd5b505050506040513d601f19601f82011682018060405250810190610be29190612055565b03610c19576040517f6c2e870600000000000000000000000000000000000000000000000000000000815260040160405180910390fd5b5f60035f8481526020019081526020015f209050806007015f3373ffffffffffffffffffffffffffffffffffffffff1673ffffffffffffffffffffffffffffffffffffffff1681526020019081526020015f205f9054906101000a900460ff1615610cb0576040517f7c9a1cf900000000000000000000000000000000000000000000000000000000815260040160405180910390fd5b6001816007015f3373ffffffffffffffffffffffffffffffffffffffff1673ffffffffffffffffffffffffffffffffffffffff1681526020019081526020015f205f6101000a81548160ff0219169083151502179055508115610d2b57806003015f815480929190610d2190612080565b9190505550610d45565b806004015f815480929190610d3f90612080565b91905055505b7fe71fcdac32df1877c1700e7bda2a03157e20993363a28fc35ac495cefc76e4d4833384604051610d789392919061239c565b60405180910390a1505050565b60025481565b5f5f829050805184511015610da3575f915050610e54565b5f5f90505b8151811015610e4d57818181518110610dc457610dc3611e77565b5b602001015160f81c60f81b7effffffffffffffffffffffffffffffffffffffffffffffffffffffffffffff1916858281518110610e0457610e03611e77565b5b602001015160f81c60f81b7effffffffffffffffffffffffffffffffffffffffffffffffffffffffffffff191614610e40575f92505050610e54565b8080600101915050610da8565b5060019150505b92915050565b5f5f6060805f6040518060400160405280600181526020017f3a000000000000000000000000000000000000000000000000000000000000008152509050610ea06118f2565b5f5f90505f5f90505b8851811015610f7a57835f81518110610ec557610ec4611e77565b5b602001015160f81c60f81b7effffffffffffffffffffffffffffffffffffffffffffffffffffffffffffff1916898281518110610f0557610f04611e77565b5b602001015160f81c60f81b7effffffffffffffffffffffffffffffffffffffffffffffffffffffffffffff191603610f6d576004821015610f5e5780838360048110610f5457610f53611e77565b5b6020020181815250505b8180610f6990612080565b9250505b8080600101915050610ea9565b506004811015610fbf576040517f08c379a0000000000000000000000000000000000000000000000000000000008152600401610fb69061241b565b60405180910390fd5b61103b611036896001855f60048110610fdb57610fda611e77565b5b6020020151610fea919061232d565b6001865f60048110610fff57610ffe611e77565b5b60200201518760016004811061101857611017611e77565b5b60200201516110279190611ff5565b6110319190611ff5565b6111a0565b611282565b96506110bb6110b68960018560016004811061105a57611059611e77565b5b6020020151611069919061232d565b60018660016004811061107f5761107e611e77565b5b60200201518760026004811061109857611097611e77565b5b60200201516110a79190611ff5565b6110b19190611ff5565b6111a0565b611282565b9550611133886001846002600481106110d7576110d6611e77565b5b60200201516110e6919061232d565b6001856002600481106110fc576110fb611e77565b5b60200201518660036004811061111557611114611e77565b5b60200201516111249190611ff5565b61112e9190611ff5565b6111a0565b94506111948860018460036004811061114f5761114e611e77565b5b602002015161115e919061232d565b60018560036004811061117457611173611e77565b5b60200201518c516111859190611ff5565b61118f9190611ff5565b6111a0565b93505050509193509193565b60605f8267ffffffffffffffff8111156111bd576111bc611b66565b5b6040519080825280601f01601f1916602001820160405280156111ef5781602001600182028036833780820191505090505b5090505f5f90505b838110156112765785818661120c919061232d565b8151811061121d5761121c611e77565b5b602001015160f81c60f81b82828151811061123b5761123a611e77565b5b60200101907effffffffffffffffffffffffffffffffffffffffffffffffffffffffffffff191690815f1a90535080806001019150506111f7565b50809150509392505050565b5f602a8251146112c7576040517f08c379a00000000000000000000000000000000000000000000000000000000081526004016112be90612483565b60405180910390fd5b5f601467ffffffffffffffff8111156112e3576112e2611b66565b5b6040519080825280601f01601f1916602001820160405280156113155781602001600182028036833780820191505090505b5090505f5f90505b601481101561140f576113678460028361133791906124a1565b6003611343919061232d565b8151811061135457611353611e77565b5b602001015160f81c60f81b60f81c6115dd565b60106113aa8660028561137a91906124a1565b6002611386919061232d565b8151811061139757611396611e77565b5b602001015160f81c60f81b60f81c6115dd565b6113b491906124ee565b6113be919061252a565b60f81b8282815181106113d4576113d3611e77565b5b60200101907effffffffffffffffffffffffffffffffffffffffffffffffffffffffffffff191690815f1a905350808060010191505061131d565b506014810151915050919050565b5f5f5f5f9054906101000a900473ffffffffffffffffffffffffffffffffffffffff1673ffffffffffffffffffffffffffffffffffffffff166375794a3c6040518163ffffffff1660e01b8152600401602060405180830381865afa158015611488573d5f5f3e3d5ffd5b505050506040513d601f19601f820116820180604052508101906114ac9190612055565b90505f5f90505b8181101561159c578373ffffffffffffffffffffffffffffffffffffffff165f5f9054906101000a900473ffffffffffffffffffffffffffffffffffffffff1673ffffffffffffffffffffffffffffffffffffffff16636352211e836040518263ffffffff1660e01b815260040161152b9190611cd1565b602060405180830381865afa158015611546573d5f5f3e3d5ffd5b505050506040513d601f19601f8201168201806040525081019061156a9190612588565b73ffffffffffffffffffffffffffffffffffffffff160361158f5780925050506115d8565b80806001019150506114b3565b506040517f08c379a00000000000000000000000000000000000000000000000000000000081526004016115cf906125fd565b60405180910390fd5b919050565b5f7f30000000000000000000000000000000000000000000000000000000000000008260f81b7effffffffffffffffffffffffffffffffffffffffffffffffffffffffffffff19161015801561167857507f39000000000000000000000000000000000000000000000000000000000000008260f81b7effffffffffffffffffffffffffffffffffffffffffffffffffffffffffffff191611155b156116b3577f300000000000000000000000000000000000000000000000000000000000000060f81c826116ac919061261b565b90506118b0565b7f61000000000000000000000000000000000000000000000000000000000000008260f81b7effffffffffffffffffffffffffffffffffffffffffffffffffffffffffffff19161015801561174d57507f66000000000000000000000000000000000000000000000000000000000000008260f81b7effffffffffffffffffffffffffffffffffffffffffffffffffffffffffffff191611155b15611794577f610000000000000000000000000000000000000000000000000000000000000060f81c82600a611783919061252a565b61178d919061261b565b90506118b0565b7f41000000000000000000000000000000000000000000000000000000000000008260f81b7effffffffffffffffffffffffffffffffffffffffffffffffffffffffffffff19161015801561182e57507f46000000000000000000000000000000000000000000000000000000000000008260f81b7effffffffffffffffffffffffffffffffffffffffffffffffffffffffffffff191611155b15611875577f410000000000000000000000000000000000000000000000000000000000000060f81c82600a611864919061252a565b61186e919061261b565b90506118b0565b6040517f08c379a00000000000000000000000000000000000000000000000000000000081526004016118a790612699565b60405180910390fd5b919050565b5080546118c190611db8565b5f825580601f106118d257506118ef565b601f0160209004905f5260205f20908101906118ee9190611914565b5b50565b6040518060800160405280600490602082028036833780820191505090505090565b5b8082111561192b575f815f905550600101611915565b5090565b5f604051905090565b5f5ffd5b5f5ffd5b5f819050919050565b61195281611940565b811461195c575f5ffd5b50565b5f8135905061196d81611949565b92915050565b5f6020828403121561198857611987611938565b5b5f6119958482850161195f565b91505092915050565b6119a781611940565b82525050565b5f73ffffffffffffffffffffffffffffffffffffffff82169050919050565b5f6119d6826119ad565b9050919050565b6119e6816119cc565b82525050565b5f81519050919050565b5f82825260208201905092915050565b8281835e5f83830152505050565b5f601f19601f8301169050919050565b5f611a2e826119ec565b611a3881856119f6565b9350611a48818560208601611a06565b611a5181611a14565b840191505092915050565b5f8115159050919050565b611a7081611a5c565b82525050565b5f60e082019050611a895f83018a61199e565b611a9660208301896119dd565b8181036040830152611aa88188611a24565b9050611ab7606083018761199e565b611ac4608083018661199e565b611ad160a083018561199e565b611ade60c0830184611a67565b98975050505050505050565b5f819050919050565b5f611b0d611b08611b03846119ad565b611aea565b6119ad565b9050919050565b5f611b1e82611af3565b9050919050565b5f611b2f82611b14565b9050919050565b611b3f81611b25565b82525050565b5f602082019050611b585f830184611b36565b92915050565b5f5ffd5b5f5ffd5b7f4e487b71000000000000000000000000000000000000000000000000000000005f52604160045260245ffd5b611b9c82611a14565b810181811067ffffffffffffffff82111715611bbb57611bba611b66565b5b80604052505050565b5f611bcd61192f565b9050611bd98282611b93565b919050565b5f67ffffffffffffffff821115611bf857611bf7611b66565b5b611c0182611a14565b9050602081019050919050565b828183375f83830152505050565b5f611c2e611c2984611bde565b611bc4565b905082815260208101848484011115611c4a57611c49611b62565b5b611c55848285611c0e565b509392505050565b5f82601f830112611c7157611c70611b5e565b5b8135611c81848260208601611c1c565b91505092915050565b5f60208284031215611c9f57611c9e611938565b5b5f82013567ffffffffffffffff811115611cbc57611cbb61193c565b5b611cc884828501611c5d565b91505092915050565b5f602082019050611ce45f83018461199e565b92915050565b5f611cf482611b14565b9050919050565b611d0481611cea565b82525050565b5f602082019050611d1d5f830184611cfb565b92915050565b611d2c81611a5c565b8114611d36575f5ffd5b50565b5f81359050611d4781611d23565b92915050565b5f5f60408385031215611d6357611d62611938565b5b5f611d708582860161195f565b9250506020611d8185828601611d39565b9150509250929050565b7f4e487b71000000000000000000000000000000000000000000000000000000005f52602260045260245ffd5b5f6002820490506001821680611dcf57607f821691505b602082108103611de257611de1611d8b565b5b50919050565b7f50726f706f73616c20616c7265616479206578656375746564000000000000005f82015250565b5f611e1c6019836119f6565b9150611e2782611de8565b602082019050919050565b5f6020820190508181035f830152611e4981611e10565b9050919050565b5f604082019050611e635f83018561199e565b611e706020830184611a67565b9392505050565b7f4e487b71000000000000000000000000000000000000000000000000000000005f52603260045260245ffd5b5f81905092915050565b7f697066733a2f2f000000000000000000000000000000000000000000000000005f82015250565b5f611ee2600783611ea4565b9150611eed82611eae565b600782019050919050565b5f611f02826119ec565b611f0c8185611ea4565b9350611f1c818560208601611a06565b80840191505092915050565b5f611f3282611ed6565b9150611f3e8284611ef8565b915081905092915050565b5f608082019050611f5c5f8301876119dd565b611f6960208301866119dd565b8181036040830152611f7b8185611a24565b90508181036060830152611f8f8184611a24565b905095945050505050565b5f604082019050611fad5f8301856119dd565b8181036020830152611fbf8184611a24565b90509392505050565b7f4e487b71000000000000000000000000000000000000000000000000000000005f52601160045260245ffd5b5f611fff82611940565b915061200a83611940565b925082820390508181111561202257612021611fc8565b5b92915050565b5f60208201905061203b5f8301846119dd565b92915050565b5f8151905061204f81611949565b92915050565b5f6020828403121561206a57612069611938565b5b5f61207784828501612041565b91505092915050565b5f61208a82611940565b91507fffffffffffffffffffffffffffffffffffffffffffffffffffffffffffffffff82036120bc576120bb611fc8565b5b600182019050919050565b5f819050815f5260205f209050919050565b5f6020601f8301049050919050565b5f82821b905092915050565b5f600883026121237fffffffffffffffffffffffffffffffffffffffffffffffffffffffffffffffff826120e8565b61212d86836120e8565b95508019841693508086168417925050509392505050565b5f61215f61215a61215584611940565b611aea565b611940565b9050919050565b5f819050919050565b61217883612145565b61218c61218482612166565b8484546120f4565b825550505050565b5f5f905090565b6121a3612194565b6121ae81848461216f565b505050565b5b818110156121d1576121c65f8261219b565b6001810190506121b4565b5050565b601f821115612216576121e7816120c7565b6121f0846120d9565b810160208510156121ff578190505b61221361220b856120d9565b8301826121b3565b50505b505050565b5f82821c905092915050565b5f6122365f198460080261221b565b1980831691505092915050565b5f61224e8383612227565b9150826002028217905092915050565b612267826119ec565b67ffffffffffffffff8111156122805761227f611b66565b5b61228a8254611db8565b6122958282856121d5565b5f60209050601f8311600181146122c6575f84156122b4578287015190505b6122be8582612243565b865550612325565b601f1984166122d4866120c7565b5f5b828110156122fb578489015182556001820191506020850194506020810190506122d6565b868310156123185784890151612314601f891682612227565b8355505b6001600288020188555050505b505050505050565b5f61233782611940565b915061234283611940565b925082820190508082111561235a57612359611fc8565b5b92915050565b5f6060820190506123735f83018661199e565b61238060208301856119dd565b81810360408301526123928184611a24565b9050949350505050565b5f6060820190506123af5f83018661199e565b6123bc60208301856119dd565b6123c96040830184611a67565b949350505050565b7f496e76616c696420616464206d656d62657220666f726d6174000000000000005f82015250565b5f6124056019836119f6565b9150612410826123d1565b602082019050919050565b5f6020820190508181035f830152612432816123f9565b9050919050565b7f496e76616c69642061646472657373206c656e677468000000000000000000005f82015250565b5f61246d6016836119f6565b915061247882612439565b602082019050919050565b5f6020820190508181035f83015261249a81612461565b9050919050565b5f6124ab82611940565b91506124b683611940565b92508282026124c481611940565b915082820484148315176124db576124da611fc8565b5b5092915050565b5f60ff82169050919050565b5f6124f8826124e2565b9150612503836124e2565b9250828202612511816124e2565b915080821461252357612522611fc8565b5b5092915050565b5f612534826124e2565b915061253f836124e2565b9250828201905060ff81111561255857612557611fc8565b5b92915050565b612567816119cc565b8114612571575f5ffd5b50565b5f815190506125828161255e565b92915050565b5f6020828403121561259d5761259c611938565b5b5f6125aa84828501612574565b91505092915050565b7f546f6b656e206e6f7420666f756e6420666f72206f776e6572000000000000005f82015250565b5f6125e76019836119f6565b91506125f2826125b3565b602082019050919050565b5f6020820190508181035f830152612614816125db565b9050919050565b5f612625826124e2565b9150612630836124e2565b9250828203905060ff81111561264957612648611fc8565b5b92915050565b7f496e76616c6964206865782063686172616374657200000000000000000000005f82015250565b5f6126836015836119f6565b915061268e8261264f565b602082019050919050565b5f6020820190508181035f8301526126b081612677565b905091905056fea264697066735822122043cdc68b66c06bc4852ca4689ef4edea012b783497a4f217ef459d8ea268a9a364736f6c634300081c0033","linkReferences":{}},"methodIdentifiers":{"createProposal(string)":"49c2a1a6","executeProposal(uint256)":"0d61b519","familyNFT()":"200590b7","proposalCount()":"da35c664","proposals(uint256)":"013cf08b","registry()":"7b103999","vote(uint256,bool)":"c9d27afe"},"id":39}