{
    "abi": [
        {
            "type": "constructor",
            "inputs": [
                {
                    "name": "name",
                    "type": "string",
                    "internalType": "string"
                },
                {
                    "name": "symbol",
                    "type": "string",
                    "internalType": "string"
                },
                {
                    "name": "registryAddress",
                    "type": "address",
                    "internalType": "address"
                }
            ],
            "stateMutability": "nonpayable"
        },
        {
            "type": "function",
            "name": "adminMint",
            "inputs": [
                {
                    "name": "cid",
                    "type": "string",
                    "internalType": "string"
                }
            ],
            "outputs": [],
            "stateMutability": "nonpayable"
        },
        {
            "type": "function",
            "name": "approve",
            "inputs": [
                {
                    "name": "to",
                    "type": "address",
                    "internalType": "address"
                },
                {
                    "name": "tokenId",
                    "type": "uint256",
                    "internalType": "uint256"
                }
            ],
            "outputs": [],
            "stateMutability": "nonpayable"
        },
        {
            "type": "function",
            "name": "balanceOf",
            "inputs": [
                {
                    "name": "owner",
                    "type": "address",
                    "internalType": "address"
                }
            ],
            "outputs": [
                {
                    "name": "",
                    "type": "uint256",
                    "internalType": "uint256"
                }
            ],
            "stateMutability": "view"
        },
        {
            "type": "function",
            "name": "burn",
            "inputs": [
                {
                    "name": "tokenId",
                    "type": "uint256",
                    "internalType": "uint256"
                }
            ],
            "outputs": [],
            "stateMutability": "nonpayable"
        },
        {
            "type": "function",
            "name": "familyDAO",
            "inputs": [],
            "outputs": [
                {
                    "name": "",
                    "type": "address",
                    "internalType": "address"
                }
            ],
            "stateMutability": "view"
        },
        {
            "type": "function",
            "name": "getApproved",
            "inputs": [
                {
                    "name": "tokenId",
                    "type": "uint256",
                    "internalType": "uint256"
                }
            ],
            "outputs": [
                {
                    "name": "",
                    "type": "address",
                    "internalType": "address"
                }
            ],
            "stateMutability": "view"
        },
        {
            "type": "function",
            "name": "getMetadataURI",
            "inputs": [
                {
                    "name": "tokenId",
                    "type": "uint256",
                    "internalType": "uint256"
                }
            ],
            "outputs": [
                {
                    "name": "",
                    "type": "string",
                    "internalType": "string"
                }
            ],
            "stateMutability": "view"
        },
        {
            "type": "function",
            "name": "hasMinted",
            "inputs": [
                {
                    "name": "",
                    "type": "address",
                    "internalType": "address"
                }
            ],
            "outputs": [
                {
                    "name": "",
                    "type": "bool",
                    "internalType": "bool"
                }
            ],
            "stateMutability": "view"
        },
        {
            "type": "function",
            "name": "isApprovedForAll",
            "inputs": [
                {
                    "name": "owner",
                    "type": "address",
                    "internalType": "address"
                },
                {
                    "name": "operator",
                    "type": "address",
                    "internalType": "address"
                }
            ],
            "outputs": [
                {
                    "name": "",
                    "type": "bool",
                    "internalType": "bool"
                }
            ],
            "stateMutability": "view"
        },
        {
            "type": "function",
            "name": "mint",
            "inputs": [
                {
                    "name": "to",
                    "type": "address",
                    "internalType": "address"
                },
                {
                    "name": "_tokenURI",
                    "type": "string",
                    "internalType": "string"
                }
            ],
            "outputs": [],
            "stateMutability": "nonpayable"
        },
        {
            "type": "function",
            "name": "name",
            "inputs": [],
            "outputs": [
                {
                    "name": "",
                    "type": "string",
                    "internalType": "string"
                }
            ],
            "stateMutability": "view"
        },
        {
            "type": "function",
            "name": "nextTokenId",
            "inputs": [],
            "outputs": [
                {
                    "name": "",
                    "type": "uint256",
                    "internalType": "uint256"
                }
            ],
            "stateMutability": "view"
        },
        {
            "type": "function",
            "name": "owner",
            "inputs": [],
            "outputs": [
                {
                    "name": "",
                    "type": "address",
                    "internalType": "address"
                }
            ],
            "stateMutability": "view"
        },
        {
            "type": "function",
            "name": "ownerOf",
            "inputs": [
                {
                    "name": "tokenId",
                    "type": "uint256",
                    "internalType": "uint256"
                }
            ],
            "outputs": [
                {
                    "name": "",
                    "type": "address",
                    "internalType": "address"
                }
            ],
            "stateMutability": "view"
        },
        {
            "type": "function",
            "name": "registry",
            "inputs": [],
            "outputs": [
                {
                    "name": "",
                    "type": "address",
                    "internalType": "contract FamilyRegistry"
                }
            ],
            "stateMutability": "view"
        },
        {
            "type": "function",
            "name": "renounceOwnership",
            "inputs": [],
            "outputs": [],
            "stateMutability": "nonpayable"
        },
        {
            "type": "function",
            "name": "safeTransferFrom",
            "inputs": [
                {
                    "name": "from",
                    "type": "address",
                    "internalType": "address"
                },
                {
                    "name": "to",
                    "type": "address",
                    "internalType": "address"
                },
                {
                    "name": "tokenId",
                    "type": "uint256",
                    "internalType": "uint256"
                }
            ],
            "outputs": [],
            "stateMutability": "nonpayable"
        },
        {
            "type": "function",
            "name": "safeTransferFrom",
            "inputs": [
                {
                    "name": "from",
                    "type": "address",
                    "internalType": "address"
                },
                {
                    "name": "to",
                    "type": "address",
                    "internalType": "address"
                },
                {
                    "name": "tokenId",
                    "type": "uint256",
                    "internalType": "uint256"
                },
                {
                    "name": "data",
                    "type": "bytes",
                    "internalType": "bytes"
                }
            ],
            "outputs": [],
            "stateMutability": "nonpayable"
        },
        {
            "type": "function",
            "name": "setApprovalForAll",
            "inputs": [
                {
                    "name": "operator",
                    "type": "address",
                    "internalType": "address"
                },
                {
                    "name": "approved",
                    "type": "bool",
                    "internalType": "bool"
                }
            ],
            "outputs": [],
            "stateMutability": "nonpayable"
        },
        {
            "type": "function",
            "name": "setFamilyDAO",
            "inputs": [
                {
                    "name": "dao",
                    "type": "address",
                    "internalType": "address"
                }
            ],
            "outputs": [],
            "stateMutability": "nonpayable"
        },
        {
            "type": "function",
            "name": "supportsInterface",
            "inputs": [
                {
                    "name": "interfaceId",
                    "type": "bytes4",
                    "internalType": "bytes4"
                }
            ],
            "outputs": [
                {
                    "name": "",
                    "type": "bool",
                    "internalType": "bool"
                }
            ],
            "stateMutability": "view"
        },
        {
            "type": "function",
            "name": "symbol",
            "inputs": [],
            "outputs": [
                {
                    "name": "",
                    "type": "string",
                    "internalType": "string"
                }
            ],
            "stateMutability": "view"
        },
        {
            "type": "function",
            "name": "tokenMetadataURI",
            "inputs": [
                {
                    "name": "",
                    "type": "uint256",
                    "internalType": "uint256"
                }
            ],
            "outputs": [
                {
                    "name": "",
                    "type": "string",
                    "internalType": "string"
                }
            ],
            "stateMutability": "view"
        },
        {
            "type": "function",
            "name": "tokenURI",
            "inputs": [
                {
                    "name": "tokenId",
                    "type": "uint256",
                    "internalType": "uint256"
                }
            ],
            "outputs": [
                {
                    "name": "",
                    "type": "string",
                    "internalType": "string"
                }
            ],
            "stateMutability": "view"
        },
        {
            "type": "function",
            "name": "transferFrom",
            "inputs": [
                {
                    "name": "from",
                    "type": "address",
                    "internalType": "address"
                },
                {
                    "name": "to",
                    "type": "address",
                    "internalType": "address"
                },
                {
                    "name": "tokenId",
                    "type": "uint256",
                    "internalType": "uint256"
                }
            ],
            "outputs": [],
            "stateMutability": "nonpayable"
        },
        {
            "type": "function",
            "name": "transferOwnership",
            "inputs": [
                {
                    "name": "newOwner",
                    "type": "address",
                    "internalType": "address"
                }
            ],
            "outputs": [],
            "stateMutability": "nonpayable"
        },
        {
            "type": "event",
            "name": "Approval",
            "inputs": [
                {
                    "name": "owner",
                    "type": "address",
                    "indexed": true,
                    "internalType": "address"
                },
                {
                    "name": "approved",
                    "type": "address",
                    "indexed": true,
                    "internalType": "address"
                },
                {
                    "name": "tokenId",
                    "type": "uint256",
                    "indexed": true,
                    "internalType": "uint256"
                }
            ],
            "anonymous": false
        },
        {
            "type": "event",
            "name": "ApprovalForAll",
            "inputs": [
                {
                    "name": "owner",
                    "type": "address",
                    "indexed": true,
                    "internalType": "address"
                },
                {
                    "name": "operator",
                    "type": "address",
                    "indexed": true,
                    "internalType": "address"
                },
                {
                    "name": "approved",
                    "type": "bool",
                    "indexed": false,
                    "internalType": "bool"
                }
            ],
            "anonymous": false
        },
        {
            "type": "event",
            "name": "BatchMetadataUpdate",
            "inputs": [
                {
                    "name": "_fromTokenId",
                    "type": "uint256",
                    "indexed": false,
                    "internalType": "uint256"
                },
                {
                    "name": "_toTokenId",
                    "type": "uint256",
                    "indexed": false,
                    "internalType": "uint256"
                }
            ],
            "anonymous": false
        },
        {
            "type": "event",
            "name": "MetadataUpdate",
            "inputs": [
                {
                    "name": "_tokenId",
                    "type": "uint256",
                    "indexed": false,
                    "internalType": "uint256"
                }
            ],
            "anonymous": false
        },
        {
            "type": "event",
            "name": "OwnershipTransferred",
            "inputs": [
                {
                    "name": "previousOwner",
                    "type": "address",
                    "indexed": true,
                    "internalType": "address"
                },
                {
                    "name": "newOwner",
                    "type": "address",
                    "indexed": true,
                    "internalType": "address"
                }
            ],
            "anonymous": false
        },
        {
            "type": "event",
            "name": "Transfer",
            "inputs": [
                {
                    "name": "from",
                    "type": "address",
                    "indexed": true,
                    "internalType": "address"
                },
                {
                    "name": "to",
                    "type": "address",
                    "indexed": true,
                    "internalType": "address"
                },
                {
                    "name": "tokenId",
                    "type": "uint256",
                    "indexed": true,
                    "internalType": "uint256"
                }
            ],
            "anonymous": false
        },
        {
            "type": "error",
            "name": "ERC721IncorrectOwner",
            "inputs": [
                {
                    "name": "sender",
                    "type": "address",
                    "internalType": "address"
                },
                {
                    "name": "tokenId",
                    "type": "uint256",
                    "internalType": "uint256"
                },
                {
                    "name": "owner",
                    "type": "address",
                    "internalType": "address"
                }
            ]
        },
        {
            "type": "error",
            "name": "ERC721InsufficientApproval",
            "inputs": [
                {
                    "name": "operator",
                    "type": "address",
                    "internalType": "address"
                },
                {
                    "name": "tokenId",
                    "type": "uint256",
                    "internalType": "uint256"
                }
            ]
        },
        {
            "type": "error",
            "name": "ERC721InvalidApprover",
            "inputs": [
                {
                    "name": "approver",
                    "type": "address",
                    "internalType": "address"
                }
            ]
        },
        {
            "type": "error",
            "name": "ERC721InvalidOperator",
            "inputs": [
                {
                    "name": "operator",
                    "type": "address",
                    "internalType": "address"
                }
            ]
        },
        {
            "type": "error",
            "name": "ERC721InvalidOwner",
            "inputs": [
                {
                    "name": "owner",
                    "type": "address",
                    "internalType": "address"
                }
            ]
        },
        {
            "type": "error",
            "name": "ERC721InvalidReceiver",
            "inputs": [
                {
                    "name": "receiver",
                    "type": "address",
                    "internalType": "address"
                }
            ]
        },
        {
            "type": "error",
            "name": "ERC721InvalidSender",
            "inputs": [
                {
                    "name": "sender",
                    "type": "address",
                    "internalType": "address"
                }
            ]
        },
        {
            "type": "error",
            "name": "ERC721NonexistentToken",
            "inputs": [
                {
                    "name": "tokenId",
                    "type": "uint256",
                    "internalType": "uint256"
                }
            ]
        },
        {
            "type": "error",
            "name": "OwnableInvalidOwner",
            "inputs": [
                {
                    "name": "owner",
                    "type": "address",
                    "internalType": "address"
                }
            ]
        },
        {
            "type": "error",
            "name": "OwnableUnauthorizedAccount",
            "inputs": [
                {
                    "name": "account",
                    "type": "address",
                    "internalType": "address"
                }
            ]
        }
    ],
    "bytecode": {
        "object": "0x608060405234801561000f575f5ffd5b50604051613b3f380380613b3f83398181016040528101906100319190610387565b338383815f9081610042919061061f565b508060019081610052919061061f565b5050505f73ffffffffffffffffffffffffffffffffffffffff168173ffffffffffffffffffffffffffffffffffffffff16036100c5575f6040517f1e4fbdf70000000000000000000000000000000000000000000000000000000081526004016100bc91906106fd565b60405180910390fd5b6100d48161011d60201b60201c565b5080600b5f6101000a81548173ffffffffffffffffffffffffffffffffffffffff021916908373ffffffffffffffffffffffffffffffffffffffff160217905550505050610716565b5f60075f9054906101000a900473ffffffffffffffffffffffffffffffffffffffff1690508160075f6101000a81548173ffffffffffffffffffffffffffffffffffffffff021916908373ffffffffffffffffffffffffffffffffffffffff1602179055508173ffffffffffffffffffffffffffffffffffffffff168173ffffffffffffffffffffffffffffffffffffffff167f8be0079c531659141344cd1fd0a4f28419497f9722a3daafe3b4186f6b6457e060405160405180910390a35050565b5f604051905090565b5f5ffd5b5f5ffd5b5f5ffd5b5f5ffd5b5f601f19601f8301169050919050565b7f4e487b71000000000000000000000000000000000000000000000000000000005f52604160045260245ffd5b61023f826101f9565b810181811067ffffffffffffffff8211171561025e5761025d610209565b5b80604052505050565b5f6102706101e0565b905061027c8282610236565b919050565b5f67ffffffffffffffff82111561029b5761029a610209565b5b6102a4826101f9565b9050602081019050919050565b8281835e5f83830152505050565b5f6102d16102cc84610281565b610267565b9050828152602081018484840111156102ed576102ec6101f5565b5b6102f88482856102b1565b509392505050565b5f82601f830112610314576103136101f1565b5b81516103248482602086016102bf565b91505092915050565b5f73ffffffffffffffffffffffffffffffffffffffff82169050919050565b5f6103568261032d565b9050919050565b6103668161034c565b8114610370575f5ffd5b50565b5f815190506103818161035d565b92915050565b5f5f5f6060848603121561039e5761039d6101e9565b5b5f84015167ffffffffffffffff8111156103bb576103ba6101ed565b5b6103c786828701610300565b935050602084015167ffffffffffffffff8111156103e8576103e76101ed565b5b6103f486828701610300565b925050604061040586828701610373565b9150509250925092565b5f81519050919050565b7f4e487b71000000000000000000000000000000000000000000000000000000005f52602260045260245ffd5b5f600282049050600182168061045d57607f821691505b6020821081036104705761046f610419565b5b50919050565b5f819050815f5260205f209050919050565b5f6020601f8301049050919050565b5f82821b905092915050565b5f600883026104d27fffffffffffffffffffffffffffffffffffffffffffffffffffffffffffffffff82610497565b6104dc8683610497565b95508019841693508086168417925050509392505050565b5f819050919050565b5f819050919050565b5f61052061051b610516846104f4565b6104fd565b6104f4565b9050919050565b5f819050919050565b61053983610506565b61054d61054582610527565b8484546104a3565b825550505050565b5f5f905090565b610564610555565b61056f818484610530565b505050565b5b81811015610592576105875f8261055c565b600181019050610575565b5050565b601f8211156105d7576105a881610476565b6105b184610488565b810160208510156105c0578190505b6105d46105cc85610488565b830182610574565b50505b505050565b5f82821c905092915050565b5f6105f75f19846008026105dc565b1980831691505092915050565b5f61060f83836105e8565b9150826002028217905092915050565b6106288261040f565b67ffffffffffffffff81111561064157610640610209565b5b61064b8254610446565b610656828285610596565b5f60209050601f831160018114610687575f8415610675578287015190505b61067f8582610604565b8655506106e6565b601f19841661069586610476565b5f5b828110156106bc57848901518255600182019150602085019450602081019050610697565b868310156106d957848901516106d5601f8916826105e8565b8355505b6001600288020188555050505b505050505050565b6106f78161034c565b82525050565b5f6020820190506107105f8301846106ee565b92915050565b61341c806107235f395ff3fe608060405234801561000f575f5ffd5b506004361061018c575f3560e01c806370a08231116100dc578063a22cb46511610095578063c87b56dd1161006f578063c87b56dd1461047e578063d0def521146104ae578063e985e9c5146104ca578063f2fde38b146104fa5761018c565b8063a22cb46514610416578063b88d4fde14610432578063bde644fb1461044e5761018c565b806370a0823114610364578063715018a61461039457806375794a3c1461039e5780637b103999146103bc5780638da5cb5b146103da57806395d89b41146103f85761018c565b8063286105531161014957806342842e0e1161012357806342842e0e146102e057806342966c68146102fc57806353655d5d146103185780636352211e146103345761018c565b8063286105531461027657806334b6ea1f1461029257806338e21cce146102b05761018c565b806301ffc9a71461019057806306fdde03146101c0578063081812fc146101de578063095ea7b31461020e578063157c3df91461022a57806323b872dd1461025a575b5f5ffd5b6101aa60048036038101906101a591906124c6565b610516565b6040516101b7919061250b565b60405180910390f35b6101c8610576565b6040516101d59190612594565b60405180910390f35b6101f860048036038101906101f391906125e7565b610605565b6040516102059190612651565b60405180910390f35b61022860048036038101906102239190612694565b610620565b005b610244600480360381019061023f91906125e7565b610636565b6040516102519190612594565b60405180910390f35b610274600480360381019061026f91906126d2565b6106d1565b005b610290600480360381019061028b9190612722565b6107d0565b005b61029a6108aa565b6040516102a79190612651565b60405180910390f35b6102ca60048036038101906102c59190612722565b6108cf565b6040516102d7919061250b565b60405180910390f35b6102fa60048036038101906102f591906126d2565b6108ec565b005b610316600480360381019061031191906125e7565b61090b565b005b610332600480360381019061032d9190612879565b610a07565b005b61034e600480360381019061034991906125e7565b610b80565b60405161035b9190612651565b60405180910390f35b61037e60048036038101906103799190612722565b610b91565b60405161038b91906128cf565b60405180910390f35b61039c610c47565b005b6103a6610c5a565b6040516103b391906128cf565b60405180910390f35b6103c4610c60565b6040516103d19190612943565b60405180910390f35b6103e2610c85565b6040516103ef9190612651565b60405180910390f35b610400610cad565b60405161040d9190612594565b60405180910390f35b610430600480360381019061042b9190612986565b610d3d565b005b61044c60048036038101906104479190612a62565b610d53565b005b610468600480360381019061046391906125e7565b610d78565b6040516104759190612594565b60405180910390f35b610498600480360381019061049391906125e7565b610e19565b6040516104a59190612594565b60405180910390f35b6104c860048036038101906104c39190612ae2565b610f24565b005b6104e460048036038101906104df9190612b3c565b6112a1565b6040516104f1919061250b565b60405180910390f35b610514600480360381019061050f9190612722565b61132f565b005b5f634906490660e01b7bffffffffffffffffffffffffffffffffffffffffffffffffffffffff1916827bffffffffffffffffffffffffffffffffffffffffffffffffffffffff1916148061056f575061056e826113b3565b5b9050919050565b60605f805461058490612ba7565b80601f01602080910402602001604051908101604052809291908181526020018280546105b090612ba7565b80156105fb5780601f106105d2576101008083540402835291602001916105fb565b820191905f5260205f20905b8154815290600101906020018083116105de57829003601f168201915b5050505050905090565b5f61060f82611494565b506106198261151a565b9050919050565b610632828261062d611553565b61155a565b5050565b600a602052805f5260405f205f91509050805461065290612ba7565b80601f016020809104026020016040519081016040528092919081815260200182805461067e90612ba7565b80156106c95780601f106106a0576101008083540402835291602001916106c9565b820191905f5260205f20905b8154815290600101906020018083116106ac57829003601f168201915b505050505081565b5f73ffffffffffffffffffffffffffffffffffffffff168273ffffffffffffffffffffffffffffffffffffffff1603610741575f6040517f64a0ae920000000000000000000000000000000000000000000000000000000081526004016107389190612651565b60405180910390fd5b5f610754838361074f611553565b61156c565b90508373ffffffffffffffffffffffffffffffffffffffff168173ffffffffffffffffffffffffffffffffffffffff16146107ca578382826040517f64283d7b0000000000000000000000000000000000000000000000000000000081526004016107c193929190612bd7565b60405180910390fd5b50505050565b6107d8611777565b5f73ffffffffffffffffffffffffffffffffffffffff16600c5f9054906101000a900473ffffffffffffffffffffffffffffffffffffffff1673ffffffffffffffffffffffffffffffffffffffff1614610867576040517f08c379a000000000000000000000000000000000000000000000000000000000815260040161085e90612c56565b60405180910390fd5b80600c5f6101000a81548173ffffffffffffffffffffffffffffffffffffffff021916908373ffffffffffffffffffffffffffffffffffffffff16021790555050565b600c5f9054906101000a900473ffffffffffffffffffffffffffffffffffffffff1681565b6009602052805f5260405f205f915054906101000a900460ff1681565b61090683838360405180602001604052805f815250610d53565b505050565b600c5f9054906101000a900473ffffffffffffffffffffffffffffffffffffffff1673ffffffffffffffffffffffffffffffffffffffff163373ffffffffffffffffffffffffffffffffffffffff161461099a576040517f08c379a000000000000000000000000000000000000000000000000000000000815260040161099190612cbe565b60405180910390fd5b5f6109a482610b80565b90506109af826117fe565b5f60095f8373ffffffffffffffffffffffffffffffffffffffff1673ffffffffffffffffffffffffffffffffffffffff1681526020019081526020015f205f6101000a81548160ff0219169083151502179055505050565b610a0f611777565b60095f3373ffffffffffffffffffffffffffffffffffffffff1673ffffffffffffffffffffffffffffffffffffffff1681526020019081526020015f205f9054906101000a900460ff1615610a99576040517f08c379a0000000000000000000000000000000000000000000000000000000008152600401610a9090612d26565b60405180910390fd5b610aa533600854611880565b6040518060600160405280603b81526020016133ac603b913990505f81604051602001610ad29190612da4565b6040516020818303038152906040529050610aef6008548261189d565b80600a5f60085481526020019081526020015f209081610b0f9190612f60565b50600160095f3373ffffffffffffffffffffffffffffffffffffffff1673ffffffffffffffffffffffffffffffffffffffff1681526020019081526020015f205f6101000a81548160ff02191690831515021790555060085f815480929190610b779061305c565b91905055505050565b5f610b8a82611494565b9050919050565b5f5f73ffffffffffffffffffffffffffffffffffffffff168273ffffffffffffffffffffffffffffffffffffffff1603610c02575f6040517f89c62b64000000000000000000000000000000000000000000000000000000008152600401610bf99190612651565b60405180910390fd5b60035f8373ffffffffffffffffffffffffffffffffffffffff1673ffffffffffffffffffffffffffffffffffffffff1681526020019081526020015f20549050919050565b610c4f611777565b610c585f6118f7565b565b60085481565b600b5f9054906101000a900473ffffffffffffffffffffffffffffffffffffffff1681565b5f60075f9054906101000a900473ffffffffffffffffffffffffffffffffffffffff16905090565b606060018054610cbc90612ba7565b80601f0160208091040260200160405190810160405280929190818152602001828054610ce890612ba7565b8015610d335780601f10610d0a57610100808354040283529160200191610d33565b820191905f5260205f20905b815481529060010190602001808311610d1657829003601f168201915b5050505050905090565b610d4f610d48611553565b83836119ba565b5050565b610d5e8484846106d1565b610d72610d69611553565b85858585611b23565b50505050565b6060600a5f8381526020019081526020015f208054610d9690612ba7565b80601f0160208091040260200160405190810160405280929190818152602001828054610dc290612ba7565b8015610e0d5780601f10610de457610100808354040283529160200191610e0d565b820191905f5260205f20905b815481529060010190602001808311610df057829003601f168201915b50505050509050919050565b6060610e2482611494565b505f60065f8481526020019081526020015f208054610e4290612ba7565b80601f0160208091040260200160405190810160405280929190818152602001828054610e6e90612ba7565b8015610eb95780601f10610e9057610100808354040283529160200191610eb9565b820191905f5260205f20905b815481529060010190602001808311610e9c57829003601f168201915b505050505090505f610ec9611ccf565b90505f815103610edd578192505050610f1f565b5f82511115610f11578082604051602001610ef99291906130a3565b60405160208183030381529060405292505050610f1f565b610f1a84611ce5565b925050505b919050565b600b5f9054906101000a900473ffffffffffffffffffffffffffffffffffffffff1673ffffffffffffffffffffffffffffffffffffffff166328ec14cc836040518263ffffffff1660e01b8152600401610f7e9190612651565b602060405180830381865afa158015610f99573d5f5f3e3d5ffd5b505050506040513d601f19601f82011682018060405250810190610fbd91906130da565b806110145750600c5f9054906101000a900473ffffffffffffffffffffffffffffffffffffffff1673ffffffffffffffffffffffffffffffffffffffff163373ffffffffffffffffffffffffffffffffffffffff16145b611053576040517f08c379a000000000000000000000000000000000000000000000000000000000815260040161104a9061314f565b60405180910390fd5b60095f8373ffffffffffffffffffffffffffffffffffffffff1673ffffffffffffffffffffffffffffffffffffffff1681526020019081526020015f205f9054906101000a900460ff16156110dd576040517f08c379a00000000000000000000000000000000000000000000000000000000081526004016110d4906131b7565b60405180910390fd5b5f600b5f9054906101000a900473ffffffffffffffffffffffffffffffffffffffff1673ffffffffffffffffffffffffffffffffffffffff1663a9405923846040518263ffffffff1660e01b81526004016111389190612651565b602060405180830381865afa158015611153573d5f5f3e3d5ffd5b505050506040513d601f19601f8201168201806040525081019061117791906131e9565b90505f73ffffffffffffffffffffffffffffffffffffffff168173ffffffffffffffffffffffffffffffffffffffff16146111f7575f6111b682610b91565b116111f6576040517f08c379a00000000000000000000000000000000000000000000000000000000081526004016111ed9061325e565b60405180910390fd5b5b61120383600854611880565b61120f6008548361189d565b81600a5f60085481526020019081526020015f20908161122f9190612f60565b50600160095f8573ffffffffffffffffffffffffffffffffffffffff1673ffffffffffffffffffffffffffffffffffffffff1681526020019081526020015f205f6101000a81548160ff02191690831515021790555060085f8154809291906112979061305c565b9190505550505050565b5f60055f8473ffffffffffffffffffffffffffffffffffffffff1673ffffffffffffffffffffffffffffffffffffffff1681526020019081526020015f205f8373ffffffffffffffffffffffffffffffffffffffff1673ffffffffffffffffffffffffffffffffffffffff1681526020019081526020015f205f9054906101000a900460ff16905092915050565b611337611777565b5f73ffffffffffffffffffffffffffffffffffffffff168173ffffffffffffffffffffffffffffffffffffffff16036113a7575f6040517f1e4fbdf700000000000000000000000000000000000000000000000000000000815260040161139e9190612651565b60405180910390fd5b6113b0816118f7565b50565b5f7f80ac58cd000000000000000000000000000000000000000000000000000000007bffffffffffffffffffffffffffffffffffffffffffffffffffffffff1916827bffffffffffffffffffffffffffffffffffffffffffffffffffffffff1916148061147d57507f5b5e139f000000000000000000000000000000000000000000000000000000007bffffffffffffffffffffffffffffffffffffffffffffffffffffffff1916827bffffffffffffffffffffffffffffffffffffffffffffffffffffffff1916145b8061148d575061148c82611d4b565b5b9050919050565b5f5f61149f83611db4565b90505f73ffffffffffffffffffffffffffffffffffffffff168173ffffffffffffffffffffffffffffffffffffffff160361151157826040517f7e27328900000000000000000000000000000000000000000000000000000000815260040161150891906128cf565b60405180910390fd5b80915050919050565b5f60045f8381526020019081526020015f205f9054906101000a900473ffffffffffffffffffffffffffffffffffffffff169050919050565b5f33905090565b6115678383836001611ded565b505050565b5f5f61157784611db4565b90505f73ffffffffffffffffffffffffffffffffffffffff168373ffffffffffffffffffffffffffffffffffffffff16146115b8576115b7818486611fac565b5b5f73ffffffffffffffffffffffffffffffffffffffff168173ffffffffffffffffffffffffffffffffffffffff1614611643576115f75f855f5f611ded565b600160035f8373ffffffffffffffffffffffffffffffffffffffff1673ffffffffffffffffffffffffffffffffffffffff1681526020019081526020015f205f82825403925050819055505b5f73ffffffffffffffffffffffffffffffffffffffff168573ffffffffffffffffffffffffffffffffffffffff16146116c257600160035f8773ffffffffffffffffffffffffffffffffffffffff1673ffffffffffffffffffffffffffffffffffffffff1681526020019081526020015f205f82825401925050819055505b8460025f8681526020019081526020015f205f6101000a81548173ffffffffffffffffffffffffffffffffffffffff021916908373ffffffffffffffffffffffffffffffffffffffff160217905550838573ffffffffffffffffffffffffffffffffffffffff168273ffffffffffffffffffffffffffffffffffffffff167fddf252ad1be2c89b69c2b068fc378daa952ba7f163c4a11628f55a4df523b3ef60405160405180910390a4809150509392505050565b61177f611553565b73ffffffffffffffffffffffffffffffffffffffff1661179d610c85565b73ffffffffffffffffffffffffffffffffffffffff16146117fc576117c0611553565b6040517f118cdaa70000000000000000000000000000000000000000000000000000000081526004016117f39190612651565b60405180910390fd5b565b5f61180a5f835f61156c565b90505f73ffffffffffffffffffffffffffffffffffffffff168173ffffffffffffffffffffffffffffffffffffffff160361187c57816040517f7e27328900000000000000000000000000000000000000000000000000000000815260040161187391906128cf565b60405180910390fd5b5050565b611899828260405180602001604052805f81525061206f565b5050565b8060065f8481526020019081526020015f2090816118bb9190612f60565b507ff8e1a15aba9398e019f0b49df1a4fde98ee17ae345cb5f6b5e2c27f5033e8ce7826040516118eb91906128cf565b60405180910390a15050565b5f60075f9054906101000a900473ffffffffffffffffffffffffffffffffffffffff1690508160075f6101000a81548173ffffffffffffffffffffffffffffffffffffffff021916908373ffffffffffffffffffffffffffffffffffffffff1602179055508173ffffffffffffffffffffffffffffffffffffffff168173ffffffffffffffffffffffffffffffffffffffff167f8be0079c531659141344cd1fd0a4f28419497f9722a3daafe3b4186f6b6457e060405160405180910390a35050565b5f73ffffffffffffffffffffffffffffffffffffffff168273ffffffffffffffffffffffffffffffffffffffff1603611a2a57816040517f5b08ba18000000000000000000000000000000000000000000000000000000008152600401611a219190612651565b60405180910390fd5b8060055f8573ffffffffffffffffffffffffffffffffffffffff1673ffffffffffffffffffffffffffffffffffffffff1681526020019081526020015f205f8473ffffffffffffffffffffffffffffffffffffffff1673ffffffffffffffffffffffffffffffffffffffff1681526020019081526020015f205f6101000a81548160ff0219169083151502179055508173ffffffffffffffffffffffffffffffffffffffff168373ffffffffffffffffffffffffffffffffffffffff167f17307eab39ab6107e8899845ad3d59bd9653f200f220920489ca2b5937696c3183604051611b16919061250b565b60405180910390a3505050565b5f8373ffffffffffffffffffffffffffffffffffffffff163b1115611cc8578273ffffffffffffffffffffffffffffffffffffffff1663150b7a02868685856040518563ffffffff1660e01b8152600401611b8194939291906132ce565b6020604051808303815f875af1925050508015611bbc57506040513d601f19601f82011682018060405250810190611bb9919061332c565b60015b611c3d573d805f8114611bea576040519150601f19603f3d011682016040523d82523d5f602084013e611bef565b606091505b505f815103611c3557836040517f64a0ae92000000000000000000000000000000000000000000000000000000008152600401611c2c9190612651565b60405180910390fd5b805181602001fd5b63150b7a0260e01b7bffffffffffffffffffffffffffffffffffffffffffffffffffffffff1916817bffffffffffffffffffffffffffffffffffffffffffffffffffffffff191614611cc657836040517f64a0ae92000000000000000000000000000000000000000000000000000000008152600401611cbd9190612651565b60405180910390fd5b505b5050505050565b606060405180602001604052805f815250905090565b6060611cf082611494565b505f611cfa611ccf565b90505f815111611d185760405180602001604052805f815250611d43565b80611d2284612092565b604051602001611d339291906130a3565b6040516020818303038152906040525b915050919050565b5f7f01ffc9a7000000000000000000000000000000000000000000000000000000007bffffffffffffffffffffffffffffffffffffffffffffffffffffffff1916827bffffffffffffffffffffffffffffffffffffffffffffffffffffffff1916149050919050565b5f60025f8381526020019081526020015f205f9054906101000a900473ffffffffffffffffffffffffffffffffffffffff169050919050565b8080611e2557505f73ffffffffffffffffffffffffffffffffffffffff168273ffffffffffffffffffffffffffffffffffffffff1614155b15611f57575f611e3484611494565b90505f73ffffffffffffffffffffffffffffffffffffffff168373ffffffffffffffffffffffffffffffffffffffff1614158015611e9e57508273ffffffffffffffffffffffffffffffffffffffff168173ffffffffffffffffffffffffffffffffffffffff1614155b8015611eb15750611eaf81846112a1565b155b15611ef357826040517fa9fbf51f000000000000000000000000000000000000000000000000000000008152600401611eea9190612651565b60405180910390fd5b8115611f5557838573ffffffffffffffffffffffffffffffffffffffff168273ffffffffffffffffffffffffffffffffffffffff167f8c5be1e5ebec7d5bd14f71427d1e84f3dd0314c0f7b2291e5b200ac8c7c3b92560405160405180910390a45b505b8360045f8581526020019081526020015f205f6101000a81548173ffffffffffffffffffffffffffffffffffffffff021916908373ffffffffffffffffffffffffffffffffffffffff16021790555050505050565b611fb783838361215c565b61206a575f73ffffffffffffffffffffffffffffffffffffffff168373ffffffffffffffffffffffffffffffffffffffff160361202b57806040517f7e27328900000000000000000000000000000000000000000000000000000000815260040161202291906128cf565b60405180910390fd5b81816040517f177e802f000000000000000000000000000000000000000000000000000000008152600401612061929190613357565b60405180910390fd5b505050565b612079838361221c565b61208d612084611553565b5f858585611b23565b505050565b60605f60016120a08461230f565b0190505f8167ffffffffffffffff8111156120be576120bd612755565b5b6040519080825280601f01601f1916602001820160405280156120f05781602001600182028036833780820191505090505b5090505f82602001820190505b600115612151578080600190039150507f3031323334353637383961626364656600000000000000000000000000000000600a86061a8153600a85816121465761214561337e565b5b0494505f85036120fd575b819350505050919050565b5f5f73ffffffffffffffffffffffffffffffffffffffff168373ffffffffffffffffffffffffffffffffffffffff161415801561221357508273ffffffffffffffffffffffffffffffffffffffff168473ffffffffffffffffffffffffffffffffffffffff1614806121d457506121d384846112a1565b5b8061221257508273ffffffffffffffffffffffffffffffffffffffff166121fa8361151a565b73ffffffffffffffffffffffffffffffffffffffff16145b5b90509392505050565b5f73ffffffffffffffffffffffffffffffffffffffff168273ffffffffffffffffffffffffffffffffffffffff160361228c575f6040517f64a0ae920000000000000000000000000000000000000000000000000000000081526004016122839190612651565b60405180910390fd5b5f61229883835f61156c565b90505f73ffffffffffffffffffffffffffffffffffffffff168173ffffffffffffffffffffffffffffffffffffffff161461230a575f6040517f73c6ac6e0000000000000000000000000000000000000000000000000000000081526004016123019190612651565b60405180910390fd5b505050565b5f5f5f90507a184f03e93ff9f4daa797ed6e38ed64bf6a1f010000000000000000831061236b577a184f03e93ff9f4daa797ed6e38ed64bf6a1f01000000000000000083816123615761236061337e565b5b0492506040810190505b6d04ee2d6d415b85acef810000000083106123a8576d04ee2d6d415b85acef8100000000838161239e5761239d61337e565b5b0492506020810190505b662386f26fc1000083106123d757662386f26fc1000083816123cd576123cc61337e565b5b0492506010810190505b6305f5e1008310612400576305f5e10083816123f6576123f561337e565b5b0492506008810190505b612710831061242557612710838161241b5761241a61337e565b5b0492506004810190505b60648310612448576064838161243e5761243d61337e565b5b0492506002810190505b600a8310612457576001810190505b80915050919050565b5f604051905090565b5f5ffd5b5f5ffd5b5f7fffffffff0000000000000000000000000000000000000000000000000000000082169050919050565b6124a581612471565b81146124af575f5ffd5b50565b5f813590506124c08161249c565b92915050565b5f602082840312156124db576124da612469565b5b5f6124e8848285016124b2565b91505092915050565b5f8115159050919050565b612505816124f1565b82525050565b5f60208201905061251e5f8301846124fc565b92915050565b5f81519050919050565b5f82825260208201905092915050565b8281835e5f83830152505050565b5f601f19601f8301169050919050565b5f61256682612524565b612570818561252e565b935061258081856020860161253e565b6125898161254c565b840191505092915050565b5f6020820190508181035f8301526125ac818461255c565b905092915050565b5f819050919050565b6125c6816125b4565b81146125d0575f5ffd5b50565b5f813590506125e1816125bd565b92915050565b5f602082840312156125fc576125fb612469565b5b5f612609848285016125d3565b91505092915050565b5f73ffffffffffffffffffffffffffffffffffffffff82169050919050565b5f61263b82612612565b9050919050565b61264b81612631565b82525050565b5f6020820190506126645f830184612642565b92915050565b61267381612631565b811461267d575f5ffd5b50565b5f8135905061268e8161266a565b92915050565b5f5f604083850312156126aa576126a9612469565b5b5f6126b785828601612680565b92505060206126c8858286016125d3565b9150509250929050565b5f5f5f606084860312156126e9576126e8612469565b5b5f6126f686828701612680565b935050602061270786828701612680565b9250506040612718868287016125d3565b9150509250925092565b5f6020828403121561273757612736612469565b5b5f61274484828501612680565b91505092915050565b5f5ffd5b5f5ffd5b7f4e487b71000000000000000000000000000000000000000000000000000000005f52604160045260245ffd5b61278b8261254c565b810181811067ffffffffffffffff821117156127aa576127a9612755565b5b80604052505050565b5f6127bc612460565b90506127c88282612782565b919050565b5f67ffffffffffffffff8211156127e7576127e6612755565b5b6127f08261254c565b9050602081019050919050565b828183375f83830152505050565b5f61281d612818846127cd565b6127b3565b90508281526020810184848401111561283957612838612751565b5b6128448482856127fd565b509392505050565b5f82601f8301126128605761285f61274d565b5b813561287084826020860161280b565b91505092915050565b5f6020828403121561288e5761288d612469565b5b5f82013567ffffffffffffffff8111156128ab576128aa61246d565b5b6128b78482850161284c565b91505092915050565b6128c9816125b4565b82525050565b5f6020820190506128e25f8301846128c0565b92915050565b5f819050919050565b5f61290b61290661290184612612565b6128e8565b612612565b9050919050565b5f61291c826128f1565b9050919050565b5f61292d82612912565b9050919050565b61293d81612923565b82525050565b5f6020820190506129565f830184612934565b92915050565b612965816124f1565b811461296f575f5ffd5b50565b5f813590506129808161295c565b92915050565b5f5f6040838503121561299c5761299b612469565b5b5f6129a985828601612680565b92505060206129ba85828601612972565b9150509250929050565b5f67ffffffffffffffff8211156129de576129dd612755565b5b6129e78261254c565b9050602081019050919050565b5f612a06612a01846129c4565b6127b3565b905082815260208101848484011115612a2257612a21612751565b5b612a2d8482856127fd565b509392505050565b5f82601f830112612a4957612a4861274d565b5b8135612a598482602086016129f4565b91505092915050565b5f5f5f5f60808587031215612a7a57612a79612469565b5b5f612a8787828801612680565b9450506020612a9887828801612680565b9350506040612aa9878288016125d3565b925050606085013567ffffffffffffffff811115612aca57612ac961246d565b5b612ad687828801612a35565b91505092959194509250565b5f5f60408385031215612af857612af7612469565b5b5f612b0585828601612680565b925050602083013567ffffffffffffffff811115612b2657612b2561246d565b5b612b328582860161284c565b9150509250929050565b5f5f60408385031215612b5257612b51612469565b5b5f612b5f85828601612680565b9250506020612b7085828601612680565b9150509250929050565b7f4e487b71000000000000000000000000000000000000000000000000000000005f52602260045260245ffd5b5f6002820490506001821680612bbe57607f821691505b602082108103612bd157612bd0612b7a565b5b50919050565b5f606082019050612bea5f830186612642565b612bf760208301856128c0565b612c046040830184612642565b949350505050565b7f44414f20616c72656164792073657400000000000000000000000000000000005f82015250565b5f612c40600f8361252e565b9150612c4b82612c0c565b602082019050919050565b5f6020820190508181035f830152612c6d81612c34565b9050919050565b7f4f6e6c792044414f2063616e206275726e0000000000000000000000000000005f82015250565b5f612ca860118361252e565b9150612cb382612c74565b602082019050919050565b5f6020820190508181035f830152612cd581612c9c565b9050919050565b7f416c7265616479206d696e7465640000000000000000000000000000000000005f82015250565b5f612d10600e8361252e565b9150612d1b82612cdc565b602082019050919050565b5f6020820190508181035f830152612d3d81612d04565b9050919050565b7f697066733a2f2f00000000000000000000000000000000000000000000000000815250565b5f81905092915050565b5f612d7e82612524565b612d888185612d6a565b9350612d9881856020860161253e565b80840191505092915050565b5f612dae82612d44565b600782019150612dbe8284612d74565b915081905092915050565b5f819050815f5260205f209050919050565b5f6020601f8301049050919050565b5f82821b905092915050565b5f60088302612e257fffffffffffffffffffffffffffffffffffffffffffffffffffffffffffffffff82612dea565b612e2f8683612dea565b95508019841693508086168417925050509392505050565b5f612e61612e5c612e57846125b4565b6128e8565b6125b4565b9050919050565b5f819050919050565b612e7a83612e47565b612e8e612e8682612e68565b848454612df6565b825550505050565b5f5f905090565b612ea5612e96565b612eb0818484612e71565b505050565b5b81811015612ed357612ec85f82612e9d565b600181019050612eb6565b5050565b601f821115612f1857612ee981612dc9565b612ef284612ddb565b81016020851015612f01578190505b612f15612f0d85612ddb565b830182612eb5565b50505b505050565b5f82821c905092915050565b5f612f385f1984600802612f1d565b1980831691505092915050565b5f612f508383612f29565b9150826002028217905092915050565b612f6982612524565b67ffffffffffffffff811115612f8257612f81612755565b5b612f8c8254612ba7565b612f97828285612ed7565b5f60209050601f831160018114612fc8575f8415612fb6578287015190505b612fc08582612f45565b865550613027565b601f198416612fd686612dc9565b5f5b82811015612ffd57848901518255600182019150602085019450602081019050612fd8565b8683101561301a5784890151613016601f891682612f29565b8355505b6001600288020188555050505b505050505050565b7f4e487b71000000000000000000000000000000000000000000000000000000005f52601160045260245ffd5b5f613066826125b4565b91507fffffffffffffffffffffffffffffffffffffffffffffffffffffffffffffffff82036130985761309761302f565b5b600182019050919050565b5f6130ae8285612d74565b91506130ba8284612d74565b91508190509392505050565b5f815190506130d48161295c565b92915050565b5f602082840312156130ef576130ee612469565b5b5f6130fc848285016130c6565b91505092915050565b7f4e6f74206120726567697374657265642066616d696c79206d656d62657200005f82015250565b5f613139601e8361252e565b915061314482613105565b602082019050919050565b5f6020820190508181035f8301526131668161312d565b9050919050565b7f5468697320616464726573732068617320616c7265616479206d696e746564005f82015250565b5f6131a1601f8361252e565b91506131ac8261316d565b602082019050919050565b5f6020820190508181035f8301526131ce81613195565b9050919050565b5f815190506131e38161266a565b92915050565b5f602082840312156131fe576131fd612469565b5b5f61320b848285016131d5565b91505092915050565b7f506172656e7420686173206e6f74206d696e74656420616e204e4654207965745f82015250565b5f61324860208361252e565b915061325382613214565b602082019050919050565b5f6020820190508181035f8301526132758161323c565b9050919050565b5f81519050919050565b5f82825260208201905092915050565b5f6132a08261327c565b6132aa8185613286565b93506132ba81856020860161253e565b6132c38161254c565b840191505092915050565b5f6080820190506132e15f830187612642565b6132ee6020830186612642565b6132fb60408301856128c0565b818103606083015261330d8184613296565b905095945050505050565b5f815190506133268161249c565b92915050565b5f6020828403121561334157613340612469565b5b5f61334e84828501613318565b91505092915050565b5f60408201905061336a5f830185612642565b61337760208301846128c0565b9392505050565b7f4e487b71000000000000000000000000000000000000000000000000000000005f52601260045260245ffdfe6261666b72656966346f6532666a72616963666c70786b6a6769336a3332677678767a637134716f677877366b75787265726f33656772676d6669a264697066735822122049d784ff8abbc25adf5367038eaa64a8ece00a7873b62907e83215cb4ca787e564736f6c634300081c0033",
        "linkReferences": {}
    },
    "methodIdentifiers": {
        "adminMint(string)": "53655d5d",
        "approve(address,uint256)": "095ea7b3",
        "balanceOf(address)": "70a08231",
        "burn(uint256)": "42966c68",
        "familyDAO()": "34b6ea1f",
        "getApproved(uint256)": "081812fc",
        "getMetadataURI(uint256)": "bde644fb",
        "hasMinted(address)": "38e21cce",
        "isApprovedForAll(address,address)": "e985e9c5",
        "mint(address,string)": "d0def521",
        "name()": "06fdde03",
        "nextTokenId()": "75794a3c",
        "owner()": "8da5cb5b",
        "ownerOf(uint256)": "6352211e",
        "registry()": "7b103999",
        "renounceOwnership()": "715018a6",
        "safeTransferFrom(address,address,uint256)": "42842e0e",
        "safeTransferFrom(address,address,uint256,bytes)": "b88d4fde",
        "setApprovalForAll(address,bool)": "a22cb465",
        "setFamilyDAO(address)": "28610553",
        "supportsInterface(bytes4)": "01ffc9a7",
        "symbol()": "95d89b41",
        "tokenMetadataURI(uint256)": "157c3df9",
        "tokenURI(uint256)": "c87b56dd",
        "transferFrom(address,address,uint256)": "23b872dd",
        "transferOwnership(address)": "f2fde38b"
    },
    "id": 40
}